{
	"hostel.sol": {
		"Hostel": {
			"abi": [
				{
					"inputs": [
						{
							"internalType": "uint256",
							"name": "",
							"type": "uint256"
						}
					],
					"name": "Rent_by_No",
					"outputs": [
						{
							"internalType": "uint256",
							"name": "rentno",
							"type": "uint256"
						},
						{
							"internalType": "uint256",
							"name": "roomid",
							"type": "uint256"
						},
						{
							"internalType": "uint256",
							"name": "agreementid",
							"type": "uint256"
						},
						{
							"internalType": "string",
							"name": "Roomname",
							"type": "string"
						},
						{
							"internalType": "string",
							"name": "RoomAddresss",
							"type": "string"
						},
						{
							"internalType": "uint256",
							"name": "rent_per_month",
							"type": "uint256"
						},
						{
							"internalType": "uint256",
							"name": "timestamp",
							"type": "uint256"
						},
						{
							"internalType": "address payable",
							"name": "tenantAddress",
							"type": "address"
						},
						{
							"internalType": "address payable",
							"name": "landlordAddress",
							"type": "address"
						}
					],
					"stateMutability": "view",
					"type": "function"
				},
				{
					"inputs": [
						{
							"internalType": "uint256",
							"name": "",
							"type": "uint256"
						}
					],
					"name": "RoomAgreement_by_No",
					"outputs": [
						{
							"internalType": "uint256",
							"name": "roomid",
							"type": "uint256"
						},
						{
							"internalType": "uint256",
							"name": "agreementid",
							"type": "uint256"
						},
						{
							"internalType": "string",
							"name": "Roomname",
							"type": "string"
						},
						{
							"internalType": "string",
							"name": "RoomAddresss",
							"type": "string"
						},
						{
							"internalType": "uint256",
							"name": "rent_per_month",
							"type": "uint256"
						},
						{
							"internalType": "uint256",
							"name": "securityDeposit",
							"type": "uint256"
						},
						{
							"internalType": "uint256",
							"name": "lockInPeriod",
							"type": "uint256"
						},
						{
							"internalType": "uint256",
							"name": "timestamp",
							"type": "uint256"
						},
						{
							"internalType": "address payable",
							"name": "tenantAddress",
							"type": "address"
						},
						{
							"internalType": "address payable",
							"name": "landlordAddress",
							"type": "address"
						}
					],
					"stateMutability": "view",
					"type": "function"
				},
				{
					"inputs": [
						{
							"internalType": "uint256",
							"name": "",
							"type": "uint256"
						}
					],
					"name": "Room_by_No",
					"outputs": [
						{
							"internalType": "uint256",
							"name": "roomid",
							"type": "uint256"
						},
						{
							"internalType": "uint256",
							"name": "agreementid",
							"type": "uint256"
						},
						{
							"internalType": "string",
							"name": "roomname",
							"type": "string"
						},
						{
							"internalType": "string",
							"name": "roomaddress",
							"type": "string"
						},
						{
							"internalType": "uint256",
							"name": "rent_per_month",
							"type": "uint256"
						},
						{
							"internalType": "uint256",
							"name": "securityDeposit",
							"type": "uint256"
						},
						{
							"internalType": "uint256",
							"name": "timestamp",
							"type": "uint256"
						},
						{
							"internalType": "bool",
							"name": "vacant",
							"type": "bool"
						},
						{
							"internalType": "address payable",
							"name": "landlord",
							"type": "address"
						},
						{
							"internalType": "address payable",
							"name": "currentTenant",
							"type": "address"
						}
					],
					"stateMutability": "view",
					"type": "function"
				},
				{
					"inputs": [
						{
							"internalType": "string",
							"name": "_roomname",
							"type": "string"
						},
						{
							"internalType": "string",
							"name": "_roomaddress",
							"type": "string"
						},
						{
							"internalType": "uint256",
							"name": "_rentcost",
							"type": "uint256"
						},
						{
							"internalType": "uint256",
							"name": "_securitydeposit",
							"type": "uint256"
						}
					],
					"name": "addRoom",
					"outputs": [],
					"stateMutability": "nonpayable",
					"type": "function"
				},
				{
					"inputs": [
						{
							"internalType": "uint256",
							"name": "_index",
							"type": "uint256"
						}
					],
					"name": "agreementCompleted",
					"outputs": [],
					"stateMutability": "payable",
					"type": "function"
				},
				{
					"inputs": [
						{
							"internalType": "uint256",
							"name": "_index",
							"type": "uint256"
						}
					],
					"name": "agreementTerminated",
					"outputs": [],
					"stateMutability": "nonpayable",
					"type": "function"
				},
				{
					"inputs": [],
					"name": "no_of_agreements",
					"outputs": [
						{
							"internalType": "uint256",
							"name": "",
							"type": "uint256"
						}
					],
					"stateMutability": "view",
					"type": "function"
				},
				{
					"inputs": [],
					"name": "no_of_rent",
					"outputs": [
						{
							"internalType": "uint256",
							"name": "",
							"type": "uint256"
						}
					],
					"stateMutability": "view",
					"type": "function"
				},
				{
					"inputs": [],
					"name": "no_of_rooms",
					"outputs": [
						{
							"internalType": "uint256",
							"name": "",
							"type": "uint256"
						}
					],
					"stateMutability": "view",
					"type": "function"
				},
				{
					"inputs": [
						{
							"internalType": "uint256",
							"name": "_index",
							"type": "uint256"
						}
					],
					"name": "payRent",
					"outputs": [],
					"stateMutability": "payable",
					"type": "function"
				},
				{
					"inputs": [
						{
							"internalType": "uint256",
							"name": "_index",
							"type": "uint256"
						}
					],
					"name": "signAgreement",
					"outputs": [],
					"stateMutability": "payable",
					"type": "function"
				}
			],
			"devdoc": {
				"kind": "dev",
				"methods": {},
				"version": 1
			},
			"evm": {
				"assembly": "    /* \"hostel.sol\":63:6627  contract Hostel {... */\n  mstore(0x40, 0x80)\n    /* \"hostel.sol\":171:172  0 */\n  0x00\n    /* \"hostel.sol\":145:172  uint public no_of_rooms = 0 */\n  0x02\n  sstore\n    /* \"hostel.sol\":209:210  0 */\n  0x00\n    /* \"hostel.sol\":178:210  uint public no_of_agreements = 0 */\n  0x03\n  sstore\n    /* \"hostel.sol\":241:242  0 */\n  0x00\n    /* \"hostel.sol\":216:242  uint public no_of_rent = 0 */\n  0x04\n  sstore\n    /* \"hostel.sol\":63:6627  contract Hostel {... */\n  callvalue\n  dup1\n  iszero\n  tag_1\n  jumpi\n  0x00\n  dup1\n  revert\ntag_1:\n  pop\n  dataSize(sub_0)\n  dup1\n  dataOffset(sub_0)\n  0x00\n  codecopy\n  0x00\n  return\nstop\n\nsub_0: assembly {\n        /* \"hostel.sol\":63:6627  contract Hostel {... */\n      mstore(0x40, 0x80)\n      jumpi(tag_1, lt(calldatasize, 0x04))\n      shr(0xe0, calldataload(0x00))\n      dup1\n      0x4f5e4428\n      gt\n      tag_13\n      jumpi\n      dup1\n      0x4f5e4428\n      eq\n      tag_7\n      jumpi\n      dup1\n      0x59e2cbec\n      eq\n      tag_8\n      jumpi\n      dup1\n      0x63e475bd\n      eq\n      tag_9\n      jumpi\n      dup1\n      0x75eb9ef6\n      eq\n      tag_10\n      jumpi\n      dup1\n      0xd0d205b7\n      eq\n      tag_11\n      jumpi\n      dup1\n      0xd9e8843f\n      eq\n      tag_12\n      jumpi\n      jump(tag_1)\n    tag_13:\n      dup1\n      0x02bb2725\n      eq\n      tag_2\n      jumpi\n      dup1\n      0x03742de0\n      eq\n      tag_3\n      jumpi\n      dup1\n      0x16abb8a1\n      eq\n      tag_4\n      jumpi\n      dup1\n      0x249461e1\n      eq\n      tag_5\n      jumpi\n      dup1\n      0x46959587\n      eq\n      tag_6\n      jumpi\n    tag_1:\n      0x00\n      dup1\n      revert\n        /* \"hostel.sol\":1132:1189  mapping(uint => RoomAgreement) public RoomAgreement_by_No */\n    tag_2:\n      callvalue\n      dup1\n      iszero\n      tag_14\n      jumpi\n      0x00\n      dup1\n      revert\n    tag_14:\n      pop\n      tag_15\n      0x04\n      dup1\n      calldatasize\n      sub\n      dup2\n      add\n      swap1\n      tag_16\n      swap2\n      swap1\n      tag_17\n      jump\t// in\n    tag_16:\n      tag_18\n      jump\t// in\n    tag_15:\n      mload(0x40)\n      tag_19\n      swap11\n      swap10\n      swap9\n      swap8\n      swap7\n      swap6\n      swap5\n      swap4\n      swap3\n      swap2\n      swap1\n      tag_20\n      jump\t// in\n    tag_19:\n      mload(0x40)\n      dup1\n      swap2\n      sub\n      swap1\n      return\n        /* \"hostel.sol\":4204:5330  function signAgreement(uint _index) public payable notLandLord(_index) enoughAgreementfee(_index) OnlyWhileVacant(_index) {... */\n    tag_3:\n      tag_21\n      0x04\n      dup1\n      calldatasize\n      sub\n      dup2\n      add\n      swap1\n      tag_22\n      swap2\n      swap1\n      tag_17\n      jump\t// in\n    tag_22:\n      tag_23\n      jump\t// in\n    tag_21:\n      stop\n        /* \"hostel.sol\":5997:6426  function agreementCompleted(uint _index) public payable onlyLandlord(_index) AgreementTimesUp(_index){... */\n    tag_4:\n      tag_24\n      0x04\n      dup1\n      calldatasize\n      sub\n      dup2\n      add\n      swap1\n      tag_25\n      swap2\n      swap1\n      tag_17\n      jump\t// in\n    tag_25:\n      tag_26\n      jump\t// in\n    tag_24:\n      stop\n        /* \"hostel.sol\":178:210  uint public no_of_agreements = 0 */\n    tag_5:\n      callvalue\n      dup1\n      iszero\n      tag_27\n      jumpi\n      0x00\n      dup1\n      revert\n    tag_27:\n      pop\n      tag_28\n      tag_29\n      jump\t// in\n    tag_28:\n      mload(0x40)\n      tag_30\n      swap2\n      swap1\n      tag_31\n      jump\t// in\n    tag_30:\n      mload(0x40)\n      dup1\n      swap2\n      sub\n      swap1\n      return\n        /* \"hostel.sol\":551:590  mapping(uint => Room) public Room_by_No */\n    tag_6:\n      callvalue\n      dup1\n      iszero\n      tag_32\n      jumpi\n      0x00\n      dup1\n      revert\n    tag_32:\n      pop\n      tag_33\n      0x04\n      dup1\n      calldatasize\n      sub\n      dup2\n      add\n      swap1\n      tag_34\n      swap2\n      swap1\n      tag_17\n      jump\t// in\n    tag_34:\n      tag_35\n      jump\t// in\n    tag_33:\n      mload(0x40)\n      tag_36\n      swap11\n      swap10\n      swap9\n      swap8\n      swap7\n      swap6\n      swap5\n      swap4\n      swap3\n      swap2\n      swap1\n      tag_37\n      jump\t// in\n    tag_36:\n      mload(0x40)\n      dup1\n      swap2\n      sub\n      swap1\n      return\n        /* \"hostel.sol\":6432:6620  function agreementTerminated(uint _index) public onlyLandlord(_index) AgreementTimesLeft(_index){... */\n    tag_7:\n      callvalue\n      dup1\n      iszero\n      tag_38\n      jumpi\n      0x00\n      dup1\n      revert\n    tag_38:\n      pop\n      tag_39\n      0x04\n      dup1\n      calldatasize\n      sub\n      dup2\n      add\n      swap1\n      tag_40\n      swap2\n      swap1\n      tag_17\n      jump\t// in\n    tag_40:\n      tag_41\n      jump\t// in\n    tag_39:\n      stop\n        /* \"hostel.sol\":145:172  uint public no_of_rooms = 0 */\n    tag_8:\n      callvalue\n      dup1\n      iszero\n      tag_42\n      jumpi\n      0x00\n      dup1\n      revert\n    tag_42:\n      pop\n      tag_43\n      tag_44\n      jump\t// in\n    tag_43:\n      mload(0x40)\n      tag_45\n      swap2\n      swap1\n      tag_31\n      jump\t// in\n    tag_45:\n      mload(0x40)\n      dup1\n      swap2\n      sub\n      swap1\n      return\n        /* \"hostel.sol\":3482:4198  function addRoom(string memory _roomname, string memory _roomaddress, uint _rentcost, uint _securitydeposit) public {... */\n    tag_9:\n      callvalue\n      dup1\n      iszero\n      tag_46\n      jumpi\n      0x00\n      dup1\n      revert\n    tag_46:\n      pop\n      tag_47\n      0x04\n      dup1\n      calldatasize\n      sub\n      dup2\n      add\n      swap1\n      tag_48\n      swap2\n      swap1\n      tag_49\n      jump\t// in\n    tag_48:\n      tag_50\n      jump\t// in\n    tag_47:\n      stop\n        /* \"hostel.sol\":216:242  uint public no_of_rent = 0 */\n    tag_10:\n      callvalue\n      dup1\n      iszero\n      tag_51\n      jumpi\n      0x00\n      dup1\n      revert\n    tag_51:\n      pop\n      tag_52\n      tag_53\n      jump\t// in\n    tag_52:\n      mload(0x40)\n      tag_54\n      swap2\n      swap1\n      tag_31\n      jump\t// in\n    tag_54:\n      mload(0x40)\n      dup1\n      swap2\n      sub\n      swap1\n      return\n        /* \"hostel.sol\":1475:1514  mapping(uint => Rent) public Rent_by_No */\n    tag_11:\n      callvalue\n      dup1\n      iszero\n      tag_55\n      jumpi\n      0x00\n      dup1\n      revert\n    tag_55:\n      pop\n      tag_56\n      0x04\n      dup1\n      calldatasize\n      sub\n      dup2\n      add\n      swap1\n      tag_57\n      swap2\n      swap1\n      tag_17\n      jump\t// in\n    tag_57:\n      tag_58\n      jump\t// in\n    tag_56:\n      mload(0x40)\n      tag_59\n      swap10\n      swap9\n      swap8\n      swap7\n      swap6\n      swap5\n      swap4\n      swap3\n      swap2\n      swap1\n      tag_60\n      jump\t// in\n    tag_59:\n      mload(0x40)\n      dup1\n      swap2\n      sub\n      swap1\n      return\n        /* \"hostel.sol\":5336:5991  function payRent(uint _index) public payable sameTenant(_index) RentTimesUp(_index) enoughRent(_index){... */\n    tag_12:\n      tag_61\n      0x04\n      dup1\n      calldatasize\n      sub\n      dup2\n      add\n      swap1\n      tag_62\n      swap2\n      swap1\n      tag_17\n      jump\t// in\n    tag_62:\n      tag_63\n      jump\t// in\n    tag_61:\n      stop\n        /* \"hostel.sol\":1132:1189  mapping(uint => RoomAgreement) public RoomAgreement_by_No */\n    tag_18:\n      mstore(0x20, 0x06)\n      dup1\n      0x00\n      mstore\n      keccak256(0x00, 0x40)\n      0x00\n      swap2\n      pop\n      swap1\n      pop\n      dup1\n      0x00\n      add\n      sload\n      swap1\n      dup1\n      0x01\n      add\n      sload\n      swap1\n      dup1\n      0x02\n      add\n      dup1\n      sload\n      tag_64\n      swap1\n      tag_65\n      jump\t// in\n    tag_64:\n      dup1\n      0x1f\n      add\n      0x20\n      dup1\n      swap2\n      div\n      mul\n      0x20\n      add\n      mload(0x40)\n      swap1\n      dup2\n      add\n      0x40\n      mstore\n      dup1\n      swap3\n      swap2\n      swap1\n      dup2\n      dup2\n      mstore\n      0x20\n      add\n      dup3\n      dup1\n      sload\n      tag_66\n      swap1\n      tag_65\n      jump\t// in\n    tag_66:\n      dup1\n      iszero\n      tag_67\n      jumpi\n      dup1\n      0x1f\n      lt\n      tag_68\n      jumpi\n      0x0100\n      dup1\n      dup4\n      sload\n      div\n      mul\n      dup4\n      mstore\n      swap2\n      0x20\n      add\n      swap2\n      jump(tag_67)\n    tag_68:\n      dup3\n      add\n      swap2\n      swap1\n      0x00\n      mstore\n      keccak256(0x00, 0x20)\n      swap1\n    tag_69:\n      dup2\n      sload\n      dup2\n      mstore\n      swap1\n      0x01\n      add\n      swap1\n      0x20\n      add\n      dup1\n      dup4\n      gt\n      tag_69\n      jumpi\n      dup3\n      swap1\n      sub\n      0x1f\n      and\n      dup3\n      add\n      swap2\n    tag_67:\n      pop\n      pop\n      pop\n      pop\n      pop\n      swap1\n      dup1\n      0x03\n      add\n      dup1\n      sload\n      tag_70\n      swap1\n      tag_65\n      jump\t// in\n    tag_70:\n      dup1\n      0x1f\n      add\n      0x20\n      dup1\n      swap2\n      div\n      mul\n      0x20\n      add\n      mload(0x40)\n      swap1\n      dup2\n      add\n      0x40\n      mstore\n      dup1\n      swap3\n      swap2\n      swap1\n      dup2\n      dup2\n      mstore\n      0x20\n      add\n      dup3\n      dup1\n      sload\n      tag_71\n      swap1\n      tag_65\n      jump\t// in\n    tag_71:\n      dup1\n      iszero\n      tag_72\n      jumpi\n      dup1\n      0x1f\n      lt\n      tag_73\n      jumpi\n      0x0100\n      dup1\n      dup4\n      sload\n      div\n      mul\n      dup4\n      mstore\n      swap2\n      0x20\n      add\n      swap2\n      jump(tag_72)\n    tag_73:\n      dup3\n      add\n      swap2\n      swap1\n      0x00\n      mstore\n      keccak256(0x00, 0x20)\n      swap1\n    tag_74:\n      dup2\n      sload\n      dup2\n      mstore\n      swap1\n      0x01\n      add\n      swap1\n      0x20\n      add\n      dup1\n      dup4\n      gt\n      tag_74\n      jumpi\n      dup3\n      swap1\n      sub\n      0x1f\n      and\n      dup3\n      add\n      swap2\n    tag_72:\n      pop\n      pop\n      pop\n      pop\n      pop\n      swap1\n      dup1\n      0x04\n      add\n      sload\n      swap1\n      dup1\n      0x05\n      add\n      sload\n      swap1\n      dup1\n      0x06\n      add\n      sload\n      swap1\n      dup1\n      0x07\n      add\n      sload\n      swap1\n      dup1\n      0x08\n      add\n      0x00\n      swap1\n      sload\n      swap1\n      0x0100\n      exp\n      swap1\n      div\n      0xffffffffffffffffffffffffffffffffffffffff\n      and\n      swap1\n      dup1\n      0x09\n      add\n      0x00\n      swap1\n      sload\n      swap1\n      0x0100\n      exp\n      swap1\n      div\n      0xffffffffffffffffffffffffffffffffffffffff\n      and\n      swap1\n      pop\n      dup11\n      jump\t// out\n        /* \"hostel.sol\":4204:5330  function signAgreement(uint _index) public payable notLandLord(_index) enoughAgreementfee(_index) OnlyWhileVacant(_index) {... */\n    tag_23:\n        /* \"hostel.sol\":4267:4273  _index */\n      dup1\n        /* \"hostel.sol\":1849:1859  Room_by_No */\n      0x05\n        /* \"hostel.sol\":1849:1867  Room_by_No[_index] */\n      0x00\n        /* \"hostel.sol\":1860:1866  _index */\n      dup3\n        /* \"hostel.sol\":1849:1867  Room_by_No[_index] */\n      dup2\n      mstore\n      0x20\n      add\n      swap1\n      dup2\n      mstore\n      0x20\n      add\n      0x00\n      keccak256\n        /* \"hostel.sol\":1849:1876  Room_by_No[_index].landlord */\n      0x07\n      add\n      0x01\n      swap1\n      sload\n      swap1\n      0x0100\n      exp\n      swap1\n      div\n      0xffffffffffffffffffffffffffffffffffffffff\n      and\n        /* \"hostel.sol\":1835:1876  msg.sender != Room_by_No[_index].landlord */\n      0xffffffffffffffffffffffffffffffffffffffff\n      and\n        /* \"hostel.sol\":1835:1845  msg.sender */\n      caller\n        /* \"hostel.sol\":1835:1876  msg.sender != Room_by_No[_index].landlord */\n      0xffffffffffffffffffffffffffffffffffffffff\n      and\n      eq\n      iszero\n        /* \"hostel.sol\":1827:1908  require(msg.sender != Room_by_No[_index].landlord, \"Only Tenant can access this\") */\n      tag_76\n      jumpi\n      mload(0x40)\n      0x08c379a000000000000000000000000000000000000000000000000000000000\n      dup2\n      mstore\n      0x04\n      add\n      tag_77\n      swap1\n      tag_78\n      jump\t// in\n    tag_77:\n      mload(0x40)\n      dup1\n      swap2\n      sub\n      swap1\n      revert\n    tag_76:\n        /* \"hostel.sol\":4294:4300  _index */\n      dup2\n        /* \"hostel.sol\":2363:2373  Room_by_No */\n      0x05\n        /* \"hostel.sol\":2363:2381  Room_by_No[_index] */\n      0x00\n        /* \"hostel.sol\":2374:2380  _index */\n      dup3\n        /* \"hostel.sol\":2363:2381  Room_by_No[_index] */\n      dup2\n      mstore\n      0x20\n      add\n      swap1\n      dup2\n      mstore\n      0x20\n      add\n      0x00\n      keccak256\n        /* \"hostel.sol\":2363:2397  Room_by_No[_index].securityDeposit */\n      0x05\n      add\n      sload\n        /* \"hostel.sol\":2321:2331  Room_by_No */\n      0x05\n        /* \"hostel.sol\":2321:2339  Room_by_No[_index] */\n      0x00\n        /* \"hostel.sol\":2332:2338  _index */\n      dup4\n        /* \"hostel.sol\":2321:2339  Room_by_No[_index] */\n      dup2\n      mstore\n      0x20\n      add\n      swap1\n      dup2\n      mstore\n      0x20\n      add\n      0x00\n      keccak256\n        /* \"hostel.sol\":2321:2354  Room_by_No[_index].rent_per_month */\n      0x04\n      add\n      sload\n        /* \"hostel.sol\":2316:2398  uint(Room_by_No[_index].rent_per_month) + uint(Room_by_No[_index].securityDeposit) */\n      tag_80\n      swap2\n      swap1\n      tag_81\n      jump\t// in\n    tag_80:\n        /* \"hostel.sol\":2298:2307  msg.value */\n      callvalue\n        /* \"hostel.sol\":2298:2399  msg.value >= uint(uint(Room_by_No[_index].rent_per_month) + uint(Room_by_No[_index].securityDeposit)) */\n      lt\n      iszero\n        /* \"hostel.sol\":2290:2435  require(msg.value >= uint(uint(Room_by_No[_index].rent_per_month) + uint(Room_by_No[_index].securityDeposit)), \"Not enough Ether in your wallet\") */\n      tag_82\n      jumpi\n      mload(0x40)\n      0x08c379a000000000000000000000000000000000000000000000000000000000\n      dup2\n      mstore\n      0x04\n      add\n      tag_83\n      swap1\n      tag_84\n      jump\t// in\n    tag_83:\n      mload(0x40)\n      dup1\n      swap2\n      sub\n      swap1\n      revert\n    tag_82:\n        /* \"hostel.sol\":4318:4324  _index */\n      dup3\n        /* \"hostel.sol\":2016:2020  true */\n      0x01\n        /* \"hostel.sol\":1987:2020  Room_by_No[_index].vacant == true */\n      iszero\n      iszero\n        /* \"hostel.sol\":1987:1997  Room_by_No */\n      0x05\n        /* \"hostel.sol\":1987:2005  Room_by_No[_index] */\n      0x00\n        /* \"hostel.sol\":1998:2004  _index */\n      dup4\n        /* \"hostel.sol\":1987:2005  Room_by_No[_index] */\n      dup2\n      mstore\n      0x20\n      add\n      swap1\n      dup2\n      mstore\n      0x20\n      add\n      0x00\n      keccak256\n        /* \"hostel.sol\":1987:2012  Room_by_No[_index].vacant */\n      0x07\n      add\n      0x00\n      swap1\n      sload\n      swap1\n      0x0100\n      exp\n      swap1\n      div\n      0xff\n      and\n        /* \"hostel.sol\":1987:2020  Room_by_No[_index].vacant == true */\n      iszero\n      iszero\n      eq\n        /* \"hostel.sol\":1979:2052  require(Room_by_No[_index].vacant == true, \"Room is currently Occupied.\") */\n      tag_86\n      jumpi\n      mload(0x40)\n      0x08c379a000000000000000000000000000000000000000000000000000000000\n      dup2\n      mstore\n      0x04\n      add\n      tag_87\n      swap1\n      tag_88\n      jump\t// in\n    tag_87:\n      mload(0x40)\n      dup1\n      swap2\n      sub\n      swap1\n      revert\n    tag_86:\n        /* \"hostel.sol\":4366:4367  0 */\n      0x00\n        /* \"hostel.sol\":4344:4368  msg.sender != address(0) */\n      0xffffffffffffffffffffffffffffffffffffffff\n      and\n        /* \"hostel.sol\":4344:4354  msg.sender */\n      caller\n        /* \"hostel.sol\":4344:4368  msg.sender != address(0) */\n      0xffffffffffffffffffffffffffffffffffffffff\n      and\n      eq\n      iszero\n        /* \"hostel.sol\":4336:4369  require(msg.sender != address(0)) */\n      tag_90\n      jumpi\n      0x00\n      dup1\n      revert\n    tag_90:\n        /* \"hostel.sol\":4379:4404  address payable _landlord */\n      0x00\n        /* \"hostel.sol\":4407:4417  Room_by_No */\n      0x05\n        /* \"hostel.sol\":4407:4425  Room_by_No[_index] */\n      0x00\n        /* \"hostel.sol\":4418:4424  _index */\n      dup7\n        /* \"hostel.sol\":4407:4425  Room_by_No[_index] */\n      dup2\n      mstore\n      0x20\n      add\n      swap1\n      dup2\n      mstore\n      0x20\n      add\n      0x00\n      keccak256\n        /* \"hostel.sol\":4407:4434  Room_by_No[_index].landlord */\n      0x07\n      add\n      0x01\n      swap1\n      sload\n      swap1\n      0x0100\n      exp\n      swap1\n      div\n      0xffffffffffffffffffffffffffffffffffffffff\n      and\n        /* \"hostel.sol\":4379:4434  address payable _landlord = Room_by_No[_index].landlord */\n      swap1\n      pop\n        /* \"hostel.sol\":4444:4457  uint totalfee */\n      0x00\n        /* \"hostel.sol\":4496:4506  Room_by_No */\n      0x05\n        /* \"hostel.sol\":4496:4514  Room_by_No[_index] */\n      0x00\n        /* \"hostel.sol\":4507:4513  _index */\n      dup8\n        /* \"hostel.sol\":4496:4514  Room_by_No[_index] */\n      dup2\n      mstore\n      0x20\n      add\n      swap1\n      dup2\n      mstore\n      0x20\n      add\n      0x00\n      keccak256\n        /* \"hostel.sol\":4496:4530  Room_by_No[_index].securityDeposit */\n      0x05\n      add\n      sload\n        /* \"hostel.sol\":4460:4470  Room_by_No */\n      0x05\n        /* \"hostel.sol\":4460:4478  Room_by_No[_index] */\n      0x00\n        /* \"hostel.sol\":4471:4477  _index */\n      dup9\n        /* \"hostel.sol\":4460:4478  Room_by_No[_index] */\n      dup2\n      mstore\n      0x20\n      add\n      swap1\n      dup2\n      mstore\n      0x20\n      add\n      0x00\n      keccak256\n        /* \"hostel.sol\":4460:4493  Room_by_No[_index].rent_per_month */\n      0x04\n      add\n      sload\n        /* \"hostel.sol\":4460:4530  Room_by_No[_index].rent_per_month + Room_by_No[_index].securityDeposit */\n      tag_91\n      swap2\n      swap1\n      tag_81\n      jump\t// in\n    tag_91:\n        /* \"hostel.sol\":4444:4530  uint totalfee = Room_by_No[_index].rent_per_month + Room_by_No[_index].securityDeposit */\n      swap1\n      pop\n        /* \"hostel.sol\":4540:4549  _landlord */\n      dup2\n        /* \"hostel.sol\":4540:4558  _landlord.transfer */\n      0xffffffffffffffffffffffffffffffffffffffff\n      and\n        /* \"hostel.sol\":4540:4568  _landlord.transfer(totalfee) */\n      0x08fc\n        /* \"hostel.sol\":4559:4567  totalfee */\n      dup3\n        /* \"hostel.sol\":4540:4568  _landlord.transfer(totalfee) */\n      swap1\n      dup2\n      iszero\n      mul\n      swap1\n      mload(0x40)\n      0x00\n      mload(0x40)\n      dup1\n      dup4\n      sub\n      dup2\n      dup6\n      dup9\n      dup9\n      call\n      swap4\n      pop\n      pop\n      pop\n      pop\n      iszero\n      dup1\n      iszero\n      tag_93\n      jumpi\n      returndatasize\n      0x00\n      dup1\n      returndatacopy\n      revert(0x00, returndatasize)\n    tag_93:\n      pop\n        /* \"hostel.sol\":4578:4594  no_of_agreements */\n      0x03\n      0x00\n        /* \"hostel.sol\":4578:4596  no_of_agreements++ */\n      dup2\n      sload\n      dup1\n      swap3\n      swap2\n      swap1\n      tag_94\n      swap1\n      tag_95\n      jump\t// in\n    tag_94:\n      swap2\n      swap1\n      pop\n      sstore\n      pop\n        /* \"hostel.sol\":4649:4659  msg.sender */\n      caller\n        /* \"hostel.sol\":4606:4616  Room_by_No */\n      0x05\n        /* \"hostel.sol\":4606:4624  Room_by_No[_index] */\n      0x00\n        /* \"hostel.sol\":4617:4623  _index */\n      dup9\n        /* \"hostel.sol\":4606:4624  Room_by_No[_index] */\n      dup2\n      mstore\n      0x20\n      add\n      swap1\n      dup2\n      mstore\n      0x20\n      add\n      0x00\n      keccak256\n        /* \"hostel.sol\":4606:4638  Room_by_No[_index].currentTenant */\n      0x08\n      add\n      0x00\n        /* \"hostel.sol\":4606:4660  Room_by_No[_index].currentTenant = payable(msg.sender) */\n      0x0100\n      exp\n      dup2\n      sload\n      dup2\n      0xffffffffffffffffffffffffffffffffffffffff\n      mul\n      not\n      and\n      swap1\n      dup4\n      0xffffffffffffffffffffffffffffffffffffffff\n      and\n      mul\n      or\n      swap1\n      sstore\n      pop\n        /* \"hostel.sol\":4698:4703  false */\n      0x00\n        /* \"hostel.sol\":4670:4680  Room_by_No */\n      0x05\n        /* \"hostel.sol\":4670:4688  Room_by_No[_index] */\n      0x00\n        /* \"hostel.sol\":4681:4687  _index */\n      dup9\n        /* \"hostel.sol\":4670:4688  Room_by_No[_index] */\n      dup2\n      mstore\n      0x20\n      add\n      swap1\n      dup2\n      mstore\n      0x20\n      add\n      0x00\n      keccak256\n        /* \"hostel.sol\":4670:4695  Room_by_No[_index].vacant */\n      0x07\n      add\n      0x00\n        /* \"hostel.sol\":4670:4703  Room_by_No[_index].vacant = false */\n      0x0100\n      exp\n      dup2\n      sload\n      dup2\n      0xff\n      mul\n      not\n      and\n      swap1\n      dup4\n      iszero\n      iszero\n      mul\n      or\n      swap1\n      sstore\n      pop\n        /* \"hostel.sol\":4744:4759  block.timestamp */\n      timestamp\n        /* \"hostel.sol\":4713:4723  Room_by_No */\n      0x05\n        /* \"hostel.sol\":4713:4731  Room_by_No[_index] */\n      0x00\n        /* \"hostel.sol\":4724:4730  _index */\n      dup9\n        /* \"hostel.sol\":4713:4731  Room_by_No[_index] */\n      dup2\n      mstore\n      0x20\n      add\n      swap1\n      dup2\n      mstore\n      0x20\n      add\n      0x00\n      keccak256\n        /* \"hostel.sol\":4713:4741  Room_by_No[_index].timestamp */\n      0x06\n      add\n        /* \"hostel.sol\":4713:4759  Room_by_No[_index].timestamp = block.timestamp */\n      dup2\n      swap1\n      sstore\n      pop\n        /* \"hostel.sol\":4802:4818  no_of_agreements */\n      sload(0x03)\n        /* \"hostel.sol\":4769:4779  Room_by_No */\n      0x05\n        /* \"hostel.sol\":4769:4787  Room_by_No[_index] */\n      0x00\n        /* \"hostel.sol\":4780:4786  _index */\n      dup9\n        /* \"hostel.sol\":4769:4787  Room_by_No[_index] */\n      dup2\n      mstore\n      0x20\n      add\n      swap1\n      dup2\n      mstore\n      0x20\n      add\n      0x00\n      keccak256\n        /* \"hostel.sol\":4769:4799  Room_by_No[_index].agreementid */\n      0x01\n      add\n        /* \"hostel.sol\":4769:4818  Room_by_No[_index].agreementid = no_of_agreements */\n      dup2\n      swap1\n      sstore\n      pop\n        /* \"hostel.sol\":4866:5087  RoomAgreement(_index,no_of_agreements,Room_by_No[_index].roomname,Room_by_No[_index].roomaddress,Room_by_No[_index].rent_per_month,Room_by_No[_index].securityDeposit,365 days,block.timestamp,payable(msg.sender),_landlord) */\n      mload(0x40)\n      dup1\n      0x0140\n      add\n      0x40\n      mstore\n      dup1\n        /* \"hostel.sol\":4880:4886  _index */\n      dup8\n        /* \"hostel.sol\":4866:5087  RoomAgreement(_index,no_of_agreements,Room_by_No[_index].roomname,Room_by_No[_index].roomaddress,Room_by_No[_index].rent_per_month,Room_by_No[_index].securityDeposit,365 days,block.timestamp,payable(msg.sender),_landlord) */\n      dup2\n      mstore\n      0x20\n      add\n        /* \"hostel.sol\":4887:4903  no_of_agreements */\n      sload(0x03)\n        /* \"hostel.sol\":4866:5087  RoomAgreement(_index,no_of_agreements,Room_by_No[_index].roomname,Room_by_No[_index].roomaddress,Room_by_No[_index].rent_per_month,Room_by_No[_index].securityDeposit,365 days,block.timestamp,payable(msg.sender),_landlord) */\n      dup2\n      mstore\n      0x20\n      add\n        /* \"hostel.sol\":4904:4914  Room_by_No */\n      0x05\n        /* \"hostel.sol\":4904:4922  Room_by_No[_index] */\n      0x00\n        /* \"hostel.sol\":4915:4921  _index */\n      dup10\n        /* \"hostel.sol\":4904:4922  Room_by_No[_index] */\n      dup2\n      mstore\n      0x20\n      add\n      swap1\n      dup2\n      mstore\n      0x20\n      add\n      0x00\n      keccak256\n        /* \"hostel.sol\":4904:4931  Room_by_No[_index].roomname */\n      0x02\n      add\n        /* \"hostel.sol\":4866:5087  RoomAgreement(_index,no_of_agreements,Room_by_No[_index].roomname,Room_by_No[_index].roomaddress,Room_by_No[_index].rent_per_month,Room_by_No[_index].securityDeposit,365 days,block.timestamp,payable(msg.sender),_landlord) */\n      dup1\n      sload\n      tag_96\n      swap1\n      tag_65\n      jump\t// in\n    tag_96:\n      dup1\n      0x1f\n      add\n      0x20\n      dup1\n      swap2\n      div\n      mul\n      0x20\n      add\n      mload(0x40)\n      swap1\n      dup2\n      add\n      0x40\n      mstore\n      dup1\n      swap3\n      swap2\n      swap1\n      dup2\n      dup2\n      mstore\n      0x20\n      add\n      dup3\n      dup1\n      sload\n      tag_97\n      swap1\n      tag_65\n      jump\t// in\n    tag_97:\n      dup1\n      iszero\n      tag_98\n      jumpi\n      dup1\n      0x1f\n      lt\n      tag_99\n      jumpi\n      0x0100\n      dup1\n      dup4\n      sload\n      div\n      mul\n      dup4\n      mstore\n      swap2\n      0x20\n      add\n      swap2\n      jump(tag_98)\n    tag_99:\n      dup3\n      add\n      swap2\n      swap1\n      0x00\n      mstore\n      keccak256(0x00, 0x20)\n      swap1\n    tag_100:\n      dup2\n      sload\n      dup2\n      mstore\n      swap1\n      0x01\n      add\n      swap1\n      0x20\n      add\n      dup1\n      dup4\n      gt\n      tag_100\n      jumpi\n      dup3\n      swap1\n      sub\n      0x1f\n      and\n      dup3\n      add\n      swap2\n    tag_98:\n      pop\n      pop\n      pop\n      pop\n      pop\n      dup2\n      mstore\n      0x20\n      add\n        /* \"hostel.sol\":4932:4942  Room_by_No */\n      0x05\n        /* \"hostel.sol\":4932:4950  Room_by_No[_index] */\n      0x00\n        /* \"hostel.sol\":4943:4949  _index */\n      dup10\n        /* \"hostel.sol\":4932:4950  Room_by_No[_index] */\n      dup2\n      mstore\n      0x20\n      add\n      swap1\n      dup2\n      mstore\n      0x20\n      add\n      0x00\n      keccak256\n        /* \"hostel.sol\":4932:4962  Room_by_No[_index].roomaddress */\n      0x03\n      add\n        /* \"hostel.sol\":4866:5087  RoomAgreement(_index,no_of_agreements,Room_by_No[_index].roomname,Room_by_No[_index].roomaddress,Room_by_No[_index].rent_per_month,Room_by_No[_index].securityDeposit,365 days,block.timestamp,payable(msg.sender),_landlord) */\n      dup1\n      sload\n      tag_101\n      swap1\n      tag_65\n      jump\t// in\n    tag_101:\n      dup1\n      0x1f\n      add\n      0x20\n      dup1\n      swap2\n      div\n      mul\n      0x20\n      add\n      mload(0x40)\n      swap1\n      dup2\n      add\n      0x40\n      mstore\n      dup1\n      swap3\n      swap2\n      swap1\n      dup2\n      dup2\n      mstore\n      0x20\n      add\n      dup3\n      dup1\n      sload\n      tag_102\n      swap1\n      tag_65\n      jump\t// in\n    tag_102:\n      dup1\n      iszero\n      tag_103\n      jumpi\n      dup1\n      0x1f\n      lt\n      tag_104\n      jumpi\n      0x0100\n      dup1\n      dup4\n      sload\n      div\n      mul\n      dup4\n      mstore\n      swap2\n      0x20\n      add\n      swap2\n      jump(tag_103)\n    tag_104:\n      dup3\n      add\n      swap2\n      swap1\n      0x00\n      mstore\n      keccak256(0x00, 0x20)\n      swap1\n    tag_105:\n      dup2\n      sload\n      dup2\n      mstore\n      swap1\n      0x01\n      add\n      swap1\n      0x20\n      add\n      dup1\n      dup4\n      gt\n      tag_105\n      jumpi\n      dup3\n      swap1\n      sub\n      0x1f\n      and\n      dup3\n      add\n      swap2\n    tag_103:\n      pop\n      pop\n      pop\n      pop\n      pop\n      dup2\n      mstore\n      0x20\n      add\n        /* \"hostel.sol\":4963:4973  Room_by_No */\n      0x05\n        /* \"hostel.sol\":4963:4981  Room_by_No[_index] */\n      0x00\n        /* \"hostel.sol\":4974:4980  _index */\n      dup10\n        /* \"hostel.sol\":4963:4981  Room_by_No[_index] */\n      dup2\n      mstore\n      0x20\n      add\n      swap1\n      dup2\n      mstore\n      0x20\n      add\n      0x00\n      keccak256\n        /* \"hostel.sol\":4963:4996  Room_by_No[_index].rent_per_month */\n      0x04\n      add\n      sload\n        /* \"hostel.sol\":4866:5087  RoomAgreement(_index,no_of_agreements,Room_by_No[_index].roomname,Room_by_No[_index].roomaddress,Room_by_No[_index].rent_per_month,Room_by_No[_index].securityDeposit,365 days,block.timestamp,payable(msg.sender),_landlord) */\n      dup2\n      mstore\n      0x20\n      add\n        /* \"hostel.sol\":4997:5007  Room_by_No */\n      0x05\n        /* \"hostel.sol\":4997:5015  Room_by_No[_index] */\n      0x00\n        /* \"hostel.sol\":5008:5014  _index */\n      dup10\n        /* \"hostel.sol\":4997:5015  Room_by_No[_index] */\n      dup2\n      mstore\n      0x20\n      add\n      swap1\n      dup2\n      mstore\n      0x20\n      add\n      0x00\n      keccak256\n        /* \"hostel.sol\":4997:5031  Room_by_No[_index].securityDeposit */\n      0x05\n      add\n      sload\n        /* \"hostel.sol\":4866:5087  RoomAgreement(_index,no_of_agreements,Room_by_No[_index].roomname,Room_by_No[_index].roomaddress,Room_by_No[_index].rent_per_month,Room_by_No[_index].securityDeposit,365 days,block.timestamp,payable(msg.sender),_landlord) */\n      dup2\n      mstore\n      0x20\n      add\n        /* \"hostel.sol\":5032:5040  365 days */\n      0x01e13380\n        /* \"hostel.sol\":4866:5087  RoomAgreement(_index,no_of_agreements,Room_by_No[_index].roomname,Room_by_No[_index].roomaddress,Room_by_No[_index].rent_per_month,Room_by_No[_index].securityDeposit,365 days,block.timestamp,payable(msg.sender),_landlord) */\n      dup2\n      mstore\n      0x20\n      add\n        /* \"hostel.sol\":5041:5056  block.timestamp */\n      timestamp\n        /* \"hostel.sol\":4866:5087  RoomAgreement(_index,no_of_agreements,Room_by_No[_index].roomname,Room_by_No[_index].roomaddress,Room_by_No[_index].rent_per_month,Room_by_No[_index].securityDeposit,365 days,block.timestamp,payable(msg.sender),_landlord) */\n      dup2\n      mstore\n      0x20\n      add\n        /* \"hostel.sol\":5065:5075  msg.sender */\n      caller\n        /* \"hostel.sol\":4866:5087  RoomAgreement(_index,no_of_agreements,Room_by_No[_index].roomname,Room_by_No[_index].roomaddress,Room_by_No[_index].rent_per_month,Room_by_No[_index].securityDeposit,365 days,block.timestamp,payable(msg.sender),_landlord) */\n      0xffffffffffffffffffffffffffffffffffffffff\n      and\n      dup2\n      mstore\n      0x20\n      add\n        /* \"hostel.sol\":5077:5086  _landlord */\n      dup4\n        /* \"hostel.sol\":4866:5087  RoomAgreement(_index,no_of_agreements,Room_by_No[_index].roomname,Room_by_No[_index].roomaddress,Room_by_No[_index].rent_per_month,Room_by_No[_index].securityDeposit,365 days,block.timestamp,payable(msg.sender),_landlord) */\n      0xffffffffffffffffffffffffffffffffffffffff\n      and\n      dup2\n      mstore\n      pop\n        /* \"hostel.sol\":4828:4847  RoomAgreement_by_No */\n      0x06\n        /* \"hostel.sol\":4828:4865  RoomAgreement_by_No[no_of_agreements] */\n      0x00\n        /* \"hostel.sol\":4848:4864  no_of_agreements */\n      sload(0x03)\n        /* \"hostel.sol\":4828:4865  RoomAgreement_by_No[no_of_agreements] */\n      dup2\n      mstore\n      0x20\n      add\n      swap1\n      dup2\n      mstore\n      0x20\n      add\n      0x00\n      keccak256\n        /* \"hostel.sol\":4828:5087  RoomAgreement_by_No[no_of_agreements]=RoomAgreement(_index,no_of_agreements,Room_by_No[_index].roomname,Room_by_No[_index].roomaddress,Room_by_No[_index].rent_per_month,Room_by_No[_index].securityDeposit,365 days,block.timestamp,payable(msg.sender),_landlord) */\n      0x00\n      dup3\n      add\n      mload\n      dup2\n      0x00\n      add\n      sstore\n      0x20\n      dup3\n      add\n      mload\n      dup2\n      0x01\n      add\n      sstore\n      0x40\n      dup3\n      add\n      mload\n      dup2\n      0x02\n      add\n      swap1\n      dup1\n      mload\n      swap1\n      0x20\n      add\n      swap1\n      tag_106\n      swap3\n      swap2\n      swap1\n      tag_107\n      jump\t// in\n    tag_106:\n      pop\n      0x60\n      dup3\n      add\n      mload\n      dup2\n      0x03\n      add\n      swap1\n      dup1\n      mload\n      swap1\n      0x20\n      add\n      swap1\n      tag_108\n      swap3\n      swap2\n      swap1\n      tag_107\n      jump\t// in\n    tag_108:\n      pop\n      0x80\n      dup3\n      add\n      mload\n      dup2\n      0x04\n      add\n      sstore\n      0xa0\n      dup3\n      add\n      mload\n      dup2\n      0x05\n      add\n      sstore\n      0xc0\n      dup3\n      add\n      mload\n      dup2\n      0x06\n      add\n      sstore\n      0xe0\n      dup3\n      add\n      mload\n      dup2\n      0x07\n      add\n      sstore\n      0x0100\n      dup3\n      add\n      mload\n      dup2\n      0x08\n      add\n      exp(0x0100, 0x00)\n      dup2\n      sload\n      dup2\n      0xffffffffffffffffffffffffffffffffffffffff\n      mul\n      not\n      and\n      swap1\n      dup4\n      0xffffffffffffffffffffffffffffffffffffffff\n      and\n      mul\n      or\n      swap1\n      sstore\n      pop\n      0x0120\n      dup3\n      add\n      mload\n      dup2\n      0x09\n      add\n      exp(0x0100, 0x00)\n      dup2\n      sload\n      dup2\n      0xffffffffffffffffffffffffffffffffffffffff\n      mul\n      not\n      and\n      swap1\n      dup4\n      0xffffffffffffffffffffffffffffffffffffffff\n      and\n      mul\n      or\n      swap1\n      sstore\n      pop\n      swap1\n      pop\n      pop\n        /* \"hostel.sol\":5097:5107  no_of_rent */\n      0x04\n      0x00\n        /* \"hostel.sol\":5097:5109  no_of_rent++ */\n      dup2\n      sload\n      dup1\n      swap3\n      swap2\n      swap1\n      tag_109\n      swap1\n      tag_95\n      jump\t// in\n    tag_109:\n      swap2\n      swap1\n      pop\n      sstore\n      pop\n        /* \"hostel.sol\":5144:5323  Rent(no_of_rent,_index,no_of_agreements,Room_by_No[_index].roomname,Room_by_No[_index].roomaddress,Room_by_No[_index].rent_per_month,block.timestamp,payable(msg.sender),_landlord) */\n      mload(0x40)\n      dup1\n      0x0120\n      add\n      0x40\n      mstore\n      dup1\n        /* \"hostel.sol\":5149:5159  no_of_rent */\n      sload(0x04)\n        /* \"hostel.sol\":5144:5323  Rent(no_of_rent,_index,no_of_agreements,Room_by_No[_index].roomname,Room_by_No[_index].roomaddress,Room_by_No[_index].rent_per_month,block.timestamp,payable(msg.sender),_landlord) */\n      dup2\n      mstore\n      0x20\n      add\n        /* \"hostel.sol\":5160:5166  _index */\n      dup8\n        /* \"hostel.sol\":5144:5323  Rent(no_of_rent,_index,no_of_agreements,Room_by_No[_index].roomname,Room_by_No[_index].roomaddress,Room_by_No[_index].rent_per_month,block.timestamp,payable(msg.sender),_landlord) */\n      dup2\n      mstore\n      0x20\n      add\n        /* \"hostel.sol\":5167:5183  no_of_agreements */\n      sload(0x03)\n        /* \"hostel.sol\":5144:5323  Rent(no_of_rent,_index,no_of_agreements,Room_by_No[_index].roomname,Room_by_No[_index].roomaddress,Room_by_No[_index].rent_per_month,block.timestamp,payable(msg.sender),_landlord) */\n      dup2\n      mstore\n      0x20\n      add\n        /* \"hostel.sol\":5184:5194  Room_by_No */\n      0x05\n        /* \"hostel.sol\":5184:5202  Room_by_No[_index] */\n      0x00\n        /* \"hostel.sol\":5195:5201  _index */\n      dup10\n        /* \"hostel.sol\":5184:5202  Room_by_No[_index] */\n      dup2\n      mstore\n      0x20\n      add\n      swap1\n      dup2\n      mstore\n      0x20\n      add\n      0x00\n      keccak256\n        /* \"hostel.sol\":5184:5211  Room_by_No[_index].roomname */\n      0x02\n      add\n        /* \"hostel.sol\":5144:5323  Rent(no_of_rent,_index,no_of_agreements,Room_by_No[_index].roomname,Room_by_No[_index].roomaddress,Room_by_No[_index].rent_per_month,block.timestamp,payable(msg.sender),_landlord) */\n      dup1\n      sload\n      tag_110\n      swap1\n      tag_65\n      jump\t// in\n    tag_110:\n      dup1\n      0x1f\n      add\n      0x20\n      dup1\n      swap2\n      div\n      mul\n      0x20\n      add\n      mload(0x40)\n      swap1\n      dup2\n      add\n      0x40\n      mstore\n      dup1\n      swap3\n      swap2\n      swap1\n      dup2\n      dup2\n      mstore\n      0x20\n      add\n      dup3\n      dup1\n      sload\n      tag_111\n      swap1\n      tag_65\n      jump\t// in\n    tag_111:\n      dup1\n      iszero\n      tag_112\n      jumpi\n      dup1\n      0x1f\n      lt\n      tag_113\n      jumpi\n      0x0100\n      dup1\n      dup4\n      sload\n      div\n      mul\n      dup4\n      mstore\n      swap2\n      0x20\n      add\n      swap2\n      jump(tag_112)\n    tag_113:\n      dup3\n      add\n      swap2\n      swap1\n      0x00\n      mstore\n      keccak256(0x00, 0x20)\n      swap1\n    tag_114:\n      dup2\n      sload\n      dup2\n      mstore\n      swap1\n      0x01\n      add\n      swap1\n      0x20\n      add\n      dup1\n      dup4\n      gt\n      tag_114\n      jumpi\n      dup3\n      swap1\n      sub\n      0x1f\n      and\n      dup3\n      add\n      swap2\n    tag_112:\n      pop\n      pop\n      pop\n      pop\n      pop\n      dup2\n      mstore\n      0x20\n      add\n        /* \"hostel.sol\":5212:5222  Room_by_No */\n      0x05\n        /* \"hostel.sol\":5212:5230  Room_by_No[_index] */\n      0x00\n        /* \"hostel.sol\":5223:5229  _index */\n      dup10\n        /* \"hostel.sol\":5212:5230  Room_by_No[_index] */\n      dup2\n      mstore\n      0x20\n      add\n      swap1\n      dup2\n      mstore\n      0x20\n      add\n      0x00\n      keccak256\n        /* \"hostel.sol\":5212:5242  Room_by_No[_index].roomaddress */\n      0x03\n      add\n        /* \"hostel.sol\":5144:5323  Rent(no_of_rent,_index,no_of_agreements,Room_by_No[_index].roomname,Room_by_No[_index].roomaddress,Room_by_No[_index].rent_per_month,block.timestamp,payable(msg.sender),_landlord) */\n      dup1\n      sload\n      tag_115\n      swap1\n      tag_65\n      jump\t// in\n    tag_115:\n      dup1\n      0x1f\n      add\n      0x20\n      dup1\n      swap2\n      div\n      mul\n      0x20\n      add\n      mload(0x40)\n      swap1\n      dup2\n      add\n      0x40\n      mstore\n      dup1\n      swap3\n      swap2\n      swap1\n      dup2\n      dup2\n      mstore\n      0x20\n      add\n      dup3\n      dup1\n      sload\n      tag_116\n      swap1\n      tag_65\n      jump\t// in\n    tag_116:\n      dup1\n      iszero\n      tag_117\n      jumpi\n      dup1\n      0x1f\n      lt\n      tag_118\n      jumpi\n      0x0100\n      dup1\n      dup4\n      sload\n      div\n      mul\n      dup4\n      mstore\n      swap2\n      0x20\n      add\n      swap2\n      jump(tag_117)\n    tag_118:\n      dup3\n      add\n      swap2\n      swap1\n      0x00\n      mstore\n      keccak256(0x00, 0x20)\n      swap1\n    tag_119:\n      dup2\n      sload\n      dup2\n      mstore\n      swap1\n      0x01\n      add\n      swap1\n      0x20\n      add\n      dup1\n      dup4\n      gt\n      tag_119\n      jumpi\n      dup3\n      swap1\n      sub\n      0x1f\n      and\n      dup3\n      add\n      swap2\n    tag_117:\n      pop\n      pop\n      pop\n      pop\n      pop\n      dup2\n      mstore\n      0x20\n      add\n        /* \"hostel.sol\":5243:5253  Room_by_No */\n      0x05\n        /* \"hostel.sol\":5243:5261  Room_by_No[_index] */\n      0x00\n        /* \"hostel.sol\":5254:5260  _index */\n      dup10\n        /* \"hostel.sol\":5243:5261  Room_by_No[_index] */\n      dup2\n      mstore\n      0x20\n      add\n      swap1\n      dup2\n      mstore\n      0x20\n      add\n      0x00\n      keccak256\n        /* \"hostel.sol\":5243:5276  Room_by_No[_index].rent_per_month */\n      0x04\n      add\n      sload\n        /* \"hostel.sol\":5144:5323  Rent(no_of_rent,_index,no_of_agreements,Room_by_No[_index].roomname,Room_by_No[_index].roomaddress,Room_by_No[_index].rent_per_month,block.timestamp,payable(msg.sender),_landlord) */\n      dup2\n      mstore\n      0x20\n      add\n        /* \"hostel.sol\":5277:5292  block.timestamp */\n      timestamp\n        /* \"hostel.sol\":5144:5323  Rent(no_of_rent,_index,no_of_agreements,Room_by_No[_index].roomname,Room_by_No[_index].roomaddress,Room_by_No[_index].rent_per_month,block.timestamp,payable(msg.sender),_landlord) */\n      dup2\n      mstore\n      0x20\n      add\n        /* \"hostel.sol\":5301:5311  msg.sender */\n      caller\n        /* \"hostel.sol\":5144:5323  Rent(no_of_rent,_index,no_of_agreements,Room_by_No[_index].roomname,Room_by_No[_index].roomaddress,Room_by_No[_index].rent_per_month,block.timestamp,payable(msg.sender),_landlord) */\n      0xffffffffffffffffffffffffffffffffffffffff\n      and\n      dup2\n      mstore\n      0x20\n      add\n        /* \"hostel.sol\":5313:5322  _landlord */\n      dup4\n        /* \"hostel.sol\":5144:5323  Rent(no_of_rent,_index,no_of_agreements,Room_by_No[_index].roomname,Room_by_No[_index].roomaddress,Room_by_No[_index].rent_per_month,block.timestamp,payable(msg.sender),_landlord) */\n      0xffffffffffffffffffffffffffffffffffffffff\n      and\n      dup2\n      mstore\n      pop\n        /* \"hostel.sol\":5119:5129  Rent_by_No */\n      0x07\n        /* \"hostel.sol\":5119:5141  Rent_by_No[no_of_rent] */\n      0x00\n        /* \"hostel.sol\":5130:5140  no_of_rent */\n      sload(0x04)\n        /* \"hostel.sol\":5119:5141  Rent_by_No[no_of_rent] */\n      dup2\n      mstore\n      0x20\n      add\n      swap1\n      dup2\n      mstore\n      0x20\n      add\n      0x00\n      keccak256\n        /* \"hostel.sol\":5119:5323  Rent_by_No[no_of_rent] = Rent(no_of_rent,_index,no_of_agreements,Room_by_No[_index].roomname,Room_by_No[_index].roomaddress,Room_by_No[_index].rent_per_month,block.timestamp,payable(msg.sender),_landlord) */\n      0x00\n      dup3\n      add\n      mload\n      dup2\n      0x00\n      add\n      sstore\n      0x20\n      dup3\n      add\n      mload\n      dup2\n      0x01\n      add\n      sstore\n      0x40\n      dup3\n      add\n      mload\n      dup2\n      0x02\n      add\n      sstore\n      0x60\n      dup3\n      add\n      mload\n      dup2\n      0x03\n      add\n      swap1\n      dup1\n      mload\n      swap1\n      0x20\n      add\n      swap1\n      tag_120\n      swap3\n      swap2\n      swap1\n      tag_107\n      jump\t// in\n    tag_120:\n      pop\n      0x80\n      dup3\n      add\n      mload\n      dup2\n      0x04\n      add\n      swap1\n      dup1\n      mload\n      swap1\n      0x20\n      add\n      swap1\n      tag_121\n      swap3\n      swap2\n      swap1\n      tag_107\n      jump\t// in\n    tag_121:\n      pop\n      0xa0\n      dup3\n      add\n      mload\n      dup2\n      0x05\n      add\n      sstore\n      0xc0\n      dup3\n      add\n      mload\n      dup2\n      0x06\n      add\n      sstore\n      0xe0\n      dup3\n      add\n      mload\n      dup2\n      0x07\n      add\n      exp(0x0100, 0x00)\n      dup2\n      sload\n      dup2\n      0xffffffffffffffffffffffffffffffffffffffff\n      mul\n      not\n      and\n      swap1\n      dup4\n      0xffffffffffffffffffffffffffffffffffffffff\n      and\n      mul\n      or\n      swap1\n      sstore\n      pop\n      0x0100\n      dup3\n      add\n      mload\n      dup2\n      0x08\n      add\n      exp(0x0100, 0x00)\n      dup2\n      sload\n      dup2\n      0xffffffffffffffffffffffffffffffffffffffff\n      mul\n      not\n      and\n      swap1\n      dup4\n      0xffffffffffffffffffffffffffffffffffffffff\n      and\n      mul\n      or\n      swap1\n      sstore\n      pop\n      swap1\n      pop\n      pop\n        /* \"hostel.sol\":4326:5330  {... */\n      pop\n      pop\n        /* \"hostel.sol\":2445:2446  _ */\n      pop\n        /* \"hostel.sol\":1918:1919  _ */\n      pop\n        /* \"hostel.sol\":4204:5330  function signAgreement(uint _index) public payable notLandLord(_index) enoughAgreementfee(_index) OnlyWhileVacant(_index) {... */\n      pop\n      pop\n      jump\t// out\n        /* \"hostel.sol\":5997:6426  function agreementCompleted(uint _index) public payable onlyLandlord(_index) AgreementTimesUp(_index){... */\n    tag_26:\n        /* \"hostel.sol\":6066:6072  _index */\n      dup1\n        /* \"hostel.sol\":1698:1708  Room_by_No */\n      0x05\n        /* \"hostel.sol\":1698:1716  Room_by_No[_index] */\n      0x00\n        /* \"hostel.sol\":1709:1715  _index */\n      dup3\n        /* \"hostel.sol\":1698:1716  Room_by_No[_index] */\n      dup2\n      mstore\n      0x20\n      add\n      swap1\n      dup2\n      mstore\n      0x20\n      add\n      0x00\n      keccak256\n        /* \"hostel.sol\":1698:1725  Room_by_No[_index].landlord */\n      0x07\n      add\n      0x01\n      swap1\n      sload\n      swap1\n      0x0100\n      exp\n      swap1\n      div\n      0xffffffffffffffffffffffffffffffffffffffff\n      and\n        /* \"hostel.sol\":1684:1725  msg.sender == Room_by_No[_index].landlord */\n      0xffffffffffffffffffffffffffffffffffffffff\n      and\n        /* \"hostel.sol\":1684:1694  msg.sender */\n      caller\n        /* \"hostel.sol\":1684:1725  msg.sender == Room_by_No[_index].landlord */\n      0xffffffffffffffffffffffffffffffffffffffff\n      and\n      eq\n        /* \"hostel.sol\":1676:1759  require(msg.sender == Room_by_No[_index].landlord, \"Only landlord can access this\") */\n      tag_123\n      jumpi\n      mload(0x40)\n      0x08c379a000000000000000000000000000000000000000000000000000000000\n      dup2\n      mstore\n      0x04\n      add\n      tag_124\n      swap1\n      tag_125\n      jump\t// in\n    tag_124:\n      mload(0x40)\n      dup1\n      swap2\n      sub\n      swap1\n      revert\n    tag_123:\n        /* \"hostel.sol\":6091:6097  _index */\n      dup2\n        /* \"hostel.sol\":2988:3005  uint _AgreementNo */\n      0x00\n        /* \"hostel.sol\":3008:3018  Room_by_No */\n      0x05\n        /* \"hostel.sol\":3008:3026  Room_by_No[_index] */\n      0x00\n        /* \"hostel.sol\":3019:3025  _index */\n      dup4\n        /* \"hostel.sol\":3008:3026  Room_by_No[_index] */\n      dup2\n      mstore\n      0x20\n      add\n      swap1\n      dup2\n      mstore\n      0x20\n      add\n      0x00\n      keccak256\n        /* \"hostel.sol\":3008:3038  Room_by_No[_index].agreementid */\n      0x01\n      add\n      sload\n        /* \"hostel.sol\":2988:3038  uint _AgreementNo = Room_by_No[_index].agreementid */\n      swap1\n      pop\n        /* \"hostel.sol\":3048:3057  uint time */\n      0x00\n        /* \"hostel.sol\":3106:3125  RoomAgreement_by_No */\n      0x06\n        /* \"hostel.sol\":3106:3139  RoomAgreement_by_No[_AgreementNo] */\n      0x00\n        /* \"hostel.sol\":3126:3138  _AgreementNo */\n      dup4\n        /* \"hostel.sol\":3106:3139  RoomAgreement_by_No[_AgreementNo] */\n      dup2\n      mstore\n      0x20\n      add\n      swap1\n      dup2\n      mstore\n      0x20\n      add\n      0x00\n      keccak256\n        /* \"hostel.sol\":3106:3152  RoomAgreement_by_No[_AgreementNo].lockInPeriod */\n      0x06\n      add\n      sload\n        /* \"hostel.sol\":3060:3079  RoomAgreement_by_No */\n      0x06\n        /* \"hostel.sol\":3060:3093  RoomAgreement_by_No[_AgreementNo] */\n      0x00\n        /* \"hostel.sol\":3080:3092  _AgreementNo */\n      dup5\n        /* \"hostel.sol\":3060:3093  RoomAgreement_by_No[_AgreementNo] */\n      dup2\n      mstore\n      0x20\n      add\n      swap1\n      dup2\n      mstore\n      0x20\n      add\n      0x00\n      keccak256\n        /* \"hostel.sol\":3060:3103  RoomAgreement_by_No[_AgreementNo].timestamp */\n      0x07\n      add\n      sload\n        /* \"hostel.sol\":3060:3152  RoomAgreement_by_No[_AgreementNo].timestamp + RoomAgreement_by_No[_AgreementNo].lockInPeriod */\n      tag_127\n      swap2\n      swap1\n      tag_81\n      jump\t// in\n    tag_127:\n        /* \"hostel.sol\":3048:3152  uint time = RoomAgreement_by_No[_AgreementNo].timestamp + RoomAgreement_by_No[_AgreementNo].lockInPeriod */\n      swap1\n      pop\n        /* \"hostel.sol\":3188:3192  time */\n      dup1\n        /* \"hostel.sol\":3170:3185  block.timestamp */\n      timestamp\n        /* \"hostel.sol\":3170:3192  block.timestamp > time */\n      gt\n        /* \"hostel.sol\":3162:3229  require(block.timestamp > time, \"Time is left for contract to end\") */\n      tag_128\n      jumpi\n      mload(0x40)\n      0x08c379a000000000000000000000000000000000000000000000000000000000\n      dup2\n      mstore\n      0x04\n      add\n      tag_129\n      swap1\n      tag_130\n      jump\t// in\n    tag_129:\n      mload(0x40)\n      dup1\n      swap2\n      sub\n      swap1\n      revert\n    tag_128:\n        /* \"hostel.sol\":6134:6135  0 */\n      0x00\n        /* \"hostel.sol\":6112:6136  msg.sender != address(0) */\n      0xffffffffffffffffffffffffffffffffffffffff\n      and\n        /* \"hostel.sol\":6112:6122  msg.sender */\n      caller\n        /* \"hostel.sol\":6112:6136  msg.sender != address(0) */\n      0xffffffffffffffffffffffffffffffffffffffff\n      and\n      eq\n      iszero\n        /* \"hostel.sol\":6104:6137  require(msg.sender != address(0)) */\n      tag_132\n      jumpi\n      0x00\n      dup1\n      revert\n    tag_132:\n        /* \"hostel.sol\":6180:6185  false */\n      0x00\n        /* \"hostel.sol\":6151:6185  Room_by_No[_index].vacant == false */\n      iszero\n      iszero\n        /* \"hostel.sol\":6151:6161  Room_by_No */\n      0x05\n        /* \"hostel.sol\":6151:6169  Room_by_No[_index] */\n      0x00\n        /* \"hostel.sol\":6162:6168  _index */\n      dup8\n        /* \"hostel.sol\":6151:6169  Room_by_No[_index] */\n      dup2\n      mstore\n      0x20\n      add\n      swap1\n      dup2\n      mstore\n      0x20\n      add\n      0x00\n      keccak256\n        /* \"hostel.sol\":6151:6176  Room_by_No[_index].vacant */\n      0x07\n      add\n      0x00\n      swap1\n      sload\n      swap1\n      0x0100\n      exp\n      swap1\n      div\n      0xff\n      and\n        /* \"hostel.sol\":6151:6185  Room_by_No[_index].vacant == false */\n      iszero\n      iszero\n      eq\n        /* \"hostel.sol\":6143:6217  require(Room_by_No[_index].vacant == false, \"Room is currently Occupied.\") */\n      tag_133\n      jumpi\n      mload(0x40)\n      0x08c379a000000000000000000000000000000000000000000000000000000000\n      dup2\n      mstore\n      0x04\n      add\n      tag_134\n      swap1\n      tag_88\n      jump\t// in\n    tag_134:\n      mload(0x40)\n      dup1\n      swap2\n      sub\n      swap1\n      revert\n    tag_133:\n        /* \"hostel.sol\":6251:6255  true */\n      0x01\n        /* \"hostel.sol\":6223:6233  Room_by_No */\n      0x05\n        /* \"hostel.sol\":6223:6241  Room_by_No[_index] */\n      0x00\n        /* \"hostel.sol\":6234:6240  _index */\n      dup8\n        /* \"hostel.sol\":6223:6241  Room_by_No[_index] */\n      dup2\n      mstore\n      0x20\n      add\n      swap1\n      dup2\n      mstore\n      0x20\n      add\n      0x00\n      keccak256\n        /* \"hostel.sol\":6223:6248  Room_by_No[_index].vacant */\n      0x07\n      add\n      0x00\n        /* \"hostel.sol\":6223:6255  Room_by_No[_index].vacant = true */\n      0x0100\n      exp\n      dup2\n      sload\n      dup2\n      0xff\n      mul\n      not\n      and\n      swap1\n      dup4\n      iszero\n      iszero\n      mul\n      or\n      swap1\n      sstore\n      pop\n        /* \"hostel.sol\":6261:6284  address payable _Tenant */\n      0x00\n        /* \"hostel.sol\":6287:6297  Room_by_No */\n      0x05\n        /* \"hostel.sol\":6287:6305  Room_by_No[_index] */\n      0x00\n        /* \"hostel.sol\":6298:6304  _index */\n      dup8\n        /* \"hostel.sol\":6287:6305  Room_by_No[_index] */\n      dup2\n      mstore\n      0x20\n      add\n      swap1\n      dup2\n      mstore\n      0x20\n      add\n      0x00\n      keccak256\n        /* \"hostel.sol\":6287:6319  Room_by_No[_index].currentTenant */\n      0x08\n      add\n      0x00\n      swap1\n      sload\n      swap1\n      0x0100\n      exp\n      swap1\n      div\n      0xffffffffffffffffffffffffffffffffffffffff\n      and\n        /* \"hostel.sol\":6261:6319  address payable _Tenant = Room_by_No[_index].currentTenant */\n      swap1\n      pop\n        /* \"hostel.sol\":6325:6346  uint _securitydeposit */\n      0x00\n        /* \"hostel.sol\":6349:6359  Room_by_No */\n      0x05\n        /* \"hostel.sol\":6349:6367  Room_by_No[_index] */\n      0x00\n        /* \"hostel.sol\":6360:6366  _index */\n      dup9\n        /* \"hostel.sol\":6349:6367  Room_by_No[_index] */\n      dup2\n      mstore\n      0x20\n      add\n      swap1\n      dup2\n      mstore\n      0x20\n      add\n      0x00\n      keccak256\n        /* \"hostel.sol\":6349:6383  Room_by_No[_index].securityDeposit */\n      0x05\n      add\n      sload\n        /* \"hostel.sol\":6325:6383  uint _securitydeposit = Room_by_No[_index].securityDeposit */\n      swap1\n      pop\n        /* \"hostel.sol\":6389:6396  _Tenant */\n      dup2\n        /* \"hostel.sol\":6389:6405  _Tenant.transfer */\n      0xffffffffffffffffffffffffffffffffffffffff\n      and\n        /* \"hostel.sol\":6389:6423  _Tenant.transfer(_securitydeposit) */\n      0x08fc\n        /* \"hostel.sol\":6406:6422  _securitydeposit */\n      dup3\n        /* \"hostel.sol\":6389:6423  _Tenant.transfer(_securitydeposit) */\n      swap1\n      dup2\n      iszero\n      mul\n      swap1\n      mload(0x40)\n      0x00\n      mload(0x40)\n      dup1\n      dup4\n      sub\n      dup2\n      dup6\n      dup9\n      dup9\n      call\n      swap4\n      pop\n      pop\n      pop\n      pop\n      iszero\n      dup1\n      iszero\n      tag_136\n      jumpi\n      returndatasize\n      0x00\n      dup1\n      returndatacopy\n      revert(0x00, returndatasize)\n    tag_136:\n      pop\n        /* \"hostel.sol\":6098:6426  {... */\n      pop\n      pop\n        /* \"hostel.sol\":2978:3247  {... */\n      pop\n      pop\n        /* \"hostel.sol\":1769:1770  _ */\n      pop\n        /* \"hostel.sol\":5997:6426  function agreementCompleted(uint _index) public payable onlyLandlord(_index) AgreementTimesUp(_index){... */\n      pop\n      pop\n      jump\t// out\n        /* \"hostel.sol\":178:210  uint public no_of_agreements = 0 */\n    tag_29:\n      sload(0x03)\n      dup2\n      jump\t// out\n        /* \"hostel.sol\":551:590  mapping(uint => Room) public Room_by_No */\n    tag_35:\n      mstore(0x20, 0x05)\n      dup1\n      0x00\n      mstore\n      keccak256(0x00, 0x40)\n      0x00\n      swap2\n      pop\n      swap1\n      pop\n      dup1\n      0x00\n      add\n      sload\n      swap1\n      dup1\n      0x01\n      add\n      sload\n      swap1\n      dup1\n      0x02\n      add\n      dup1\n      sload\n      tag_137\n      swap1\n      tag_65\n      jump\t// in\n    tag_137:\n      dup1\n      0x1f\n      add\n      0x20\n      dup1\n      swap2\n      div\n      mul\n      0x20\n      add\n      mload(0x40)\n      swap1\n      dup2\n      add\n      0x40\n      mstore\n      dup1\n      swap3\n      swap2\n      swap1\n      dup2\n      dup2\n      mstore\n      0x20\n      add\n      dup3\n      dup1\n      sload\n      tag_138\n      swap1\n      tag_65\n      jump\t// in\n    tag_138:\n      dup1\n      iszero\n      tag_139\n      jumpi\n      dup1\n      0x1f\n      lt\n      tag_140\n      jumpi\n      0x0100\n      dup1\n      dup4\n      sload\n      div\n      mul\n      dup4\n      mstore\n      swap2\n      0x20\n      add\n      swap2\n      jump(tag_139)\n    tag_140:\n      dup3\n      add\n      swap2\n      swap1\n      0x00\n      mstore\n      keccak256(0x00, 0x20)\n      swap1\n    tag_141:\n      dup2\n      sload\n      dup2\n      mstore\n      swap1\n      0x01\n      add\n      swap1\n      0x20\n      add\n      dup1\n      dup4\n      gt\n      tag_141\n      jumpi\n      dup3\n      swap1\n      sub\n      0x1f\n      and\n      dup3\n      add\n      swap2\n    tag_139:\n      pop\n      pop\n      pop\n      pop\n      pop\n      swap1\n      dup1\n      0x03\n      add\n      dup1\n      sload\n      tag_142\n      swap1\n      tag_65\n      jump\t// in\n    tag_142:\n      dup1\n      0x1f\n      add\n      0x20\n      dup1\n      swap2\n      div\n      mul\n      0x20\n      add\n      mload(0x40)\n      swap1\n      dup2\n      add\n      0x40\n      mstore\n      dup1\n      swap3\n      swap2\n      swap1\n      dup2\n      dup2\n      mstore\n      0x20\n      add\n      dup3\n      dup1\n      sload\n      tag_143\n      swap1\n      tag_65\n      jump\t// in\n    tag_143:\n      dup1\n      iszero\n      tag_144\n      jumpi\n      dup1\n      0x1f\n      lt\n      tag_145\n      jumpi\n      0x0100\n      dup1\n      dup4\n      sload\n      div\n      mul\n      dup4\n      mstore\n      swap2\n      0x20\n      add\n      swap2\n      jump(tag_144)\n    tag_145:\n      dup3\n      add\n      swap2\n      swap1\n      0x00\n      mstore\n      keccak256(0x00, 0x20)\n      swap1\n    tag_146:\n      dup2\n      sload\n      dup2\n      mstore\n      swap1\n      0x01\n      add\n      swap1\n      0x20\n      add\n      dup1\n      dup4\n      gt\n      tag_146\n      jumpi\n      dup3\n      swap1\n      sub\n      0x1f\n      and\n      dup3\n      add\n      swap2\n    tag_144:\n      pop\n      pop\n      pop\n      pop\n      pop\n      swap1\n      dup1\n      0x04\n      add\n      sload\n      swap1\n      dup1\n      0x05\n      add\n      sload\n      swap1\n      dup1\n      0x06\n      add\n      sload\n      swap1\n      dup1\n      0x07\n      add\n      0x00\n      swap1\n      sload\n      swap1\n      0x0100\n      exp\n      swap1\n      div\n      0xff\n      and\n      swap1\n      dup1\n      0x07\n      add\n      0x01\n      swap1\n      sload\n      swap1\n      0x0100\n      exp\n      swap1\n      div\n      0xffffffffffffffffffffffffffffffffffffffff\n      and\n      swap1\n      dup1\n      0x08\n      add\n      0x00\n      swap1\n      sload\n      swap1\n      0x0100\n      exp\n      swap1\n      div\n      0xffffffffffffffffffffffffffffffffffffffff\n      and\n      swap1\n      pop\n      dup11\n      jump\t// out\n        /* \"hostel.sol\":6432:6620  function agreementTerminated(uint _index) public onlyLandlord(_index) AgreementTimesLeft(_index){... */\n    tag_41:\n        /* \"hostel.sol\":6494:6500  _index */\n      dup1\n        /* \"hostel.sol\":1698:1708  Room_by_No */\n      0x05\n        /* \"hostel.sol\":1698:1716  Room_by_No[_index] */\n      0x00\n        /* \"hostel.sol\":1709:1715  _index */\n      dup3\n        /* \"hostel.sol\":1698:1716  Room_by_No[_index] */\n      dup2\n      mstore\n      0x20\n      add\n      swap1\n      dup2\n      mstore\n      0x20\n      add\n      0x00\n      keccak256\n        /* \"hostel.sol\":1698:1725  Room_by_No[_index].landlord */\n      0x07\n      add\n      0x01\n      swap1\n      sload\n      swap1\n      0x0100\n      exp\n      swap1\n      div\n      0xffffffffffffffffffffffffffffffffffffffff\n      and\n        /* \"hostel.sol\":1684:1725  msg.sender == Room_by_No[_index].landlord */\n      0xffffffffffffffffffffffffffffffffffffffff\n      and\n        /* \"hostel.sol\":1684:1694  msg.sender */\n      caller\n        /* \"hostel.sol\":1684:1725  msg.sender == Room_by_No[_index].landlord */\n      0xffffffffffffffffffffffffffffffffffffffff\n      and\n      eq\n        /* \"hostel.sol\":1676:1759  require(msg.sender == Room_by_No[_index].landlord, \"Only landlord can access this\") */\n      tag_148\n      jumpi\n      mload(0x40)\n      0x08c379a000000000000000000000000000000000000000000000000000000000\n      dup2\n      mstore\n      0x04\n      add\n      tag_149\n      swap1\n      tag_125\n      jump\t// in\n    tag_149:\n      mload(0x40)\n      dup1\n      swap2\n      sub\n      swap1\n      revert\n    tag_148:\n        /* \"hostel.sol\":6521:6527  _index */\n      dup2\n        /* \"hostel.sol\":2683:2700  uint _AgreementNo */\n      0x00\n        /* \"hostel.sol\":2703:2713  Room_by_No */\n      0x05\n        /* \"hostel.sol\":2703:2721  Room_by_No[_index] */\n      0x00\n        /* \"hostel.sol\":2714:2720  _index */\n      dup4\n        /* \"hostel.sol\":2703:2721  Room_by_No[_index] */\n      dup2\n      mstore\n      0x20\n      add\n      swap1\n      dup2\n      mstore\n      0x20\n      add\n      0x00\n      keccak256\n        /* \"hostel.sol\":2703:2733  Room_by_No[_index].agreementid */\n      0x01\n      add\n      sload\n        /* \"hostel.sol\":2683:2733  uint _AgreementNo = Room_by_No[_index].agreementid */\n      swap1\n      pop\n        /* \"hostel.sol\":2743:2752  uint time */\n      0x00\n        /* \"hostel.sol\":2801:2820  RoomAgreement_by_No */\n      0x06\n        /* \"hostel.sol\":2801:2834  RoomAgreement_by_No[_AgreementNo] */\n      0x00\n        /* \"hostel.sol\":2821:2833  _AgreementNo */\n      dup4\n        /* \"hostel.sol\":2801:2834  RoomAgreement_by_No[_AgreementNo] */\n      dup2\n      mstore\n      0x20\n      add\n      swap1\n      dup2\n      mstore\n      0x20\n      add\n      0x00\n      keccak256\n        /* \"hostel.sol\":2801:2847  RoomAgreement_by_No[_AgreementNo].lockInPeriod */\n      0x06\n      add\n      sload\n        /* \"hostel.sol\":2755:2774  RoomAgreement_by_No */\n      0x06\n        /* \"hostel.sol\":2755:2788  RoomAgreement_by_No[_AgreementNo] */\n      0x00\n        /* \"hostel.sol\":2775:2787  _AgreementNo */\n      dup5\n        /* \"hostel.sol\":2755:2788  RoomAgreement_by_No[_AgreementNo] */\n      dup2\n      mstore\n      0x20\n      add\n      swap1\n      dup2\n      mstore\n      0x20\n      add\n      0x00\n      keccak256\n        /* \"hostel.sol\":2755:2798  RoomAgreement_by_No[_AgreementNo].timestamp */\n      0x07\n      add\n      sload\n        /* \"hostel.sol\":2755:2847  RoomAgreement_by_No[_AgreementNo].timestamp + RoomAgreement_by_No[_AgreementNo].lockInPeriod */\n      tag_151\n      swap2\n      swap1\n      tag_81\n      jump\t// in\n    tag_151:\n        /* \"hostel.sol\":2743:2847  uint time = RoomAgreement_by_No[_AgreementNo].timestamp + RoomAgreement_by_No[_AgreementNo].lockInPeriod */\n      swap1\n      pop\n        /* \"hostel.sol\":2883:2887  time */\n      dup1\n        /* \"hostel.sol\":2865:2880  block.timestamp */\n      timestamp\n        /* \"hostel.sol\":2865:2887  block.timestamp < time */\n      lt\n        /* \"hostel.sol\":2857:2915  require(block.timestamp < time, \"Agreement already Ended\") */\n      tag_152\n      jumpi\n      mload(0x40)\n      0x08c379a000000000000000000000000000000000000000000000000000000000\n      dup2\n      mstore\n      0x04\n      add\n      tag_153\n      swap1\n      tag_154\n      jump\t// in\n    tag_153:\n      mload(0x40)\n      dup1\n      swap2\n      sub\n      swap1\n      revert\n    tag_152:\n        /* \"hostel.sol\":6568:6569  0 */\n      0x00\n        /* \"hostel.sol\":6546:6570  msg.sender != address(0) */\n      0xffffffffffffffffffffffffffffffffffffffff\n      and\n        /* \"hostel.sol\":6546:6556  msg.sender */\n      caller\n        /* \"hostel.sol\":6546:6570  msg.sender != address(0) */\n      0xffffffffffffffffffffffffffffffffffffffff\n      and\n      eq\n      iszero\n        /* \"hostel.sol\":6538:6571  require(msg.sender != address(0)) */\n      tag_156\n      jumpi\n      0x00\n      dup1\n      revert\n    tag_156:\n        /* \"hostel.sol\":6609:6613  true */\n      0x01\n        /* \"hostel.sol\":6581:6591  Room_by_No */\n      0x05\n        /* \"hostel.sol\":6581:6599  Room_by_No[_index] */\n      0x00\n        /* \"hostel.sol\":6592:6598  _index */\n      dup8\n        /* \"hostel.sol\":6581:6599  Room_by_No[_index] */\n      dup2\n      mstore\n      0x20\n      add\n      swap1\n      dup2\n      mstore\n      0x20\n      add\n      0x00\n      keccak256\n        /* \"hostel.sol\":6581:6606  Room_by_No[_index].vacant */\n      0x07\n      add\n      0x00\n        /* \"hostel.sol\":6581:6613  Room_by_No[_index].vacant = true */\n      0x0100\n      exp\n      dup2\n      sload\n      dup2\n      0xff\n      mul\n      not\n      and\n      swap1\n      dup4\n      iszero\n      iszero\n      mul\n      or\n      swap1\n      sstore\n      pop\n        /* \"hostel.sol\":2673:2933  {... */\n      pop\n      pop\n        /* \"hostel.sol\":1769:1770  _ */\n      pop\n        /* \"hostel.sol\":6432:6620  function agreementTerminated(uint _index) public onlyLandlord(_index) AgreementTimesLeft(_index){... */\n      pop\n      pop\n      jump\t// out\n        /* \"hostel.sol\":145:172  uint public no_of_rooms = 0 */\n    tag_44:\n      sload(0x02)\n      dup2\n      jump\t// out\n        /* \"hostel.sol\":3482:4198  function addRoom(string memory _roomname, string memory _roomaddress, uint _rentcost, uint _securitydeposit) public {... */\n    tag_50:\n        /* \"hostel.sol\":3638:3639  0 */\n      0x00\n        /* \"hostel.sol\":3616:3640  msg.sender != address(0) */\n      0xffffffffffffffffffffffffffffffffffffffff\n      and\n        /* \"hostel.sol\":3616:3626  msg.sender */\n      caller\n        /* \"hostel.sol\":3616:3640  msg.sender != address(0) */\n      0xffffffffffffffffffffffffffffffffffffffff\n      and\n      eq\n      iszero\n        /* \"hostel.sol\":3608:3641  require(msg.sender != address(0)) */\n      tag_158\n      jumpi\n      0x00\n      dup1\n      revert\n    tag_158:\n        /* \"hostel.sol\":3651:3662  no_of_rooms */\n      0x02\n      0x00\n        /* \"hostel.sol\":3651:3665  no_of_rooms ++ */\n      dup2\n      sload\n      dup1\n      swap3\n      swap2\n      swap1\n      tag_159\n      swap1\n      tag_95\n      jump\t// in\n    tag_159:\n      swap2\n      swap1\n      pop\n      sstore\n      pop\n        /* \"hostel.sol\":3675:3688  bool _vacancy */\n      0x00\n        /* \"hostel.sol\":3691:3695  true */\n      0x01\n        /* \"hostel.sol\":3675:3695  bool _vacancy = true */\n      swap1\n      pop\n        /* \"hostel.sol\":3731:3854  Room(no_of_rooms,0,_roomname,_roomaddress, _rentcost,_securitydeposit,0,_vacancy, payable(msg.sender), payable(address(0))) */\n      mload(0x40)\n      dup1\n      0x0140\n      add\n      0x40\n      mstore\n      dup1\n        /* \"hostel.sol\":3736:3747  no_of_rooms */\n      sload(0x02)\n        /* \"hostel.sol\":3731:3854  Room(no_of_rooms,0,_roomname,_roomaddress, _rentcost,_securitydeposit,0,_vacancy, payable(msg.sender), payable(address(0))) */\n      dup2\n      mstore\n      0x20\n      add\n        /* \"hostel.sol\":3748:3749  0 */\n      0x00\n        /* \"hostel.sol\":3731:3854  Room(no_of_rooms,0,_roomname,_roomaddress, _rentcost,_securitydeposit,0,_vacancy, payable(msg.sender), payable(address(0))) */\n      dup2\n      mstore\n      0x20\n      add\n        /* \"hostel.sol\":3750:3759  _roomname */\n      dup7\n        /* \"hostel.sol\":3731:3854  Room(no_of_rooms,0,_roomname,_roomaddress, _rentcost,_securitydeposit,0,_vacancy, payable(msg.sender), payable(address(0))) */\n      dup2\n      mstore\n      0x20\n      add\n        /* \"hostel.sol\":3760:3772  _roomaddress */\n      dup6\n        /* \"hostel.sol\":3731:3854  Room(no_of_rooms,0,_roomname,_roomaddress, _rentcost,_securitydeposit,0,_vacancy, payable(msg.sender), payable(address(0))) */\n      dup2\n      mstore\n      0x20\n      add\n        /* \"hostel.sol\":3774:3783  _rentcost */\n      dup5\n        /* \"hostel.sol\":3731:3854  Room(no_of_rooms,0,_roomname,_roomaddress, _rentcost,_securitydeposit,0,_vacancy, payable(msg.sender), payable(address(0))) */\n      dup2\n      mstore\n      0x20\n      add\n        /* \"hostel.sol\":3784:3800  _securitydeposit */\n      dup4\n        /* \"hostel.sol\":3731:3854  Room(no_of_rooms,0,_roomname,_roomaddress, _rentcost,_securitydeposit,0,_vacancy, payable(msg.sender), payable(address(0))) */\n      dup2\n      mstore\n      0x20\n      add\n        /* \"hostel.sol\":3801:3802  0 */\n      0x00\n        /* \"hostel.sol\":3731:3854  Room(no_of_rooms,0,_roomname,_roomaddress, _rentcost,_securitydeposit,0,_vacancy, payable(msg.sender), payable(address(0))) */\n      dup2\n      mstore\n      0x20\n      add\n        /* \"hostel.sol\":3803:3811  _vacancy */\n      dup3\n        /* \"hostel.sol\":3731:3854  Room(no_of_rooms,0,_roomname,_roomaddress, _rentcost,_securitydeposit,0,_vacancy, payable(msg.sender), payable(address(0))) */\n      iszero\n      iszero\n      dup2\n      mstore\n      0x20\n      add\n        /* \"hostel.sol\":3821:3831  msg.sender */\n      caller\n        /* \"hostel.sol\":3731:3854  Room(no_of_rooms,0,_roomname,_roomaddress, _rentcost,_securitydeposit,0,_vacancy, payable(msg.sender), payable(address(0))) */\n      0xffffffffffffffffffffffffffffffffffffffff\n      and\n      dup2\n      mstore\n      0x20\n      add\n        /* \"hostel.sol\":3850:3851  0 */\n      0x00\n        /* \"hostel.sol\":3731:3854  Room(no_of_rooms,0,_roomname,_roomaddress, _rentcost,_securitydeposit,0,_vacancy, payable(msg.sender), payable(address(0))) */\n      0xffffffffffffffffffffffffffffffffffffffff\n      and\n      dup2\n      mstore\n      pop\n        /* \"hostel.sol\":3705:3715  Room_by_No */\n      0x05\n        /* \"hostel.sol\":3705:3728  Room_by_No[no_of_rooms] */\n      0x00\n        /* \"hostel.sol\":3716:3727  no_of_rooms */\n      sload(0x02)\n        /* \"hostel.sol\":3705:3728  Room_by_No[no_of_rooms] */\n      dup2\n      mstore\n      0x20\n      add\n      swap1\n      dup2\n      mstore\n      0x20\n      add\n      0x00\n      keccak256\n        /* \"hostel.sol\":3705:3854  Room_by_No[no_of_rooms] = Room(no_of_rooms,0,_roomname,_roomaddress, _rentcost,_securitydeposit,0,_vacancy, payable(msg.sender), payable(address(0))) */\n      0x00\n      dup3\n      add\n      mload\n      dup2\n      0x00\n      add\n      sstore\n      0x20\n      dup3\n      add\n      mload\n      dup2\n      0x01\n      add\n      sstore\n      0x40\n      dup3\n      add\n      mload\n      dup2\n      0x02\n      add\n      swap1\n      dup1\n      mload\n      swap1\n      0x20\n      add\n      swap1\n      tag_160\n      swap3\n      swap2\n      swap1\n      tag_107\n      jump\t// in\n    tag_160:\n      pop\n      0x60\n      dup3\n      add\n      mload\n      dup2\n      0x03\n      add\n      swap1\n      dup1\n      mload\n      swap1\n      0x20\n      add\n      swap1\n      tag_161\n      swap3\n      swap2\n      swap1\n      tag_107\n      jump\t// in\n    tag_161:\n      pop\n      0x80\n      dup3\n      add\n      mload\n      dup2\n      0x04\n      add\n      sstore\n      0xa0\n      dup3\n      add\n      mload\n      dup2\n      0x05\n      add\n      sstore\n      0xc0\n      dup3\n      add\n      mload\n      dup2\n      0x06\n      add\n      sstore\n      0xe0\n      dup3\n      add\n      mload\n      dup2\n      0x07\n      add\n      exp(0x0100, 0x00)\n      dup2\n      sload\n      dup2\n      0xff\n      mul\n      not\n      and\n      swap1\n      dup4\n      iszero\n      iszero\n      mul\n      or\n      swap1\n      sstore\n      pop\n      0x0100\n      dup3\n      add\n      mload\n      dup2\n      0x07\n      add\n      exp(0x0100, 0x01)\n      dup2\n      sload\n      dup2\n      0xffffffffffffffffffffffffffffffffffffffff\n      mul\n      not\n      and\n      swap1\n      dup4\n      0xffffffffffffffffffffffffffffffffffffffff\n      and\n      mul\n      or\n      swap1\n      sstore\n      pop\n      0x0120\n      dup3\n      add\n      mload\n      dup2\n      0x08\n      add\n      exp(0x0100, 0x00)\n      dup2\n      sload\n      dup2\n      0xffffffffffffffffffffffffffffffffffffffff\n      mul\n      not\n      and\n      swap1\n      dup4\n      0xffffffffffffffffffffffffffffffffffffffff\n      and\n      mul\n      or\n      swap1\n      sstore\n      pop\n      swap1\n      pop\n      pop\n        /* \"hostel.sol\":3598:4198  {... */\n      pop\n        /* \"hostel.sol\":3482:4198  function addRoom(string memory _roomname, string memory _roomaddress, uint _rentcost, uint _securitydeposit) public {... */\n      pop\n      pop\n      pop\n      pop\n      jump\t// out\n        /* \"hostel.sol\":216:242  uint public no_of_rent = 0 */\n    tag_53:\n      sload(0x04)\n      dup2\n      jump\t// out\n        /* \"hostel.sol\":1475:1514  mapping(uint => Rent) public Rent_by_No */\n    tag_58:\n      mstore(0x20, 0x07)\n      dup1\n      0x00\n      mstore\n      keccak256(0x00, 0x40)\n      0x00\n      swap2\n      pop\n      swap1\n      pop\n      dup1\n      0x00\n      add\n      sload\n      swap1\n      dup1\n      0x01\n      add\n      sload\n      swap1\n      dup1\n      0x02\n      add\n      sload\n      swap1\n      dup1\n      0x03\n      add\n      dup1\n      sload\n      tag_162\n      swap1\n      tag_65\n      jump\t// in\n    tag_162:\n      dup1\n      0x1f\n      add\n      0x20\n      dup1\n      swap2\n      div\n      mul\n      0x20\n      add\n      mload(0x40)\n      swap1\n      dup2\n      add\n      0x40\n      mstore\n      dup1\n      swap3\n      swap2\n      swap1\n      dup2\n      dup2\n      mstore\n      0x20\n      add\n      dup3\n      dup1\n      sload\n      tag_163\n      swap1\n      tag_65\n      jump\t// in\n    tag_163:\n      dup1\n      iszero\n      tag_164\n      jumpi\n      dup1\n      0x1f\n      lt\n      tag_165\n      jumpi\n      0x0100\n      dup1\n      dup4\n      sload\n      div\n      mul\n      dup4\n      mstore\n      swap2\n      0x20\n      add\n      swap2\n      jump(tag_164)\n    tag_165:\n      dup3\n      add\n      swap2\n      swap1\n      0x00\n      mstore\n      keccak256(0x00, 0x20)\n      swap1\n    tag_166:\n      dup2\n      sload\n      dup2\n      mstore\n      swap1\n      0x01\n      add\n      swap1\n      0x20\n      add\n      dup1\n      dup4\n      gt\n      tag_166\n      jumpi\n      dup3\n      swap1\n      sub\n      0x1f\n      and\n      dup3\n      add\n      swap2\n    tag_164:\n      pop\n      pop\n      pop\n      pop\n      pop\n      swap1\n      dup1\n      0x04\n      add\n      dup1\n      sload\n      tag_167\n      swap1\n      tag_65\n      jump\t// in\n    tag_167:\n      dup1\n      0x1f\n      add\n      0x20\n      dup1\n      swap2\n      div\n      mul\n      0x20\n      add\n      mload(0x40)\n      swap1\n      dup2\n      add\n      0x40\n      mstore\n      dup1\n      swap3\n      swap2\n      swap1\n      dup2\n      dup2\n      mstore\n      0x20\n      add\n      dup3\n      dup1\n      sload\n      tag_168\n      swap1\n      tag_65\n      jump\t// in\n    tag_168:\n      dup1\n      iszero\n      tag_169\n      jumpi\n      dup1\n      0x1f\n      lt\n      tag_170\n      jumpi\n      0x0100\n      dup1\n      dup4\n      sload\n      div\n      mul\n      dup4\n      mstore\n      swap2\n      0x20\n      add\n      swap2\n      jump(tag_169)\n    tag_170:\n      dup3\n      add\n      swap2\n      swap1\n      0x00\n      mstore\n      keccak256(0x00, 0x20)\n      swap1\n    tag_171:\n      dup2\n      sload\n      dup2\n      mstore\n      swap1\n      0x01\n      add\n      swap1\n      0x20\n      add\n      dup1\n      dup4\n      gt\n      tag_171\n      jumpi\n      dup3\n      swap1\n      sub\n      0x1f\n      and\n      dup3\n      add\n      swap2\n    tag_169:\n      pop\n      pop\n      pop\n      pop\n      pop\n      swap1\n      dup1\n      0x05\n      add\n      sload\n      swap1\n      dup1\n      0x06\n      add\n      sload\n      swap1\n      dup1\n      0x07\n      add\n      0x00\n      swap1\n      sload\n      swap1\n      0x0100\n      exp\n      swap1\n      div\n      0xffffffffffffffffffffffffffffffffffffffff\n      and\n      swap1\n      dup1\n      0x08\n      add\n      0x00\n      swap1\n      sload\n      swap1\n      0x0100\n      exp\n      swap1\n      div\n      0xffffffffffffffffffffffffffffffffffffffff\n      and\n      swap1\n      pop\n      dup10\n      jump\t// out\n        /* \"hostel.sol\":5336:5991  function payRent(uint _index) public payable sameTenant(_index) RentTimesUp(_index) enoughRent(_index){... */\n    tag_63:\n        /* \"hostel.sol\":5392:5398  _index */\n      dup1\n        /* \"hostel.sol\":2524:2534  Room_by_No */\n      0x05\n        /* \"hostel.sol\":2524:2542  Room_by_No[_index] */\n      0x00\n        /* \"hostel.sol\":2535:2541  _index */\n      dup3\n        /* \"hostel.sol\":2524:2542  Room_by_No[_index] */\n      dup2\n      mstore\n      0x20\n      add\n      swap1\n      dup2\n      mstore\n      0x20\n      add\n      0x00\n      keccak256\n        /* \"hostel.sol\":2524:2556  Room_by_No[_index].currentTenant */\n      0x08\n      add\n      0x00\n      swap1\n      sload\n      swap1\n      0x0100\n      exp\n      swap1\n      div\n      0xffffffffffffffffffffffffffffffffffffffff\n      and\n        /* \"hostel.sol\":2510:2556  msg.sender == Room_by_No[_index].currentTenant */\n      0xffffffffffffffffffffffffffffffffffffffff\n      and\n        /* \"hostel.sol\":2510:2520  msg.sender */\n      caller\n        /* \"hostel.sol\":2510:2556  msg.sender == Room_by_No[_index].currentTenant */\n      0xffffffffffffffffffffffffffffffffffffffff\n      and\n      eq\n        /* \"hostel.sol\":2502:2608  require(msg.sender == Room_by_No[_index].currentTenant, \"No previous agreement found with you & landlord\") */\n      tag_173\n      jumpi\n      mload(0x40)\n      0x08c379a000000000000000000000000000000000000000000000000000000000\n      dup2\n      mstore\n      0x04\n      add\n      tag_174\n      swap1\n      tag_175\n      jump\t// in\n    tag_174:\n      mload(0x40)\n      dup1\n      swap2\n      sub\n      swap1\n      revert\n    tag_173:\n        /* \"hostel.sol\":5412:5418  _index */\n      dup2\n        /* \"hostel.sol\":3297:3306  uint time */\n      0x00\n        /* \"hostel.sol\":3340:3347  30 days */\n      0x278d00\n        /* \"hostel.sol\":3309:3319  Room_by_No */\n      0x05\n        /* \"hostel.sol\":3309:3327  Room_by_No[_index] */\n      0x00\n        /* \"hostel.sol\":3320:3326  _index */\n      dup5\n        /* \"hostel.sol\":3309:3327  Room_by_No[_index] */\n      dup2\n      mstore\n      0x20\n      add\n      swap1\n      dup2\n      mstore\n      0x20\n      add\n      0x00\n      keccak256\n        /* \"hostel.sol\":3309:3337  Room_by_No[_index].timestamp */\n      0x06\n      add\n      sload\n        /* \"hostel.sol\":3309:3347  Room_by_No[_index].timestamp + 30 days */\n      tag_177\n      swap2\n      swap1\n      tag_81\n      jump\t// in\n    tag_177:\n        /* \"hostel.sol\":3297:3347  uint time = Room_by_No[_index].timestamp + 30 days */\n      swap1\n      pop\n        /* \"hostel.sol\":3384:3388  time */\n      dup1\n        /* \"hostel.sol\":3365:3380  block.timestamp */\n      timestamp\n        /* \"hostel.sol\":3365:3388  block.timestamp >= time */\n      lt\n      iszero\n        /* \"hostel.sol\":3357:3414  require(block.timestamp >= time, \"Time left to pay Rent\") */\n      tag_178\n      jumpi\n      mload(0x40)\n      0x08c379a000000000000000000000000000000000000000000000000000000000\n      dup2\n      mstore\n      0x04\n      add\n      tag_179\n      swap1\n      tag_180\n      jump\t// in\n    tag_179:\n      mload(0x40)\n      dup1\n      swap2\n      sub\n      swap1\n      revert\n    tag_178:\n        /* \"hostel.sol\":5431:5437  _index */\n      dup4\n        /* \"hostel.sol\":2145:2155  Room_by_No */\n      0x05\n        /* \"hostel.sol\":2145:2163  Room_by_No[_index] */\n      0x00\n        /* \"hostel.sol\":2156:2162  _index */\n      dup3\n        /* \"hostel.sol\":2145:2163  Room_by_No[_index] */\n      dup2\n      mstore\n      0x20\n      add\n      swap1\n      dup2\n      mstore\n      0x20\n      add\n      0x00\n      keccak256\n        /* \"hostel.sol\":2145:2178  Room_by_No[_index].rent_per_month */\n      0x04\n      add\n      sload\n        /* \"hostel.sol\":2127:2136  msg.value */\n      callvalue\n        /* \"hostel.sol\":2127:2179  msg.value >= uint(Room_by_No[_index].rent_per_month) */\n      lt\n      iszero\n        /* \"hostel.sol\":2119:2215  require(msg.value >= uint(Room_by_No[_index].rent_per_month), \"Not enough Ether in your wallet\") */\n      tag_182\n      jumpi\n      mload(0x40)\n      0x08c379a000000000000000000000000000000000000000000000000000000000\n      dup2\n      mstore\n      0x04\n      add\n      tag_183\n      swap1\n      tag_84\n      jump\t// in\n    tag_183:\n      mload(0x40)\n      dup1\n      swap2\n      sub\n      swap1\n      revert\n    tag_182:\n        /* \"hostel.sol\":5478:5479  0 */\n      0x00\n        /* \"hostel.sol\":5456:5480  msg.sender != address(0) */\n      0xffffffffffffffffffffffffffffffffffffffff\n      and\n        /* \"hostel.sol\":5456:5466  msg.sender */\n      caller\n        /* \"hostel.sol\":5456:5480  msg.sender != address(0) */\n      0xffffffffffffffffffffffffffffffffffffffff\n      and\n      eq\n      iszero\n        /* \"hostel.sol\":5448:5481  require(msg.sender != address(0)) */\n      tag_185\n      jumpi\n      0x00\n      dup1\n      revert\n    tag_185:\n        /* \"hostel.sol\":5491:5516  address payable _landlord */\n      0x00\n        /* \"hostel.sol\":5519:5529  Room_by_No */\n      0x05\n        /* \"hostel.sol\":5519:5537  Room_by_No[_index] */\n      0x00\n        /* \"hostel.sol\":5530:5536  _index */\n      dup8\n        /* \"hostel.sol\":5519:5537  Room_by_No[_index] */\n      dup2\n      mstore\n      0x20\n      add\n      swap1\n      dup2\n      mstore\n      0x20\n      add\n      0x00\n      keccak256\n        /* \"hostel.sol\":5519:5546  Room_by_No[_index].landlord */\n      0x07\n      add\n      0x01\n      swap1\n      sload\n      swap1\n      0x0100\n      exp\n      swap1\n      div\n      0xffffffffffffffffffffffffffffffffffffffff\n      and\n        /* \"hostel.sol\":5491:5546  address payable _landlord = Room_by_No[_index].landlord */\n      swap1\n      pop\n        /* \"hostel.sol\":5556:5566  uint _rent */\n      0x00\n        /* \"hostel.sol\":5569:5579  Room_by_No */\n      0x05\n        /* \"hostel.sol\":5569:5587  Room_by_No[_index] */\n      0x00\n        /* \"hostel.sol\":5580:5586  _index */\n      dup9\n        /* \"hostel.sol\":5569:5587  Room_by_No[_index] */\n      dup2\n      mstore\n      0x20\n      add\n      swap1\n      dup2\n      mstore\n      0x20\n      add\n      0x00\n      keccak256\n        /* \"hostel.sol\":5569:5602  Room_by_No[_index].rent_per_month */\n      0x04\n      add\n      sload\n        /* \"hostel.sol\":5556:5602  uint _rent = Room_by_No[_index].rent_per_month */\n      swap1\n      pop\n        /* \"hostel.sol\":5612:5621  _landlord */\n      dup2\n        /* \"hostel.sol\":5612:5630  _landlord.transfer */\n      0xffffffffffffffffffffffffffffffffffffffff\n      and\n        /* \"hostel.sol\":5612:5637  _landlord.transfer(_rent) */\n      0x08fc\n        /* \"hostel.sol\":5631:5636  _rent */\n      dup3\n        /* \"hostel.sol\":5612:5637  _landlord.transfer(_rent) */\n      swap1\n      dup2\n      iszero\n      mul\n      swap1\n      mload(0x40)\n      0x00\n      mload(0x40)\n      dup1\n      dup4\n      sub\n      dup2\n      dup6\n      dup9\n      dup9\n      call\n      swap4\n      pop\n      pop\n      pop\n      pop\n      iszero\n      dup1\n      iszero\n      tag_187\n      jumpi\n      returndatasize\n      0x00\n      dup1\n      returndatacopy\n      revert(0x00, returndatasize)\n    tag_187:\n      pop\n        /* \"hostel.sol\":5690:5700  msg.sender */\n      caller\n        /* \"hostel.sol\":5647:5657  Room_by_No */\n      0x05\n        /* \"hostel.sol\":5647:5665  Room_by_No[_index] */\n      0x00\n        /* \"hostel.sol\":5658:5664  _index */\n      dup10\n        /* \"hostel.sol\":5647:5665  Room_by_No[_index] */\n      dup2\n      mstore\n      0x20\n      add\n      swap1\n      dup2\n      mstore\n      0x20\n      add\n      0x00\n      keccak256\n        /* \"hostel.sol\":5647:5679  Room_by_No[_index].currentTenant */\n      0x08\n      add\n      0x00\n        /* \"hostel.sol\":5647:5701  Room_by_No[_index].currentTenant = payable(msg.sender) */\n      0x0100\n      exp\n      dup2\n      sload\n      dup2\n      0xffffffffffffffffffffffffffffffffffffffff\n      mul\n      not\n      and\n      swap1\n      dup4\n      0xffffffffffffffffffffffffffffffffffffffff\n      and\n      mul\n      or\n      swap1\n      sstore\n      pop\n        /* \"hostel.sol\":5739:5744  false */\n      0x00\n        /* \"hostel.sol\":5711:5721  Room_by_No */\n      0x05\n        /* \"hostel.sol\":5711:5729  Room_by_No[_index] */\n      0x00\n        /* \"hostel.sol\":5722:5728  _index */\n      dup10\n        /* \"hostel.sol\":5711:5729  Room_by_No[_index] */\n      dup2\n      mstore\n      0x20\n      add\n      swap1\n      dup2\n      mstore\n      0x20\n      add\n      0x00\n      keccak256\n        /* \"hostel.sol\":5711:5736  Room_by_No[_index].vacant */\n      0x07\n      add\n      0x00\n        /* \"hostel.sol\":5711:5744  Room_by_No[_index].vacant = false */\n      0x0100\n      exp\n      dup2\n      sload\n      dup2\n      0xff\n      mul\n      not\n      and\n      swap1\n      dup4\n      iszero\n      iszero\n      mul\n      or\n      swap1\n      sstore\n      pop\n        /* \"hostel.sol\":5754:5764  no_of_rent */\n      0x04\n      0x00\n        /* \"hostel.sol\":5754:5766  no_of_rent++ */\n      dup2\n      sload\n      dup1\n      swap3\n      swap2\n      swap1\n      tag_188\n      swap1\n      tag_95\n      jump\t// in\n    tag_188:\n      swap2\n      swap1\n      pop\n      sstore\n      pop\n        /* \"hostel.sol\":5801:5984  Rent(no_of_rent,_index,Room_by_No[_index].agreementid,Room_by_No[_index].roomname,Room_by_No[_index].roomaddress,_rent,block.timestamp,payable(msg.sender),Room_by_No[_index].landlord) */\n      mload(0x40)\n      dup1\n      0x0120\n      add\n      0x40\n      mstore\n      dup1\n        /* \"hostel.sol\":5806:5816  no_of_rent */\n      sload(0x04)\n        /* \"hostel.sol\":5801:5984  Rent(no_of_rent,_index,Room_by_No[_index].agreementid,Room_by_No[_index].roomname,Room_by_No[_index].roomaddress,_rent,block.timestamp,payable(msg.sender),Room_by_No[_index].landlord) */\n      dup2\n      mstore\n      0x20\n      add\n        /* \"hostel.sol\":5817:5823  _index */\n      dup9\n        /* \"hostel.sol\":5801:5984  Rent(no_of_rent,_index,Room_by_No[_index].agreementid,Room_by_No[_index].roomname,Room_by_No[_index].roomaddress,_rent,block.timestamp,payable(msg.sender),Room_by_No[_index].landlord) */\n      dup2\n      mstore\n      0x20\n      add\n        /* \"hostel.sol\":5824:5834  Room_by_No */\n      0x05\n        /* \"hostel.sol\":5824:5842  Room_by_No[_index] */\n      0x00\n        /* \"hostel.sol\":5835:5841  _index */\n      dup11\n        /* \"hostel.sol\":5824:5842  Room_by_No[_index] */\n      dup2\n      mstore\n      0x20\n      add\n      swap1\n      dup2\n      mstore\n      0x20\n      add\n      0x00\n      keccak256\n        /* \"hostel.sol\":5824:5854  Room_by_No[_index].agreementid */\n      0x01\n      add\n      sload\n        /* \"hostel.sol\":5801:5984  Rent(no_of_rent,_index,Room_by_No[_index].agreementid,Room_by_No[_index].roomname,Room_by_No[_index].roomaddress,_rent,block.timestamp,payable(msg.sender),Room_by_No[_index].landlord) */\n      dup2\n      mstore\n      0x20\n      add\n        /* \"hostel.sol\":5855:5865  Room_by_No */\n      0x05\n        /* \"hostel.sol\":5855:5873  Room_by_No[_index] */\n      0x00\n        /* \"hostel.sol\":5866:5872  _index */\n      dup11\n        /* \"hostel.sol\":5855:5873  Room_by_No[_index] */\n      dup2\n      mstore\n      0x20\n      add\n      swap1\n      dup2\n      mstore\n      0x20\n      add\n      0x00\n      keccak256\n        /* \"hostel.sol\":5855:5882  Room_by_No[_index].roomname */\n      0x02\n      add\n        /* \"hostel.sol\":5801:5984  Rent(no_of_rent,_index,Room_by_No[_index].agreementid,Room_by_No[_index].roomname,Room_by_No[_index].roomaddress,_rent,block.timestamp,payable(msg.sender),Room_by_No[_index].landlord) */\n      dup1\n      sload\n      tag_189\n      swap1\n      tag_65\n      jump\t// in\n    tag_189:\n      dup1\n      0x1f\n      add\n      0x20\n      dup1\n      swap2\n      div\n      mul\n      0x20\n      add\n      mload(0x40)\n      swap1\n      dup2\n      add\n      0x40\n      mstore\n      dup1\n      swap3\n      swap2\n      swap1\n      dup2\n      dup2\n      mstore\n      0x20\n      add\n      dup3\n      dup1\n      sload\n      tag_190\n      swap1\n      tag_65\n      jump\t// in\n    tag_190:\n      dup1\n      iszero\n      tag_191\n      jumpi\n      dup1\n      0x1f\n      lt\n      tag_192\n      jumpi\n      0x0100\n      dup1\n      dup4\n      sload\n      div\n      mul\n      dup4\n      mstore\n      swap2\n      0x20\n      add\n      swap2\n      jump(tag_191)\n    tag_192:\n      dup3\n      add\n      swap2\n      swap1\n      0x00\n      mstore\n      keccak256(0x00, 0x20)\n      swap1\n    tag_193:\n      dup2\n      sload\n      dup2\n      mstore\n      swap1\n      0x01\n      add\n      swap1\n      0x20\n      add\n      dup1\n      dup4\n      gt\n      tag_193\n      jumpi\n      dup3\n      swap1\n      sub\n      0x1f\n      and\n      dup3\n      add\n      swap2\n    tag_191:\n      pop\n      pop\n      pop\n      pop\n      pop\n      dup2\n      mstore\n      0x20\n      add\n        /* \"hostel.sol\":5883:5893  Room_by_No */\n      0x05\n        /* \"hostel.sol\":5883:5901  Room_by_No[_index] */\n      0x00\n        /* \"hostel.sol\":5894:5900  _index */\n      dup11\n        /* \"hostel.sol\":5883:5901  Room_by_No[_index] */\n      dup2\n      mstore\n      0x20\n      add\n      swap1\n      dup2\n      mstore\n      0x20\n      add\n      0x00\n      keccak256\n        /* \"hostel.sol\":5883:5913  Room_by_No[_index].roomaddress */\n      0x03\n      add\n        /* \"hostel.sol\":5801:5984  Rent(no_of_rent,_index,Room_by_No[_index].agreementid,Room_by_No[_index].roomname,Room_by_No[_index].roomaddress,_rent,block.timestamp,payable(msg.sender),Room_by_No[_index].landlord) */\n      dup1\n      sload\n      tag_194\n      swap1\n      tag_65\n      jump\t// in\n    tag_194:\n      dup1\n      0x1f\n      add\n      0x20\n      dup1\n      swap2\n      div\n      mul\n      0x20\n      add\n      mload(0x40)\n      swap1\n      dup2\n      add\n      0x40\n      mstore\n      dup1\n      swap3\n      swap2\n      swap1\n      dup2\n      dup2\n      mstore\n      0x20\n      add\n      dup3\n      dup1\n      sload\n      tag_195\n      swap1\n      tag_65\n      jump\t// in\n    tag_195:\n      dup1\n      iszero\n      tag_196\n      jumpi\n      dup1\n      0x1f\n      lt\n      tag_197\n      jumpi\n      0x0100\n      dup1\n      dup4\n      sload\n      div\n      mul\n      dup4\n      mstore\n      swap2\n      0x20\n      add\n      swap2\n      jump(tag_196)\n    tag_197:\n      dup3\n      add\n      swap2\n      swap1\n      0x00\n      mstore\n      keccak256(0x00, 0x20)\n      swap1\n    tag_198:\n      dup2\n      sload\n      dup2\n      mstore\n      swap1\n      0x01\n      add\n      swap1\n      0x20\n      add\n      dup1\n      dup4\n      gt\n      tag_198\n      jumpi\n      dup3\n      swap1\n      sub\n      0x1f\n      and\n      dup3\n      add\n      swap2\n    tag_196:\n      pop\n      pop\n      pop\n      pop\n      pop\n      dup2\n      mstore\n      0x20\n      add\n        /* \"hostel.sol\":5914:5919  _rent */\n      dup3\n        /* \"hostel.sol\":5801:5984  Rent(no_of_rent,_index,Room_by_No[_index].agreementid,Room_by_No[_index].roomname,Room_by_No[_index].roomaddress,_rent,block.timestamp,payable(msg.sender),Room_by_No[_index].landlord) */\n      dup2\n      mstore\n      0x20\n      add\n        /* \"hostel.sol\":5920:5935  block.timestamp */\n      timestamp\n        /* \"hostel.sol\":5801:5984  Rent(no_of_rent,_index,Room_by_No[_index].agreementid,Room_by_No[_index].roomname,Room_by_No[_index].roomaddress,_rent,block.timestamp,payable(msg.sender),Room_by_No[_index].landlord) */\n      dup2\n      mstore\n      0x20\n      add\n        /* \"hostel.sol\":5944:5954  msg.sender */\n      caller\n        /* \"hostel.sol\":5801:5984  Rent(no_of_rent,_index,Room_by_No[_index].agreementid,Room_by_No[_index].roomname,Room_by_No[_index].roomaddress,_rent,block.timestamp,payable(msg.sender),Room_by_No[_index].landlord) */\n      0xffffffffffffffffffffffffffffffffffffffff\n      and\n      dup2\n      mstore\n      0x20\n      add\n        /* \"hostel.sol\":5956:5966  Room_by_No */\n      0x05\n        /* \"hostel.sol\":5956:5974  Room_by_No[_index] */\n      0x00\n        /* \"hostel.sol\":5967:5973  _index */\n      dup11\n        /* \"hostel.sol\":5956:5974  Room_by_No[_index] */\n      dup2\n      mstore\n      0x20\n      add\n      swap1\n      dup2\n      mstore\n      0x20\n      add\n      0x00\n      keccak256\n        /* \"hostel.sol\":5956:5983  Room_by_No[_index].landlord */\n      0x07\n      add\n      0x01\n      swap1\n      sload\n      swap1\n      0x0100\n      exp\n      swap1\n      div\n      0xffffffffffffffffffffffffffffffffffffffff\n      and\n        /* \"hostel.sol\":5801:5984  Rent(no_of_rent,_index,Room_by_No[_index].agreementid,Room_by_No[_index].roomname,Room_by_No[_index].roomaddress,_rent,block.timestamp,payable(msg.sender),Room_by_No[_index].landlord) */\n      0xffffffffffffffffffffffffffffffffffffffff\n      and\n      dup2\n      mstore\n      pop\n        /* \"hostel.sol\":5776:5786  Rent_by_No */\n      0x07\n        /* \"hostel.sol\":5776:5798  Rent_by_No[no_of_rent] */\n      0x00\n        /* \"hostel.sol\":5787:5797  no_of_rent */\n      sload(0x04)\n        /* \"hostel.sol\":5776:5798  Rent_by_No[no_of_rent] */\n      dup2\n      mstore\n      0x20\n      add\n      swap1\n      dup2\n      mstore\n      0x20\n      add\n      0x00\n      keccak256\n        /* \"hostel.sol\":5776:5984  Rent_by_No[no_of_rent] = Rent(no_of_rent,_index,Room_by_No[_index].agreementid,Room_by_No[_index].roomname,Room_by_No[_index].roomaddress,_rent,block.timestamp,payable(msg.sender),Room_by_No[_index].landlord) */\n      0x00\n      dup3\n      add\n      mload\n      dup2\n      0x00\n      add\n      sstore\n      0x20\n      dup3\n      add\n      mload\n      dup2\n      0x01\n      add\n      sstore\n      0x40\n      dup3\n      add\n      mload\n      dup2\n      0x02\n      add\n      sstore\n      0x60\n      dup3\n      add\n      mload\n      dup2\n      0x03\n      add\n      swap1\n      dup1\n      mload\n      swap1\n      0x20\n      add\n      swap1\n      tag_199\n      swap3\n      swap2\n      swap1\n      tag_107\n      jump\t// in\n    tag_199:\n      pop\n      0x80\n      dup3\n      add\n      mload\n      dup2\n      0x04\n      add\n      swap1\n      dup1\n      mload\n      swap1\n      0x20\n      add\n      swap1\n      tag_200\n      swap3\n      swap2\n      swap1\n      tag_107\n      jump\t// in\n    tag_200:\n      pop\n      0xa0\n      dup3\n      add\n      mload\n      dup2\n      0x05\n      add\n      sstore\n      0xc0\n      dup3\n      add\n      mload\n      dup2\n      0x06\n      add\n      sstore\n      0xe0\n      dup3\n      add\n      mload\n      dup2\n      0x07\n      add\n      exp(0x0100, 0x00)\n      dup2\n      sload\n      dup2\n      0xffffffffffffffffffffffffffffffffffffffff\n      mul\n      not\n      and\n      swap1\n      dup4\n      0xffffffffffffffffffffffffffffffffffffffff\n      and\n      mul\n      or\n      swap1\n      sstore\n      pop\n      0x0100\n      dup3\n      add\n      mload\n      dup2\n      0x08\n      add\n      exp(0x0100, 0x00)\n      dup2\n      sload\n      dup2\n      0xffffffffffffffffffffffffffffffffffffffff\n      mul\n      not\n      and\n      swap1\n      dup4\n      0xffffffffffffffffffffffffffffffffffffffff\n      and\n      mul\n      or\n      swap1\n      sstore\n      pop\n      swap1\n      pop\n      pop\n        /* \"hostel.sol\":5438:5991  {... */\n      pop\n      pop\n        /* \"hostel.sol\":3424:3425  _ */\n      pop\n        /* \"hostel.sol\":3287:3432  {... */\n      pop\n        /* \"hostel.sol\":2618:2619  _ */\n      pop\n        /* \"hostel.sol\":5336:5991  function payRent(uint _index) public payable sameTenant(_index) RentTimesUp(_index) enoughRent(_index){... */\n      pop\n      pop\n      jump\t// out\n    tag_107:\n      dup3\n      dup1\n      sload\n      tag_201\n      swap1\n      tag_65\n      jump\t// in\n    tag_201:\n      swap1\n      0x00\n      mstore\n      keccak256(0x00, 0x20)\n      swap1\n      0x1f\n      add\n      0x20\n      swap1\n      div\n      dup2\n      add\n      swap3\n      dup3\n      tag_203\n      jumpi\n      0x00\n      dup6\n      sstore\n      jump(tag_202)\n    tag_203:\n      dup3\n      0x1f\n      lt\n      tag_204\n      jumpi\n      dup1\n      mload\n      not(0xff)\n      and\n      dup4\n      dup1\n      add\n      or\n      dup6\n      sstore\n      jump(tag_202)\n    tag_204:\n      dup3\n      dup1\n      add\n      0x01\n      add\n      dup6\n      sstore\n      dup3\n      iszero\n      tag_202\n      jumpi\n      swap2\n      dup3\n      add\n    tag_205:\n      dup3\n      dup2\n      gt\n      iszero\n      tag_206\n      jumpi\n      dup3\n      mload\n      dup3\n      sstore\n      swap2\n      0x20\n      add\n      swap2\n      swap1\n      0x01\n      add\n      swap1\n      jump(tag_205)\n    tag_206:\n    tag_202:\n      pop\n      swap1\n      pop\n      tag_207\n      swap2\n      swap1\n      tag_208\n      jump\t// in\n    tag_207:\n      pop\n      swap1\n      jump\t// out\n    tag_208:\n    tag_209:\n      dup1\n      dup3\n      gt\n      iszero\n      tag_210\n      jumpi\n      0x00\n      dup2\n      0x00\n      swap1\n      sstore\n      pop\n      0x01\n      add\n      jump(tag_209)\n    tag_210:\n      pop\n      swap1\n      jump\t// out\n        /* \"#utility.yul\":7:419   */\n    tag_212:\n        /* \"#utility.yul\":85:90   */\n      0x00\n        /* \"#utility.yul\":110:176   */\n      tag_214\n        /* \"#utility.yul\":126:175   */\n      tag_215\n        /* \"#utility.yul\":168:174   */\n      dup5\n        /* \"#utility.yul\":126:175   */\n      tag_216\n      jump\t// in\n    tag_215:\n        /* \"#utility.yul\":110:176   */\n      tag_217\n      jump\t// in\n    tag_214:\n        /* \"#utility.yul\":101:176   */\n      swap1\n      pop\n        /* \"#utility.yul\":199:205   */\n      dup3\n        /* \"#utility.yul\":192:197   */\n      dup2\n        /* \"#utility.yul\":185:206   */\n      mstore\n        /* \"#utility.yul\":237:241   */\n      0x20\n        /* \"#utility.yul\":230:235   */\n      dup2\n        /* \"#utility.yul\":226:242   */\n      add\n        /* \"#utility.yul\":275:278   */\n      dup5\n        /* \"#utility.yul\":266:272   */\n      dup5\n        /* \"#utility.yul\":261:264   */\n      dup5\n        /* \"#utility.yul\":257:273   */\n      add\n        /* \"#utility.yul\":254:279   */\n      gt\n        /* \"#utility.yul\":251:363   */\n      iszero\n      tag_218\n      jumpi\n        /* \"#utility.yul\":282:361   */\n      tag_219\n      tag_220\n      jump\t// in\n    tag_219:\n        /* \"#utility.yul\":251:363   */\n    tag_218:\n        /* \"#utility.yul\":372:413   */\n      tag_221\n        /* \"#utility.yul\":406:412   */\n      dup5\n        /* \"#utility.yul\":401:404   */\n      dup3\n        /* \"#utility.yul\":396:399   */\n      dup6\n        /* \"#utility.yul\":372:413   */\n      tag_222\n      jump\t// in\n    tag_221:\n        /* \"#utility.yul\":91:419   */\n      pop\n        /* \"#utility.yul\":7:419   */\n      swap4\n      swap3\n      pop\n      pop\n      pop\n      jump\t// out\n        /* \"#utility.yul\":439:779   */\n    tag_223:\n        /* \"#utility.yul\":495:500   */\n      0x00\n        /* \"#utility.yul\":544:547   */\n      dup3\n        /* \"#utility.yul\":537:541   */\n      0x1f\n        /* \"#utility.yul\":529:535   */\n      dup4\n        /* \"#utility.yul\":525:542   */\n      add\n        /* \"#utility.yul\":521:548   */\n      slt\n        /* \"#utility.yul\":511:633   */\n      tag_225\n      jumpi\n        /* \"#utility.yul\":552:631   */\n      tag_226\n      tag_227\n      jump\t// in\n    tag_226:\n        /* \"#utility.yul\":511:633   */\n    tag_225:\n        /* \"#utility.yul\":669:675   */\n      dup2\n        /* \"#utility.yul\":656:676   */\n      calldataload\n        /* \"#utility.yul\":694:773   */\n      tag_228\n        /* \"#utility.yul\":769:772   */\n      dup5\n        /* \"#utility.yul\":761:767   */\n      dup3\n        /* \"#utility.yul\":754:758   */\n      0x20\n        /* \"#utility.yul\":746:752   */\n      dup7\n        /* \"#utility.yul\":742:759   */\n      add\n        /* \"#utility.yul\":694:773   */\n      tag_212\n      jump\t// in\n    tag_228:\n        /* \"#utility.yul\":685:773   */\n      swap2\n      pop\n        /* \"#utility.yul\":501:779   */\n      pop\n        /* \"#utility.yul\":439:779   */\n      swap3\n      swap2\n      pop\n      pop\n      jump\t// out\n        /* \"#utility.yul\":785:924   */\n    tag_229:\n        /* \"#utility.yul\":831:836   */\n      0x00\n        /* \"#utility.yul\":869:875   */\n      dup2\n        /* \"#utility.yul\":856:876   */\n      calldataload\n        /* \"#utility.yul\":847:876   */\n      swap1\n      pop\n        /* \"#utility.yul\":885:918   */\n      tag_231\n        /* \"#utility.yul\":912:917   */\n      dup2\n        /* \"#utility.yul\":885:918   */\n      tag_232\n      jump\t// in\n    tag_231:\n        /* \"#utility.yul\":785:924   */\n      swap3\n      swap2\n      pop\n      pop\n      jump\t// out\n        /* \"#utility.yul\":930:2055   */\n    tag_49:\n        /* \"#utility.yul\":1036:1042   */\n      0x00\n        /* \"#utility.yul\":1044:1050   */\n      dup1\n        /* \"#utility.yul\":1052:1058   */\n      0x00\n        /* \"#utility.yul\":1060:1066   */\n      dup1\n        /* \"#utility.yul\":1109:1112   */\n      0x80\n        /* \"#utility.yul\":1097:1106   */\n      dup6\n        /* \"#utility.yul\":1088:1095   */\n      dup8\n        /* \"#utility.yul\":1084:1107   */\n      sub\n        /* \"#utility.yul\":1080:1113   */\n      slt\n        /* \"#utility.yul\":1077:1197   */\n      iszero\n      tag_234\n      jumpi\n        /* \"#utility.yul\":1116:1195   */\n      tag_235\n      tag_236\n      jump\t// in\n    tag_235:\n        /* \"#utility.yul\":1077:1197   */\n    tag_234:\n        /* \"#utility.yul\":1264:1265   */\n      0x00\n        /* \"#utility.yul\":1253:1262   */\n      dup6\n        /* \"#utility.yul\":1249:1266   */\n      add\n        /* \"#utility.yul\":1236:1267   */\n      calldataload\n        /* \"#utility.yul\":1294:1312   */\n      0xffffffffffffffff\n        /* \"#utility.yul\":1286:1292   */\n      dup2\n        /* \"#utility.yul\":1283:1313   */\n      gt\n        /* \"#utility.yul\":1280:1397   */\n      iszero\n      tag_237\n      jumpi\n        /* \"#utility.yul\":1316:1395   */\n      tag_238\n      tag_239\n      jump\t// in\n    tag_238:\n        /* \"#utility.yul\":1280:1397   */\n    tag_237:\n        /* \"#utility.yul\":1421:1484   */\n      tag_240\n        /* \"#utility.yul\":1476:1483   */\n      dup8\n        /* \"#utility.yul\":1467:1473   */\n      dup3\n        /* \"#utility.yul\":1456:1465   */\n      dup9\n        /* \"#utility.yul\":1452:1474   */\n      add\n        /* \"#utility.yul\":1421:1484   */\n      tag_223\n      jump\t// in\n    tag_240:\n        /* \"#utility.yul\":1411:1484   */\n      swap5\n      pop\n        /* \"#utility.yul\":1207:1494   */\n      pop\n        /* \"#utility.yul\":1561:1563   */\n      0x20\n        /* \"#utility.yul\":1550:1559   */\n      dup6\n        /* \"#utility.yul\":1546:1564   */\n      add\n        /* \"#utility.yul\":1533:1565   */\n      calldataload\n        /* \"#utility.yul\":1592:1610   */\n      0xffffffffffffffff\n        /* \"#utility.yul\":1584:1590   */\n      dup2\n        /* \"#utility.yul\":1581:1611   */\n      gt\n        /* \"#utility.yul\":1578:1695   */\n      iszero\n      tag_241\n      jumpi\n        /* \"#utility.yul\":1614:1693   */\n      tag_242\n      tag_239\n      jump\t// in\n    tag_242:\n        /* \"#utility.yul\":1578:1695   */\n    tag_241:\n        /* \"#utility.yul\":1719:1782   */\n      tag_243\n        /* \"#utility.yul\":1774:1781   */\n      dup8\n        /* \"#utility.yul\":1765:1771   */\n      dup3\n        /* \"#utility.yul\":1754:1763   */\n      dup9\n        /* \"#utility.yul\":1750:1772   */\n      add\n        /* \"#utility.yul\":1719:1782   */\n      tag_223\n      jump\t// in\n    tag_243:\n        /* \"#utility.yul\":1709:1782   */\n      swap4\n      pop\n        /* \"#utility.yul\":1504:1792   */\n      pop\n        /* \"#utility.yul\":1831:1833   */\n      0x40\n        /* \"#utility.yul\":1857:1910   */\n      tag_244\n        /* \"#utility.yul\":1902:1909   */\n      dup8\n        /* \"#utility.yul\":1893:1899   */\n      dup3\n        /* \"#utility.yul\":1882:1891   */\n      dup9\n        /* \"#utility.yul\":1878:1900   */\n      add\n        /* \"#utility.yul\":1857:1910   */\n      tag_229\n      jump\t// in\n    tag_244:\n        /* \"#utility.yul\":1847:1910   */\n      swap3\n      pop\n        /* \"#utility.yul\":1802:1920   */\n      pop\n        /* \"#utility.yul\":1959:1961   */\n      0x60\n        /* \"#utility.yul\":1985:2038   */\n      tag_245\n        /* \"#utility.yul\":2030:2037   */\n      dup8\n        /* \"#utility.yul\":2021:2027   */\n      dup3\n        /* \"#utility.yul\":2010:2019   */\n      dup9\n        /* \"#utility.yul\":2006:2028   */\n      add\n        /* \"#utility.yul\":1985:2038   */\n      tag_229\n      jump\t// in\n    tag_245:\n        /* \"#utility.yul\":1975:2038   */\n      swap2\n      pop\n        /* \"#utility.yul\":1930:2048   */\n      pop\n        /* \"#utility.yul\":930:2055   */\n      swap3\n      swap6\n      swap2\n      swap5\n      pop\n      swap3\n      pop\n      jump\t// out\n        /* \"#utility.yul\":2061:2390   */\n    tag_17:\n        /* \"#utility.yul\":2120:2126   */\n      0x00\n        /* \"#utility.yul\":2169:2171   */\n      0x20\n        /* \"#utility.yul\":2157:2166   */\n      dup3\n        /* \"#utility.yul\":2148:2155   */\n      dup5\n        /* \"#utility.yul\":2144:2167   */\n      sub\n        /* \"#utility.yul\":2140:2172   */\n      slt\n        /* \"#utility.yul\":2137:2256   */\n      iszero\n      tag_247\n      jumpi\n        /* \"#utility.yul\":2175:2254   */\n      tag_248\n      tag_236\n      jump\t// in\n    tag_248:\n        /* \"#utility.yul\":2137:2256   */\n    tag_247:\n        /* \"#utility.yul\":2295:2296   */\n      0x00\n        /* \"#utility.yul\":2320:2373   */\n      tag_249\n        /* \"#utility.yul\":2365:2372   */\n      dup5\n        /* \"#utility.yul\":2356:2362   */\n      dup3\n        /* \"#utility.yul\":2345:2354   */\n      dup6\n        /* \"#utility.yul\":2341:2363   */\n      add\n        /* \"#utility.yul\":2320:2373   */\n      tag_229\n      jump\t// in\n    tag_249:\n        /* \"#utility.yul\":2310:2373   */\n      swap2\n      pop\n        /* \"#utility.yul\":2266:2383   */\n      pop\n        /* \"#utility.yul\":2061:2390   */\n      swap3\n      swap2\n      pop\n      pop\n      jump\t// out\n        /* \"#utility.yul\":2396:2538   */\n    tag_250:\n        /* \"#utility.yul\":2499:2531   */\n      tag_252\n        /* \"#utility.yul\":2525:2530   */\n      dup2\n        /* \"#utility.yul\":2499:2531   */\n      tag_253\n      jump\t// in\n    tag_252:\n        /* \"#utility.yul\":2494:2497   */\n      dup3\n        /* \"#utility.yul\":2487:2532   */\n      mstore\n        /* \"#utility.yul\":2396:2538   */\n      pop\n      pop\n      jump\t// out\n        /* \"#utility.yul\":2544:2653   */\n    tag_254:\n        /* \"#utility.yul\":2625:2646   */\n      tag_256\n        /* \"#utility.yul\":2640:2645   */\n      dup2\n        /* \"#utility.yul\":2625:2646   */\n      tag_257\n      jump\t// in\n    tag_256:\n        /* \"#utility.yul\":2620:2623   */\n      dup3\n        /* \"#utility.yul\":2613:2647   */\n      mstore\n        /* \"#utility.yul\":2544:2653   */\n      pop\n      pop\n      jump\t// out\n        /* \"#utility.yul\":2659:3023   */\n    tag_258:\n        /* \"#utility.yul\":2747:2750   */\n      0x00\n        /* \"#utility.yul\":2775:2814   */\n      tag_260\n        /* \"#utility.yul\":2808:2813   */\n      dup3\n        /* \"#utility.yul\":2775:2814   */\n      tag_261\n      jump\t// in\n    tag_260:\n        /* \"#utility.yul\":2830:2901   */\n      tag_262\n        /* \"#utility.yul\":2894:2900   */\n      dup2\n        /* \"#utility.yul\":2889:2892   */\n      dup6\n        /* \"#utility.yul\":2830:2901   */\n      tag_263\n      jump\t// in\n    tag_262:\n        /* \"#utility.yul\":2823:2901   */\n      swap4\n      pop\n        /* \"#utility.yul\":2910:2962   */\n      tag_264\n        /* \"#utility.yul\":2955:2961   */\n      dup2\n        /* \"#utility.yul\":2950:2953   */\n      dup6\n        /* \"#utility.yul\":2943:2947   */\n      0x20\n        /* \"#utility.yul\":2936:2941   */\n      dup7\n        /* \"#utility.yul\":2932:2948   */\n      add\n        /* \"#utility.yul\":2910:2962   */\n      tag_265\n      jump\t// in\n    tag_264:\n        /* \"#utility.yul\":2987:3016   */\n      tag_266\n        /* \"#utility.yul\":3009:3015   */\n      dup2\n        /* \"#utility.yul\":2987:3016   */\n      tag_267\n      jump\t// in\n    tag_266:\n        /* \"#utility.yul\":2982:2985   */\n      dup5\n        /* \"#utility.yul\":2978:3017   */\n      add\n        /* \"#utility.yul\":2971:3017   */\n      swap2\n      pop\n        /* \"#utility.yul\":2751:3023   */\n      pop\n        /* \"#utility.yul\":2659:3023   */\n      swap3\n      swap2\n      pop\n      pop\n      jump\t// out\n        /* \"#utility.yul\":3029:3395   */\n    tag_268:\n        /* \"#utility.yul\":3171:3174   */\n      0x00\n        /* \"#utility.yul\":3192:3259   */\n      tag_270\n        /* \"#utility.yul\":3256:3258   */\n      0x17\n        /* \"#utility.yul\":3251:3254   */\n      dup4\n        /* \"#utility.yul\":3192:3259   */\n      tag_263\n      jump\t// in\n    tag_270:\n        /* \"#utility.yul\":3185:3259   */\n      swap2\n      pop\n        /* \"#utility.yul\":3268:3361   */\n      tag_271\n        /* \"#utility.yul\":3357:3360   */\n      dup3\n        /* \"#utility.yul\":3268:3361   */\n      tag_272\n      jump\t// in\n    tag_271:\n        /* \"#utility.yul\":3386:3388   */\n      0x20\n        /* \"#utility.yul\":3381:3384   */\n      dup3\n        /* \"#utility.yul\":3377:3389   */\n      add\n        /* \"#utility.yul\":3370:3389   */\n      swap1\n      pop\n        /* \"#utility.yul\":3029:3395   */\n      swap2\n      swap1\n      pop\n      jump\t// out\n        /* \"#utility.yul\":3401:3767   */\n    tag_273:\n        /* \"#utility.yul\":3543:3546   */\n      0x00\n        /* \"#utility.yul\":3564:3631   */\n      tag_275\n        /* \"#utility.yul\":3628:3630   */\n      0x1b\n        /* \"#utility.yul\":3623:3626   */\n      dup4\n        /* \"#utility.yul\":3564:3631   */\n      tag_263\n      jump\t// in\n    tag_275:\n        /* \"#utility.yul\":3557:3631   */\n      swap2\n      pop\n        /* \"#utility.yul\":3640:3733   */\n      tag_276\n        /* \"#utility.yul\":3729:3732   */\n      dup3\n        /* \"#utility.yul\":3640:3733   */\n      tag_277\n      jump\t// in\n    tag_276:\n        /* \"#utility.yul\":3758:3760   */\n      0x20\n        /* \"#utility.yul\":3753:3756   */\n      dup3\n        /* \"#utility.yul\":3749:3761   */\n      add\n        /* \"#utility.yul\":3742:3761   */\n      swap1\n      pop\n        /* \"#utility.yul\":3401:3767   */\n      swap2\n      swap1\n      pop\n      jump\t// out\n        /* \"#utility.yul\":3773:4139   */\n    tag_278:\n        /* \"#utility.yul\":3915:3918   */\n      0x00\n        /* \"#utility.yul\":3936:4003   */\n      tag_280\n        /* \"#utility.yul\":4000:4002   */\n      0x1d\n        /* \"#utility.yul\":3995:3998   */\n      dup4\n        /* \"#utility.yul\":3936:4003   */\n      tag_263\n      jump\t// in\n    tag_280:\n        /* \"#utility.yul\":3929:4003   */\n      swap2\n      pop\n        /* \"#utility.yul\":4012:4105   */\n      tag_281\n        /* \"#utility.yul\":4101:4104   */\n      dup3\n        /* \"#utility.yul\":4012:4105   */\n      tag_282\n      jump\t// in\n    tag_281:\n        /* \"#utility.yul\":4130:4132   */\n      0x20\n        /* \"#utility.yul\":4125:4128   */\n      dup3\n        /* \"#utility.yul\":4121:4133   */\n      add\n        /* \"#utility.yul\":4114:4133   */\n      swap1\n      pop\n        /* \"#utility.yul\":3773:4139   */\n      swap2\n      swap1\n      pop\n      jump\t// out\n        /* \"#utility.yul\":4145:4511   */\n    tag_283:\n        /* \"#utility.yul\":4287:4290   */\n      0x00\n        /* \"#utility.yul\":4308:4375   */\n      tag_285\n        /* \"#utility.yul\":4372:4374   */\n      0x1b\n        /* \"#utility.yul\":4367:4370   */\n      dup4\n        /* \"#utility.yul\":4308:4375   */\n      tag_263\n      jump\t// in\n    tag_285:\n        /* \"#utility.yul\":4301:4375   */\n      swap2\n      pop\n        /* \"#utility.yul\":4384:4477   */\n      tag_286\n        /* \"#utility.yul\":4473:4476   */\n      dup3\n        /* \"#utility.yul\":4384:4477   */\n      tag_287\n      jump\t// in\n    tag_286:\n        /* \"#utility.yul\":4502:4504   */\n      0x20\n        /* \"#utility.yul\":4497:4500   */\n      dup3\n        /* \"#utility.yul\":4493:4505   */\n      add\n        /* \"#utility.yul\":4486:4505   */\n      swap1\n      pop\n        /* \"#utility.yul\":4145:4511   */\n      swap2\n      swap1\n      pop\n      jump\t// out\n        /* \"#utility.yul\":4517:4883   */\n    tag_288:\n        /* \"#utility.yul\":4659:4662   */\n      0x00\n        /* \"#utility.yul\":4680:4747   */\n      tag_290\n        /* \"#utility.yul\":4744:4746   */\n      0x2f\n        /* \"#utility.yul\":4739:4742   */\n      dup4\n        /* \"#utility.yul\":4680:4747   */\n      tag_263\n      jump\t// in\n    tag_290:\n        /* \"#utility.yul\":4673:4747   */\n      swap2\n      pop\n        /* \"#utility.yul\":4756:4849   */\n      tag_291\n        /* \"#utility.yul\":4845:4848   */\n      dup3\n        /* \"#utility.yul\":4756:4849   */\n      tag_292\n      jump\t// in\n    tag_291:\n        /* \"#utility.yul\":4874:4876   */\n      0x40\n        /* \"#utility.yul\":4869:4872   */\n      dup3\n        /* \"#utility.yul\":4865:4877   */\n      add\n        /* \"#utility.yul\":4858:4877   */\n      swap1\n      pop\n        /* \"#utility.yul\":4517:4883   */\n      swap2\n      swap1\n      pop\n      jump\t// out\n        /* \"#utility.yul\":4889:5255   */\n    tag_293:\n        /* \"#utility.yul\":5031:5034   */\n      0x00\n        /* \"#utility.yul\":5052:5119   */\n      tag_295\n        /* \"#utility.yul\":5116:5118   */\n      0x1f\n        /* \"#utility.yul\":5111:5114   */\n      dup4\n        /* \"#utility.yul\":5052:5119   */\n      tag_263\n      jump\t// in\n    tag_295:\n        /* \"#utility.yul\":5045:5119   */\n      swap2\n      pop\n        /* \"#utility.yul\":5128:5221   */\n      tag_296\n        /* \"#utility.yul\":5217:5220   */\n      dup3\n        /* \"#utility.yul\":5128:5221   */\n      tag_297\n      jump\t// in\n    tag_296:\n        /* \"#utility.yul\":5246:5248   */\n      0x20\n        /* \"#utility.yul\":5241:5244   */\n      dup3\n        /* \"#utility.yul\":5237:5249   */\n      add\n        /* \"#utility.yul\":5230:5249   */\n      swap1\n      pop\n        /* \"#utility.yul\":4889:5255   */\n      swap2\n      swap1\n      pop\n      jump\t// out\n        /* \"#utility.yul\":5261:5627   */\n    tag_298:\n        /* \"#utility.yul\":5403:5406   */\n      0x00\n        /* \"#utility.yul\":5424:5491   */\n      tag_300\n        /* \"#utility.yul\":5488:5490   */\n      0x20\n        /* \"#utility.yul\":5483:5486   */\n      dup4\n        /* \"#utility.yul\":5424:5491   */\n      tag_263\n      jump\t// in\n    tag_300:\n        /* \"#utility.yul\":5417:5491   */\n      swap2\n      pop\n        /* \"#utility.yul\":5500:5593   */\n      tag_301\n        /* \"#utility.yul\":5589:5592   */\n      dup3\n        /* \"#utility.yul\":5500:5593   */\n      tag_302\n      jump\t// in\n    tag_301:\n        /* \"#utility.yul\":5618:5620   */\n      0x20\n        /* \"#utility.yul\":5613:5616   */\n      dup3\n        /* \"#utility.yul\":5609:5621   */\n      add\n        /* \"#utility.yul\":5602:5621   */\n      swap1\n      pop\n        /* \"#utility.yul\":5261:5627   */\n      swap2\n      swap1\n      pop\n      jump\t// out\n        /* \"#utility.yul\":5633:5999   */\n    tag_303:\n        /* \"#utility.yul\":5775:5778   */\n      0x00\n        /* \"#utility.yul\":5796:5863   */\n      tag_305\n        /* \"#utility.yul\":5860:5862   */\n      0x15\n        /* \"#utility.yul\":5855:5858   */\n      dup4\n        /* \"#utility.yul\":5796:5863   */\n      tag_263\n      jump\t// in\n    tag_305:\n        /* \"#utility.yul\":5789:5863   */\n      swap2\n      pop\n        /* \"#utility.yul\":5872:5965   */\n      tag_306\n        /* \"#utility.yul\":5961:5964   */\n      dup3\n        /* \"#utility.yul\":5872:5965   */\n      tag_307\n      jump\t// in\n    tag_306:\n        /* \"#utility.yul\":5990:5992   */\n      0x20\n        /* \"#utility.yul\":5985:5988   */\n      dup3\n        /* \"#utility.yul\":5981:5993   */\n      add\n        /* \"#utility.yul\":5974:5993   */\n      swap1\n      pop\n        /* \"#utility.yul\":5633:5999   */\n      swap2\n      swap1\n      pop\n      jump\t// out\n        /* \"#utility.yul\":6005:6123   */\n    tag_308:\n        /* \"#utility.yul\":6092:6116   */\n      tag_310\n        /* \"#utility.yul\":6110:6115   */\n      dup2\n        /* \"#utility.yul\":6092:6116   */\n      tag_311\n      jump\t// in\n    tag_310:\n        /* \"#utility.yul\":6087:6090   */\n      dup3\n        /* \"#utility.yul\":6080:6117   */\n      mstore\n        /* \"#utility.yul\":6005:6123   */\n      pop\n      pop\n      jump\t// out\n        /* \"#utility.yul\":6129:6548   */\n    tag_154:\n        /* \"#utility.yul\":6295:6299   */\n      0x00\n        /* \"#utility.yul\":6333:6335   */\n      0x20\n        /* \"#utility.yul\":6322:6331   */\n      dup3\n        /* \"#utility.yul\":6318:6336   */\n      add\n        /* \"#utility.yul\":6310:6336   */\n      swap1\n      pop\n        /* \"#utility.yul\":6382:6391   */\n      dup2\n        /* \"#utility.yul\":6376:6380   */\n      dup2\n        /* \"#utility.yul\":6372:6392   */\n      sub\n        /* \"#utility.yul\":6368:6369   */\n      0x00\n        /* \"#utility.yul\":6357:6366   */\n      dup4\n        /* \"#utility.yul\":6353:6370   */\n      add\n        /* \"#utility.yul\":6346:6393   */\n      mstore\n        /* \"#utility.yul\":6410:6541   */\n      tag_313\n        /* \"#utility.yul\":6536:6540   */\n      dup2\n        /* \"#utility.yul\":6410:6541   */\n      tag_268\n      jump\t// in\n    tag_313:\n        /* \"#utility.yul\":6402:6541   */\n      swap1\n      pop\n        /* \"#utility.yul\":6129:6548   */\n      swap2\n      swap1\n      pop\n      jump\t// out\n        /* \"#utility.yul\":6554:6973   */\n    tag_88:\n        /* \"#utility.yul\":6720:6724   */\n      0x00\n        /* \"#utility.yul\":6758:6760   */\n      0x20\n        /* \"#utility.yul\":6747:6756   */\n      dup3\n        /* \"#utility.yul\":6743:6761   */\n      add\n        /* \"#utility.yul\":6735:6761   */\n      swap1\n      pop\n        /* \"#utility.yul\":6807:6816   */\n      dup2\n        /* \"#utility.yul\":6801:6805   */\n      dup2\n        /* \"#utility.yul\":6797:6817   */\n      sub\n        /* \"#utility.yul\":6793:6794   */\n      0x00\n        /* \"#utility.yul\":6782:6791   */\n      dup4\n        /* \"#utility.yul\":6778:6795   */\n      add\n        /* \"#utility.yul\":6771:6818   */\n      mstore\n        /* \"#utility.yul\":6835:6966   */\n      tag_315\n        /* \"#utility.yul\":6961:6965   */\n      dup2\n        /* \"#utility.yul\":6835:6966   */\n      tag_273\n      jump\t// in\n    tag_315:\n        /* \"#utility.yul\":6827:6966   */\n      swap1\n      pop\n        /* \"#utility.yul\":6554:6973   */\n      swap2\n      swap1\n      pop\n      jump\t// out\n        /* \"#utility.yul\":6979:7398   */\n    tag_125:\n        /* \"#utility.yul\":7145:7149   */\n      0x00\n        /* \"#utility.yul\":7183:7185   */\n      0x20\n        /* \"#utility.yul\":7172:7181   */\n      dup3\n        /* \"#utility.yul\":7168:7186   */\n      add\n        /* \"#utility.yul\":7160:7186   */\n      swap1\n      pop\n        /* \"#utility.yul\":7232:7241   */\n      dup2\n        /* \"#utility.yul\":7226:7230   */\n      dup2\n        /* \"#utility.yul\":7222:7242   */\n      sub\n        /* \"#utility.yul\":7218:7219   */\n      0x00\n        /* \"#utility.yul\":7207:7216   */\n      dup4\n        /* \"#utility.yul\":7203:7220   */\n      add\n        /* \"#utility.yul\":7196:7243   */\n      mstore\n        /* \"#utility.yul\":7260:7391   */\n      tag_317\n        /* \"#utility.yul\":7386:7390   */\n      dup2\n        /* \"#utility.yul\":7260:7391   */\n      tag_278\n      jump\t// in\n    tag_317:\n        /* \"#utility.yul\":7252:7391   */\n      swap1\n      pop\n        /* \"#utility.yul\":6979:7398   */\n      swap2\n      swap1\n      pop\n      jump\t// out\n        /* \"#utility.yul\":7404:7823   */\n    tag_78:\n        /* \"#utility.yul\":7570:7574   */\n      0x00\n        /* \"#utility.yul\":7608:7610   */\n      0x20\n        /* \"#utility.yul\":7597:7606   */\n      dup3\n        /* \"#utility.yul\":7593:7611   */\n      add\n        /* \"#utility.yul\":7585:7611   */\n      swap1\n      pop\n        /* \"#utility.yul\":7657:7666   */\n      dup2\n        /* \"#utility.yul\":7651:7655   */\n      dup2\n        /* \"#utility.yul\":7647:7667   */\n      sub\n        /* \"#utility.yul\":7643:7644   */\n      0x00\n        /* \"#utility.yul\":7632:7641   */\n      dup4\n        /* \"#utility.yul\":7628:7645   */\n      add\n        /* \"#utility.yul\":7621:7668   */\n      mstore\n        /* \"#utility.yul\":7685:7816   */\n      tag_319\n        /* \"#utility.yul\":7811:7815   */\n      dup2\n        /* \"#utility.yul\":7685:7816   */\n      tag_283\n      jump\t// in\n    tag_319:\n        /* \"#utility.yul\":7677:7816   */\n      swap1\n      pop\n        /* \"#utility.yul\":7404:7823   */\n      swap2\n      swap1\n      pop\n      jump\t// out\n        /* \"#utility.yul\":7829:8248   */\n    tag_175:\n        /* \"#utility.yul\":7995:7999   */\n      0x00\n        /* \"#utility.yul\":8033:8035   */\n      0x20\n        /* \"#utility.yul\":8022:8031   */\n      dup3\n        /* \"#utility.yul\":8018:8036   */\n      add\n        /* \"#utility.yul\":8010:8036   */\n      swap1\n      pop\n        /* \"#utility.yul\":8082:8091   */\n      dup2\n        /* \"#utility.yul\":8076:8080   */\n      dup2\n        /* \"#utility.yul\":8072:8092   */\n      sub\n        /* \"#utility.yul\":8068:8069   */\n      0x00\n        /* \"#utility.yul\":8057:8066   */\n      dup4\n        /* \"#utility.yul\":8053:8070   */\n      add\n        /* \"#utility.yul\":8046:8093   */\n      mstore\n        /* \"#utility.yul\":8110:8241   */\n      tag_321\n        /* \"#utility.yul\":8236:8240   */\n      dup2\n        /* \"#utility.yul\":8110:8241   */\n      tag_288\n      jump\t// in\n    tag_321:\n        /* \"#utility.yul\":8102:8241   */\n      swap1\n      pop\n        /* \"#utility.yul\":7829:8248   */\n      swap2\n      swap1\n      pop\n      jump\t// out\n        /* \"#utility.yul\":8254:8673   */\n    tag_84:\n        /* \"#utility.yul\":8420:8424   */\n      0x00\n        /* \"#utility.yul\":8458:8460   */\n      0x20\n        /* \"#utility.yul\":8447:8456   */\n      dup3\n        /* \"#utility.yul\":8443:8461   */\n      add\n        /* \"#utility.yul\":8435:8461   */\n      swap1\n      pop\n        /* \"#utility.yul\":8507:8516   */\n      dup2\n        /* \"#utility.yul\":8501:8505   */\n      dup2\n        /* \"#utility.yul\":8497:8517   */\n      sub\n        /* \"#utility.yul\":8493:8494   */\n      0x00\n        /* \"#utility.yul\":8482:8491   */\n      dup4\n        /* \"#utility.yul\":8478:8495   */\n      add\n        /* \"#utility.yul\":8471:8518   */\n      mstore\n        /* \"#utility.yul\":8535:8666   */\n      tag_323\n        /* \"#utility.yul\":8661:8665   */\n      dup2\n        /* \"#utility.yul\":8535:8666   */\n      tag_293\n      jump\t// in\n    tag_323:\n        /* \"#utility.yul\":8527:8666   */\n      swap1\n      pop\n        /* \"#utility.yul\":8254:8673   */\n      swap2\n      swap1\n      pop\n      jump\t// out\n        /* \"#utility.yul\":8679:9098   */\n    tag_130:\n        /* \"#utility.yul\":8845:8849   */\n      0x00\n        /* \"#utility.yul\":8883:8885   */\n      0x20\n        /* \"#utility.yul\":8872:8881   */\n      dup3\n        /* \"#utility.yul\":8868:8886   */\n      add\n        /* \"#utility.yul\":8860:8886   */\n      swap1\n      pop\n        /* \"#utility.yul\":8932:8941   */\n      dup2\n        /* \"#utility.yul\":8926:8930   */\n      dup2\n        /* \"#utility.yul\":8922:8942   */\n      sub\n        /* \"#utility.yul\":8918:8919   */\n      0x00\n        /* \"#utility.yul\":8907:8916   */\n      dup4\n        /* \"#utility.yul\":8903:8920   */\n      add\n        /* \"#utility.yul\":8896:8943   */\n      mstore\n        /* \"#utility.yul\":8960:9091   */\n      tag_325\n        /* \"#utility.yul\":9086:9090   */\n      dup2\n        /* \"#utility.yul\":8960:9091   */\n      tag_298\n      jump\t// in\n    tag_325:\n        /* \"#utility.yul\":8952:9091   */\n      swap1\n      pop\n        /* \"#utility.yul\":8679:9098   */\n      swap2\n      swap1\n      pop\n      jump\t// out\n        /* \"#utility.yul\":9104:9523   */\n    tag_180:\n        /* \"#utility.yul\":9270:9274   */\n      0x00\n        /* \"#utility.yul\":9308:9310   */\n      0x20\n        /* \"#utility.yul\":9297:9306   */\n      dup3\n        /* \"#utility.yul\":9293:9311   */\n      add\n        /* \"#utility.yul\":9285:9311   */\n      swap1\n      pop\n        /* \"#utility.yul\":9357:9366   */\n      dup2\n        /* \"#utility.yul\":9351:9355   */\n      dup2\n        /* \"#utility.yul\":9347:9367   */\n      sub\n        /* \"#utility.yul\":9343:9344   */\n      0x00\n        /* \"#utility.yul\":9332:9341   */\n      dup4\n        /* \"#utility.yul\":9328:9345   */\n      add\n        /* \"#utility.yul\":9321:9368   */\n      mstore\n        /* \"#utility.yul\":9385:9516   */\n      tag_327\n        /* \"#utility.yul\":9511:9515   */\n      dup2\n        /* \"#utility.yul\":9385:9516   */\n      tag_303\n      jump\t// in\n    tag_327:\n        /* \"#utility.yul\":9377:9516   */\n      swap1\n      pop\n        /* \"#utility.yul\":9104:9523   */\n      swap2\n      swap1\n      pop\n      jump\t// out\n        /* \"#utility.yul\":9529:9751   */\n    tag_31:\n        /* \"#utility.yul\":9622:9626   */\n      0x00\n        /* \"#utility.yul\":9660:9662   */\n      0x20\n        /* \"#utility.yul\":9649:9658   */\n      dup3\n        /* \"#utility.yul\":9645:9663   */\n      add\n        /* \"#utility.yul\":9637:9663   */\n      swap1\n      pop\n        /* \"#utility.yul\":9673:9744   */\n      tag_329\n        /* \"#utility.yul\":9741:9742   */\n      0x00\n        /* \"#utility.yul\":9730:9739   */\n      dup4\n        /* \"#utility.yul\":9726:9743   */\n      add\n        /* \"#utility.yul\":9717:9723   */\n      dup5\n        /* \"#utility.yul\":9673:9744   */\n      tag_308\n      jump\t// in\n    tag_329:\n        /* \"#utility.yul\":9529:9751   */\n      swap3\n      swap2\n      pop\n      pop\n      jump\t// out\n        /* \"#utility.yul\":9757:11210   */\n    tag_37:\n        /* \"#utility.yul\":10168:10172   */\n      0x00\n        /* \"#utility.yul\":10206:10209   */\n      0x0140\n        /* \"#utility.yul\":10195:10204   */\n      dup3\n        /* \"#utility.yul\":10191:10210   */\n      add\n        /* \"#utility.yul\":10183:10210   */\n      swap1\n      pop\n        /* \"#utility.yul\":10220:10291   */\n      tag_331\n        /* \"#utility.yul\":10288:10289   */\n      0x00\n        /* \"#utility.yul\":10277:10286   */\n      dup4\n        /* \"#utility.yul\":10273:10290   */\n      add\n        /* \"#utility.yul\":10264:10270   */\n      dup14\n        /* \"#utility.yul\":10220:10291   */\n      tag_308\n      jump\t// in\n    tag_331:\n        /* \"#utility.yul\":10301:10373   */\n      tag_332\n        /* \"#utility.yul\":10369:10371   */\n      0x20\n        /* \"#utility.yul\":10358:10367   */\n      dup4\n        /* \"#utility.yul\":10354:10372   */\n      add\n        /* \"#utility.yul\":10345:10351   */\n      dup13\n        /* \"#utility.yul\":10301:10373   */\n      tag_308\n      jump\t// in\n    tag_332:\n        /* \"#utility.yul\":10420:10429   */\n      dup2\n        /* \"#utility.yul\":10414:10418   */\n      dup2\n        /* \"#utility.yul\":10410:10430   */\n      sub\n        /* \"#utility.yul\":10405:10407   */\n      0x40\n        /* \"#utility.yul\":10394:10403   */\n      dup4\n        /* \"#utility.yul\":10390:10408   */\n      add\n        /* \"#utility.yul\":10383:10431   */\n      mstore\n        /* \"#utility.yul\":10448:10526   */\n      tag_333\n        /* \"#utility.yul\":10521:10525   */\n      dup2\n        /* \"#utility.yul\":10512:10518   */\n      dup12\n        /* \"#utility.yul\":10448:10526   */\n      tag_258\n      jump\t// in\n    tag_333:\n        /* \"#utility.yul\":10440:10526   */\n      swap1\n      pop\n        /* \"#utility.yul\":10573:10582   */\n      dup2\n        /* \"#utility.yul\":10567:10571   */\n      dup2\n        /* \"#utility.yul\":10563:10583   */\n      sub\n        /* \"#utility.yul\":10558:10560   */\n      0x60\n        /* \"#utility.yul\":10547:10556   */\n      dup4\n        /* \"#utility.yul\":10543:10561   */\n      add\n        /* \"#utility.yul\":10536:10584   */\n      mstore\n        /* \"#utility.yul\":10601:10679   */\n      tag_334\n        /* \"#utility.yul\":10674:10678   */\n      dup2\n        /* \"#utility.yul\":10665:10671   */\n      dup11\n        /* \"#utility.yul\":10601:10679   */\n      tag_258\n      jump\t// in\n    tag_334:\n        /* \"#utility.yul\":10593:10679   */\n      swap1\n      pop\n        /* \"#utility.yul\":10689:10762   */\n      tag_335\n        /* \"#utility.yul\":10757:10760   */\n      0x80\n        /* \"#utility.yul\":10746:10755   */\n      dup4\n        /* \"#utility.yul\":10742:10761   */\n      add\n        /* \"#utility.yul\":10733:10739   */\n      dup10\n        /* \"#utility.yul\":10689:10762   */\n      tag_308\n      jump\t// in\n    tag_335:\n        /* \"#utility.yul\":10772:10845   */\n      tag_336\n        /* \"#utility.yul\":10840:10843   */\n      0xa0\n        /* \"#utility.yul\":10829:10838   */\n      dup4\n        /* \"#utility.yul\":10825:10844   */\n      add\n        /* \"#utility.yul\":10816:10822   */\n      dup9\n        /* \"#utility.yul\":10772:10845   */\n      tag_308\n      jump\t// in\n    tag_336:\n        /* \"#utility.yul\":10855:10928   */\n      tag_337\n        /* \"#utility.yul\":10923:10926   */\n      0xc0\n        /* \"#utility.yul\":10912:10921   */\n      dup4\n        /* \"#utility.yul\":10908:10927   */\n      add\n        /* \"#utility.yul\":10899:10905   */\n      dup8\n        /* \"#utility.yul\":10855:10928   */\n      tag_308\n      jump\t// in\n    tag_337:\n        /* \"#utility.yul\":10938:11005   */\n      tag_338\n        /* \"#utility.yul\":11000:11003   */\n      0xe0\n        /* \"#utility.yul\":10989:10998   */\n      dup4\n        /* \"#utility.yul\":10985:11004   */\n      add\n        /* \"#utility.yul\":10976:10982   */\n      dup7\n        /* \"#utility.yul\":10938:11005   */\n      tag_254\n      jump\t// in\n    tag_338:\n        /* \"#utility.yul\":11015:11104   */\n      tag_339\n        /* \"#utility.yul\":11099:11102   */\n      0x0100\n        /* \"#utility.yul\":11088:11097   */\n      dup4\n        /* \"#utility.yul\":11084:11103   */\n      add\n        /* \"#utility.yul\":11075:11081   */\n      dup6\n        /* \"#utility.yul\":11015:11104   */\n      tag_250\n      jump\t// in\n    tag_339:\n        /* \"#utility.yul\":11114:11203   */\n      tag_340\n        /* \"#utility.yul\":11198:11201   */\n      0x0120\n        /* \"#utility.yul\":11187:11196   */\n      dup4\n        /* \"#utility.yul\":11183:11202   */\n      add\n        /* \"#utility.yul\":11174:11180   */\n      dup5\n        /* \"#utility.yul\":11114:11203   */\n      tag_250\n      jump\t// in\n    tag_340:\n        /* \"#utility.yul\":9757:11210   */\n      swap12\n      swap11\n      pop\n      pop\n      pop\n      pop\n      pop\n      pop\n      pop\n      pop\n      pop\n      pop\n      pop\n      jump\t// out\n        /* \"#utility.yul\":11216:12681   */\n    tag_20:\n        /* \"#utility.yul\":11633:11637   */\n      0x00\n        /* \"#utility.yul\":11671:11674   */\n      0x0140\n        /* \"#utility.yul\":11660:11669   */\n      dup3\n        /* \"#utility.yul\":11656:11675   */\n      add\n        /* \"#utility.yul\":11648:11675   */\n      swap1\n      pop\n        /* \"#utility.yul\":11685:11756   */\n      tag_342\n        /* \"#utility.yul\":11753:11754   */\n      0x00\n        /* \"#utility.yul\":11742:11751   */\n      dup4\n        /* \"#utility.yul\":11738:11755   */\n      add\n        /* \"#utility.yul\":11729:11735   */\n      dup14\n        /* \"#utility.yul\":11685:11756   */\n      tag_308\n      jump\t// in\n    tag_342:\n        /* \"#utility.yul\":11766:11838   */\n      tag_343\n        /* \"#utility.yul\":11834:11836   */\n      0x20\n        /* \"#utility.yul\":11823:11832   */\n      dup4\n        /* \"#utility.yul\":11819:11837   */\n      add\n        /* \"#utility.yul\":11810:11816   */\n      dup13\n        /* \"#utility.yul\":11766:11838   */\n      tag_308\n      jump\t// in\n    tag_343:\n        /* \"#utility.yul\":11885:11894   */\n      dup2\n        /* \"#utility.yul\":11879:11883   */\n      dup2\n        /* \"#utility.yul\":11875:11895   */\n      sub\n        /* \"#utility.yul\":11870:11872   */\n      0x40\n        /* \"#utility.yul\":11859:11868   */\n      dup4\n        /* \"#utility.yul\":11855:11873   */\n      add\n        /* \"#utility.yul\":11848:11896   */\n      mstore\n        /* \"#utility.yul\":11913:11991   */\n      tag_344\n        /* \"#utility.yul\":11986:11990   */\n      dup2\n        /* \"#utility.yul\":11977:11983   */\n      dup12\n        /* \"#utility.yul\":11913:11991   */\n      tag_258\n      jump\t// in\n    tag_344:\n        /* \"#utility.yul\":11905:11991   */\n      swap1\n      pop\n        /* \"#utility.yul\":12038:12047   */\n      dup2\n        /* \"#utility.yul\":12032:12036   */\n      dup2\n        /* \"#utility.yul\":12028:12048   */\n      sub\n        /* \"#utility.yul\":12023:12025   */\n      0x60\n        /* \"#utility.yul\":12012:12021   */\n      dup4\n        /* \"#utility.yul\":12008:12026   */\n      add\n        /* \"#utility.yul\":12001:12049   */\n      mstore\n        /* \"#utility.yul\":12066:12144   */\n      tag_345\n        /* \"#utility.yul\":12139:12143   */\n      dup2\n        /* \"#utility.yul\":12130:12136   */\n      dup11\n        /* \"#utility.yul\":12066:12144   */\n      tag_258\n      jump\t// in\n    tag_345:\n        /* \"#utility.yul\":12058:12144   */\n      swap1\n      pop\n        /* \"#utility.yul\":12154:12227   */\n      tag_346\n        /* \"#utility.yul\":12222:12225   */\n      0x80\n        /* \"#utility.yul\":12211:12220   */\n      dup4\n        /* \"#utility.yul\":12207:12226   */\n      add\n        /* \"#utility.yul\":12198:12204   */\n      dup10\n        /* \"#utility.yul\":12154:12227   */\n      tag_308\n      jump\t// in\n    tag_346:\n        /* \"#utility.yul\":12237:12310   */\n      tag_347\n        /* \"#utility.yul\":12305:12308   */\n      0xa0\n        /* \"#utility.yul\":12294:12303   */\n      dup4\n        /* \"#utility.yul\":12290:12309   */\n      add\n        /* \"#utility.yul\":12281:12287   */\n      dup9\n        /* \"#utility.yul\":12237:12310   */\n      tag_308\n      jump\t// in\n    tag_347:\n        /* \"#utility.yul\":12320:12393   */\n      tag_348\n        /* \"#utility.yul\":12388:12391   */\n      0xc0\n        /* \"#utility.yul\":12377:12386   */\n      dup4\n        /* \"#utility.yul\":12373:12392   */\n      add\n        /* \"#utility.yul\":12364:12370   */\n      dup8\n        /* \"#utility.yul\":12320:12393   */\n      tag_308\n      jump\t// in\n    tag_348:\n        /* \"#utility.yul\":12403:12476   */\n      tag_349\n        /* \"#utility.yul\":12471:12474   */\n      0xe0\n        /* \"#utility.yul\":12460:12469   */\n      dup4\n        /* \"#utility.yul\":12456:12475   */\n      add\n        /* \"#utility.yul\":12447:12453   */\n      dup7\n        /* \"#utility.yul\":12403:12476   */\n      tag_308\n      jump\t// in\n    tag_349:\n        /* \"#utility.yul\":12486:12575   */\n      tag_350\n        /* \"#utility.yul\":12570:12573   */\n      0x0100\n        /* \"#utility.yul\":12559:12568   */\n      dup4\n        /* \"#utility.yul\":12555:12574   */\n      add\n        /* \"#utility.yul\":12546:12552   */\n      dup6\n        /* \"#utility.yul\":12486:12575   */\n      tag_250\n      jump\t// in\n    tag_350:\n        /* \"#utility.yul\":12585:12674   */\n      tag_351\n        /* \"#utility.yul\":12669:12672   */\n      0x0120\n        /* \"#utility.yul\":12658:12667   */\n      dup4\n        /* \"#utility.yul\":12654:12673   */\n      add\n        /* \"#utility.yul\":12645:12651   */\n      dup5\n        /* \"#utility.yul\":12585:12674   */\n      tag_250\n      jump\t// in\n    tag_351:\n        /* \"#utility.yul\":11216:12681   */\n      swap12\n      swap11\n      pop\n      pop\n      pop\n      pop\n      pop\n      pop\n      pop\n      pop\n      pop\n      pop\n      pop\n      jump\t// out\n        /* \"#utility.yul\":12687:14041   */\n    tag_60:\n        /* \"#utility.yul\":13076:13080   */\n      0x00\n        /* \"#utility.yul\":13114:13117   */\n      0x0120\n        /* \"#utility.yul\":13103:13112   */\n      dup3\n        /* \"#utility.yul\":13099:13118   */\n      add\n        /* \"#utility.yul\":13091:13118   */\n      swap1\n      pop\n        /* \"#utility.yul\":13128:13199   */\n      tag_353\n        /* \"#utility.yul\":13196:13197   */\n      0x00\n        /* \"#utility.yul\":13185:13194   */\n      dup4\n        /* \"#utility.yul\":13181:13198   */\n      add\n        /* \"#utility.yul\":13172:13178   */\n      dup13\n        /* \"#utility.yul\":13128:13199   */\n      tag_308\n      jump\t// in\n    tag_353:\n        /* \"#utility.yul\":13209:13281   */\n      tag_354\n        /* \"#utility.yul\":13277:13279   */\n      0x20\n        /* \"#utility.yul\":13266:13275   */\n      dup4\n        /* \"#utility.yul\":13262:13280   */\n      add\n        /* \"#utility.yul\":13253:13259   */\n      dup12\n        /* \"#utility.yul\":13209:13281   */\n      tag_308\n      jump\t// in\n    tag_354:\n        /* \"#utility.yul\":13291:13363   */\n      tag_355\n        /* \"#utility.yul\":13359:13361   */\n      0x40\n        /* \"#utility.yul\":13348:13357   */\n      dup4\n        /* \"#utility.yul\":13344:13362   */\n      add\n        /* \"#utility.yul\":13335:13341   */\n      dup11\n        /* \"#utility.yul\":13291:13363   */\n      tag_308\n      jump\t// in\n    tag_355:\n        /* \"#utility.yul\":13410:13419   */\n      dup2\n        /* \"#utility.yul\":13404:13408   */\n      dup2\n        /* \"#utility.yul\":13400:13420   */\n      sub\n        /* \"#utility.yul\":13395:13397   */\n      0x60\n        /* \"#utility.yul\":13384:13393   */\n      dup4\n        /* \"#utility.yul\":13380:13398   */\n      add\n        /* \"#utility.yul\":13373:13421   */\n      mstore\n        /* \"#utility.yul\":13438:13516   */\n      tag_356\n        /* \"#utility.yul\":13511:13515   */\n      dup2\n        /* \"#utility.yul\":13502:13508   */\n      dup10\n        /* \"#utility.yul\":13438:13516   */\n      tag_258\n      jump\t// in\n    tag_356:\n        /* \"#utility.yul\":13430:13516   */\n      swap1\n      pop\n        /* \"#utility.yul\":13564:13573   */\n      dup2\n        /* \"#utility.yul\":13558:13562   */\n      dup2\n        /* \"#utility.yul\":13554:13574   */\n      sub\n        /* \"#utility.yul\":13548:13551   */\n      0x80\n        /* \"#utility.yul\":13537:13546   */\n      dup4\n        /* \"#utility.yul\":13533:13552   */\n      add\n        /* \"#utility.yul\":13526:13575   */\n      mstore\n        /* \"#utility.yul\":13592:13670   */\n      tag_357\n        /* \"#utility.yul\":13665:13669   */\n      dup2\n        /* \"#utility.yul\":13656:13662   */\n      dup9\n        /* \"#utility.yul\":13592:13670   */\n      tag_258\n      jump\t// in\n    tag_357:\n        /* \"#utility.yul\":13584:13670   */\n      swap1\n      pop\n        /* \"#utility.yul\":13680:13753   */\n      tag_358\n        /* \"#utility.yul\":13748:13751   */\n      0xa0\n        /* \"#utility.yul\":13737:13746   */\n      dup4\n        /* \"#utility.yul\":13733:13752   */\n      add\n        /* \"#utility.yul\":13724:13730   */\n      dup8\n        /* \"#utility.yul\":13680:13753   */\n      tag_308\n      jump\t// in\n    tag_358:\n        /* \"#utility.yul\":13763:13836   */\n      tag_359\n        /* \"#utility.yul\":13831:13834   */\n      0xc0\n        /* \"#utility.yul\":13820:13829   */\n      dup4\n        /* \"#utility.yul\":13816:13835   */\n      add\n        /* \"#utility.yul\":13807:13813   */\n      dup7\n        /* \"#utility.yul\":13763:13836   */\n      tag_308\n      jump\t// in\n    tag_359:\n        /* \"#utility.yul\":13846:13935   */\n      tag_360\n        /* \"#utility.yul\":13930:13933   */\n      0xe0\n        /* \"#utility.yul\":13919:13928   */\n      dup4\n        /* \"#utility.yul\":13915:13934   */\n      add\n        /* \"#utility.yul\":13906:13912   */\n      dup6\n        /* \"#utility.yul\":13846:13935   */\n      tag_250\n      jump\t// in\n    tag_360:\n        /* \"#utility.yul\":13945:14034   */\n      tag_361\n        /* \"#utility.yul\":14029:14032   */\n      0x0100\n        /* \"#utility.yul\":14018:14027   */\n      dup4\n        /* \"#utility.yul\":14014:14033   */\n      add\n        /* \"#utility.yul\":14005:14011   */\n      dup5\n        /* \"#utility.yul\":13945:14034   */\n      tag_250\n      jump\t// in\n    tag_361:\n        /* \"#utility.yul\":12687:14041   */\n      swap11\n      swap10\n      pop\n      pop\n      pop\n      pop\n      pop\n      pop\n      pop\n      pop\n      pop\n      pop\n      jump\t// out\n        /* \"#utility.yul\":14047:14176   */\n    tag_217:\n        /* \"#utility.yul\":14081:14087   */\n      0x00\n        /* \"#utility.yul\":14108:14128   */\n      tag_363\n      tag_364\n      jump\t// in\n    tag_363:\n        /* \"#utility.yul\":14098:14128   */\n      swap1\n      pop\n        /* \"#utility.yul\":14137:14170   */\n      tag_365\n        /* \"#utility.yul\":14165:14169   */\n      dup3\n        /* \"#utility.yul\":14157:14163   */\n      dup3\n        /* \"#utility.yul\":14137:14170   */\n      tag_366\n      jump\t// in\n    tag_365:\n        /* \"#utility.yul\":14047:14176   */\n      swap2\n      swap1\n      pop\n      jump\t// out\n        /* \"#utility.yul\":14182:14257   */\n    tag_364:\n        /* \"#utility.yul\":14215:14221   */\n      0x00\n        /* \"#utility.yul\":14248:14250   */\n      0x40\n        /* \"#utility.yul\":14242:14251   */\n      mload\n        /* \"#utility.yul\":14232:14251   */\n      swap1\n      pop\n        /* \"#utility.yul\":14182:14257   */\n      swap1\n      jump\t// out\n        /* \"#utility.yul\":14263:14571   */\n    tag_216:\n        /* \"#utility.yul\":14325:14329   */\n      0x00\n        /* \"#utility.yul\":14415:14433   */\n      0xffffffffffffffff\n        /* \"#utility.yul\":14407:14413   */\n      dup3\n        /* \"#utility.yul\":14404:14434   */\n      gt\n        /* \"#utility.yul\":14401:14457   */\n      iszero\n      tag_369\n      jumpi\n        /* \"#utility.yul\":14437:14455   */\n      tag_370\n      tag_371\n      jump\t// in\n    tag_370:\n        /* \"#utility.yul\":14401:14457   */\n    tag_369:\n        /* \"#utility.yul\":14475:14504   */\n      tag_372\n        /* \"#utility.yul\":14497:14503   */\n      dup3\n        /* \"#utility.yul\":14475:14504   */\n      tag_267\n      jump\t// in\n    tag_372:\n        /* \"#utility.yul\":14467:14504   */\n      swap1\n      pop\n        /* \"#utility.yul\":14559:14563   */\n      0x20\n        /* \"#utility.yul\":14553:14557   */\n      dup2\n        /* \"#utility.yul\":14549:14564   */\n      add\n        /* \"#utility.yul\":14541:14564   */\n      swap1\n      pop\n        /* \"#utility.yul\":14263:14571   */\n      swap2\n      swap1\n      pop\n      jump\t// out\n        /* \"#utility.yul\":14577:14676   */\n    tag_261:\n        /* \"#utility.yul\":14629:14635   */\n      0x00\n        /* \"#utility.yul\":14663:14668   */\n      dup2\n        /* \"#utility.yul\":14657:14669   */\n      mload\n        /* \"#utility.yul\":14647:14669   */\n      swap1\n      pop\n        /* \"#utility.yul\":14577:14676   */\n      swap2\n      swap1\n      pop\n      jump\t// out\n        /* \"#utility.yul\":14682:14851   */\n    tag_263:\n        /* \"#utility.yul\":14766:14777   */\n      0x00\n        /* \"#utility.yul\":14800:14806   */\n      dup3\n        /* \"#utility.yul\":14795:14798   */\n      dup3\n        /* \"#utility.yul\":14788:14807   */\n      mstore\n        /* \"#utility.yul\":14840:14844   */\n      0x20\n        /* \"#utility.yul\":14835:14838   */\n      dup3\n        /* \"#utility.yul\":14831:14845   */\n      add\n        /* \"#utility.yul\":14816:14845   */\n      swap1\n      pop\n        /* \"#utility.yul\":14682:14851   */\n      swap3\n      swap2\n      pop\n      pop\n      jump\t// out\n        /* \"#utility.yul\":14857:15162   */\n    tag_81:\n        /* \"#utility.yul\":14897:14900   */\n      0x00\n        /* \"#utility.yul\":14916:14936   */\n      tag_376\n        /* \"#utility.yul\":14934:14935   */\n      dup3\n        /* \"#utility.yul\":14916:14936   */\n      tag_311\n      jump\t// in\n    tag_376:\n        /* \"#utility.yul\":14911:14936   */\n      swap2\n      pop\n        /* \"#utility.yul\":14950:14970   */\n      tag_377\n        /* \"#utility.yul\":14968:14969   */\n      dup4\n        /* \"#utility.yul\":14950:14970   */\n      tag_311\n      jump\t// in\n    tag_377:\n        /* \"#utility.yul\":14945:14970   */\n      swap3\n      pop\n        /* \"#utility.yul\":15104:15105   */\n      dup3\n        /* \"#utility.yul\":15036:15102   */\n      0xffffffffffffffffffffffffffffffffffffffffffffffffffffffffffffffff\n        /* \"#utility.yul\":15032:15106   */\n      sub\n        /* \"#utility.yul\":15029:15030   */\n      dup3\n        /* \"#utility.yul\":15026:15107   */\n      gt\n        /* \"#utility.yul\":15023:15130   */\n      iszero\n      tag_378\n      jumpi\n        /* \"#utility.yul\":15110:15128   */\n      tag_379\n      tag_380\n      jump\t// in\n    tag_379:\n        /* \"#utility.yul\":15023:15130   */\n    tag_378:\n        /* \"#utility.yul\":15154:15155   */\n      dup3\n        /* \"#utility.yul\":15151:15152   */\n      dup3\n        /* \"#utility.yul\":15147:15156   */\n      add\n        /* \"#utility.yul\":15140:15156   */\n      swap1\n      pop\n        /* \"#utility.yul\":14857:15162   */\n      swap3\n      swap2\n      pop\n      pop\n      jump\t// out\n        /* \"#utility.yul\":15168:15272   */\n    tag_253:\n        /* \"#utility.yul\":15213:15220   */\n      0x00\n        /* \"#utility.yul\":15242:15266   */\n      tag_382\n        /* \"#utility.yul\":15260:15265   */\n      dup3\n        /* \"#utility.yul\":15242:15266   */\n      tag_383\n      jump\t// in\n    tag_382:\n        /* \"#utility.yul\":15231:15266   */\n      swap1\n      pop\n        /* \"#utility.yul\":15168:15272   */\n      swap2\n      swap1\n      pop\n      jump\t// out\n        /* \"#utility.yul\":15278:15368   */\n    tag_257:\n        /* \"#utility.yul\":15312:15319   */\n      0x00\n        /* \"#utility.yul\":15355:15360   */\n      dup2\n        /* \"#utility.yul\":15348:15361   */\n      iszero\n        /* \"#utility.yul\":15341:15362   */\n      iszero\n        /* \"#utility.yul\":15330:15362   */\n      swap1\n      pop\n        /* \"#utility.yul\":15278:15368   */\n      swap2\n      swap1\n      pop\n      jump\t// out\n        /* \"#utility.yul\":15374:15500   */\n    tag_383:\n        /* \"#utility.yul\":15411:15418   */\n      0x00\n        /* \"#utility.yul\":15451:15493   */\n      0xffffffffffffffffffffffffffffffffffffffff\n        /* \"#utility.yul\":15444:15449   */\n      dup3\n        /* \"#utility.yul\":15440:15494   */\n      and\n        /* \"#utility.yul\":15429:15494   */\n      swap1\n      pop\n        /* \"#utility.yul\":15374:15500   */\n      swap2\n      swap1\n      pop\n      jump\t// out\n        /* \"#utility.yul\":15506:15583   */\n    tag_311:\n        /* \"#utility.yul\":15543:15550   */\n      0x00\n        /* \"#utility.yul\":15572:15577   */\n      dup2\n        /* \"#utility.yul\":15561:15577   */\n      swap1\n      pop\n        /* \"#utility.yul\":15506:15583   */\n      swap2\n      swap1\n      pop\n      jump\t// out\n        /* \"#utility.yul\":15589:15743   */\n    tag_222:\n        /* \"#utility.yul\":15673:15679   */\n      dup3\n        /* \"#utility.yul\":15668:15671   */\n      dup2\n        /* \"#utility.yul\":15663:15666   */\n      dup4\n        /* \"#utility.yul\":15650:15680   */\n      calldatacopy\n        /* \"#utility.yul\":15735:15736   */\n      0x00\n        /* \"#utility.yul\":15726:15732   */\n      dup4\n        /* \"#utility.yul\":15721:15724   */\n      dup4\n        /* \"#utility.yul\":15717:15733   */\n      add\n        /* \"#utility.yul\":15710:15737   */\n      mstore\n        /* \"#utility.yul\":15589:15743   */\n      pop\n      pop\n      pop\n      jump\t// out\n        /* \"#utility.yul\":15749:16056   */\n    tag_265:\n        /* \"#utility.yul\":15817:15818   */\n      0x00\n        /* \"#utility.yul\":15827:15940   */\n    tag_389:\n        /* \"#utility.yul\":15841:15847   */\n      dup4\n        /* \"#utility.yul\":15838:15839   */\n      dup2\n        /* \"#utility.yul\":15835:15848   */\n      lt\n        /* \"#utility.yul\":15827:15940   */\n      iszero\n      tag_391\n      jumpi\n        /* \"#utility.yul\":15926:15927   */\n      dup1\n        /* \"#utility.yul\":15921:15924   */\n      dup3\n        /* \"#utility.yul\":15917:15928   */\n      add\n        /* \"#utility.yul\":15911:15929   */\n      mload\n        /* \"#utility.yul\":15907:15908   */\n      dup2\n        /* \"#utility.yul\":15902:15905   */\n      dup5\n        /* \"#utility.yul\":15898:15909   */\n      add\n        /* \"#utility.yul\":15891:15930   */\n      mstore\n        /* \"#utility.yul\":15863:15865   */\n      0x20\n        /* \"#utility.yul\":15860:15861   */\n      dup2\n        /* \"#utility.yul\":15856:15866   */\n      add\n        /* \"#utility.yul\":15851:15866   */\n      swap1\n      pop\n        /* \"#utility.yul\":15827:15940   */\n      jump(tag_389)\n    tag_391:\n        /* \"#utility.yul\":15958:15964   */\n      dup4\n        /* \"#utility.yul\":15955:15956   */\n      dup2\n        /* \"#utility.yul\":15952:15965   */\n      gt\n        /* \"#utility.yul\":15949:16050   */\n      iszero\n      tag_392\n      jumpi\n        /* \"#utility.yul\":16038:16039   */\n      0x00\n        /* \"#utility.yul\":16029:16035   */\n      dup5\n        /* \"#utility.yul\":16024:16027   */\n      dup5\n        /* \"#utility.yul\":16020:16036   */\n      add\n        /* \"#utility.yul\":16013:16040   */\n      mstore\n        /* \"#utility.yul\":15949:16050   */\n    tag_392:\n        /* \"#utility.yul\":15798:16056   */\n      pop\n        /* \"#utility.yul\":15749:16056   */\n      pop\n      pop\n      pop\n      jump\t// out\n        /* \"#utility.yul\":16062:16382   */\n    tag_65:\n        /* \"#utility.yul\":16106:16112   */\n      0x00\n        /* \"#utility.yul\":16143:16144   */\n      0x02\n        /* \"#utility.yul\":16137:16141   */\n      dup3\n        /* \"#utility.yul\":16133:16145   */\n      div\n        /* \"#utility.yul\":16123:16145   */\n      swap1\n      pop\n        /* \"#utility.yul\":16190:16191   */\n      0x01\n        /* \"#utility.yul\":16184:16188   */\n      dup3\n        /* \"#utility.yul\":16180:16192   */\n      and\n        /* \"#utility.yul\":16211:16229   */\n      dup1\n        /* \"#utility.yul\":16201:16282   */\n      tag_394\n      jumpi\n        /* \"#utility.yul\":16267:16271   */\n      0x7f\n        /* \"#utility.yul\":16259:16265   */\n      dup3\n        /* \"#utility.yul\":16255:16272   */\n      and\n        /* \"#utility.yul\":16245:16272   */\n      swap2\n      pop\n        /* \"#utility.yul\":16201:16282   */\n    tag_394:\n        /* \"#utility.yul\":16329:16331   */\n      0x20\n        /* \"#utility.yul\":16321:16327   */\n      dup3\n        /* \"#utility.yul\":16318:16332   */\n      lt\n        /* \"#utility.yul\":16298:16316   */\n      dup2\n        /* \"#utility.yul\":16295:16333   */\n      eq\n        /* \"#utility.yul\":16292:16376   */\n      iszero\n      tag_395\n      jumpi\n        /* \"#utility.yul\":16348:16366   */\n      tag_396\n      tag_397\n      jump\t// in\n    tag_396:\n        /* \"#utility.yul\":16292:16376   */\n    tag_395:\n        /* \"#utility.yul\":16113:16382   */\n      pop\n        /* \"#utility.yul\":16062:16382   */\n      swap2\n      swap1\n      pop\n      jump\t// out\n        /* \"#utility.yul\":16388:16669   */\n    tag_366:\n        /* \"#utility.yul\":16471:16498   */\n      tag_399\n        /* \"#utility.yul\":16493:16497   */\n      dup3\n        /* \"#utility.yul\":16471:16498   */\n      tag_267\n      jump\t// in\n    tag_399:\n        /* \"#utility.yul\":16463:16469   */\n      dup2\n        /* \"#utility.yul\":16459:16499   */\n      add\n        /* \"#utility.yul\":16601:16607   */\n      dup2\n        /* \"#utility.yul\":16589:16599   */\n      dup2\n        /* \"#utility.yul\":16586:16608   */\n      lt\n        /* \"#utility.yul\":16565:16583   */\n      0xffffffffffffffff\n        /* \"#utility.yul\":16553:16563   */\n      dup3\n        /* \"#utility.yul\":16550:16584   */\n      gt\n        /* \"#utility.yul\":16547:16609   */\n      or\n        /* \"#utility.yul\":16544:16632   */\n      iszero\n      tag_400\n      jumpi\n        /* \"#utility.yul\":16612:16630   */\n      tag_401\n      tag_371\n      jump\t// in\n    tag_401:\n        /* \"#utility.yul\":16544:16632   */\n    tag_400:\n        /* \"#utility.yul\":16652:16662   */\n      dup1\n        /* \"#utility.yul\":16648:16650   */\n      0x40\n        /* \"#utility.yul\":16641:16663   */\n      mstore\n        /* \"#utility.yul\":16431:16669   */\n      pop\n        /* \"#utility.yul\":16388:16669   */\n      pop\n      pop\n      jump\t// out\n        /* \"#utility.yul\":16675:16908   */\n    tag_95:\n        /* \"#utility.yul\":16714:16717   */\n      0x00\n        /* \"#utility.yul\":16737:16761   */\n      tag_403\n        /* \"#utility.yul\":16755:16760   */\n      dup3\n        /* \"#utility.yul\":16737:16761   */\n      tag_311\n      jump\t// in\n    tag_403:\n        /* \"#utility.yul\":16728:16761   */\n      swap2\n      pop\n        /* \"#utility.yul\":16783:16849   */\n      0xffffffffffffffffffffffffffffffffffffffffffffffffffffffffffffffff\n        /* \"#utility.yul\":16776:16781   */\n      dup3\n        /* \"#utility.yul\":16773:16850   */\n      eq\n        /* \"#utility.yul\":16770:16873   */\n      iszero\n      tag_404\n      jumpi\n        /* \"#utility.yul\":16853:16871   */\n      tag_405\n      tag_380\n      jump\t// in\n    tag_405:\n        /* \"#utility.yul\":16770:16873   */\n    tag_404:\n        /* \"#utility.yul\":16900:16901   */\n      0x01\n        /* \"#utility.yul\":16893:16898   */\n      dup3\n        /* \"#utility.yul\":16889:16902   */\n      add\n        /* \"#utility.yul\":16882:16902   */\n      swap1\n      pop\n        /* \"#utility.yul\":16675:16908   */\n      swap2\n      swap1\n      pop\n      jump\t// out\n        /* \"#utility.yul\":16914:17094   */\n    tag_380:\n        /* \"#utility.yul\":16962:17039   */\n      0x4e487b7100000000000000000000000000000000000000000000000000000000\n        /* \"#utility.yul\":16959:16960   */\n      0x00\n        /* \"#utility.yul\":16952:17040   */\n      mstore\n        /* \"#utility.yul\":17059:17063   */\n      0x11\n        /* \"#utility.yul\":17056:17057   */\n      0x04\n        /* \"#utility.yul\":17049:17064   */\n      mstore\n        /* \"#utility.yul\":17083:17087   */\n      0x24\n        /* \"#utility.yul\":17080:17081   */\n      0x00\n        /* \"#utility.yul\":17073:17088   */\n      revert\n        /* \"#utility.yul\":17100:17280   */\n    tag_397:\n        /* \"#utility.yul\":17148:17225   */\n      0x4e487b7100000000000000000000000000000000000000000000000000000000\n        /* \"#utility.yul\":17145:17146   */\n      0x00\n        /* \"#utility.yul\":17138:17226   */\n      mstore\n        /* \"#utility.yul\":17245:17249   */\n      0x22\n        /* \"#utility.yul\":17242:17243   */\n      0x04\n        /* \"#utility.yul\":17235:17250   */\n      mstore\n        /* \"#utility.yul\":17269:17273   */\n      0x24\n        /* \"#utility.yul\":17266:17267   */\n      0x00\n        /* \"#utility.yul\":17259:17274   */\n      revert\n        /* \"#utility.yul\":17286:17466   */\n    tag_371:\n        /* \"#utility.yul\":17334:17411   */\n      0x4e487b7100000000000000000000000000000000000000000000000000000000\n        /* \"#utility.yul\":17331:17332   */\n      0x00\n        /* \"#utility.yul\":17324:17412   */\n      mstore\n        /* \"#utility.yul\":17431:17435   */\n      0x41\n        /* \"#utility.yul\":17428:17429   */\n      0x04\n        /* \"#utility.yul\":17421:17436   */\n      mstore\n        /* \"#utility.yul\":17455:17459   */\n      0x24\n        /* \"#utility.yul\":17452:17453   */\n      0x00\n        /* \"#utility.yul\":17445:17460   */\n      revert\n        /* \"#utility.yul\":17472:17589   */\n    tag_227:\n        /* \"#utility.yul\":17581:17582   */\n      0x00\n        /* \"#utility.yul\":17578:17579   */\n      dup1\n        /* \"#utility.yul\":17571:17583   */\n      revert\n        /* \"#utility.yul\":17595:17712   */\n    tag_220:\n        /* \"#utility.yul\":17704:17705   */\n      0x00\n        /* \"#utility.yul\":17701:17702   */\n      dup1\n        /* \"#utility.yul\":17694:17706   */\n      revert\n        /* \"#utility.yul\":17718:17835   */\n    tag_239:\n        /* \"#utility.yul\":17827:17828   */\n      0x00\n        /* \"#utility.yul\":17824:17825   */\n      dup1\n        /* \"#utility.yul\":17817:17829   */\n      revert\n        /* \"#utility.yul\":17841:17958   */\n    tag_236:\n        /* \"#utility.yul\":17950:17951   */\n      0x00\n        /* \"#utility.yul\":17947:17948   */\n      dup1\n        /* \"#utility.yul\":17940:17952   */\n      revert\n        /* \"#utility.yul\":17964:18066   */\n    tag_267:\n        /* \"#utility.yul\":18005:18011   */\n      0x00\n        /* \"#utility.yul\":18056:18058   */\n      0x1f\n        /* \"#utility.yul\":18052:18059   */\n      not\n        /* \"#utility.yul\":18047:18049   */\n      0x1f\n        /* \"#utility.yul\":18040:18045   */\n      dup4\n        /* \"#utility.yul\":18036:18050   */\n      add\n        /* \"#utility.yul\":18032:18060   */\n      and\n        /* \"#utility.yul\":18022:18060   */\n      swap1\n      pop\n        /* \"#utility.yul\":17964:18066   */\n      swap2\n      swap1\n      pop\n      jump\t// out\n        /* \"#utility.yul\":18072:18245   */\n    tag_272:\n        /* \"#utility.yul\":18212:18237   */\n      0x41677265656d656e7420616c726561647920456e646564000000000000000000\n        /* \"#utility.yul\":18208:18209   */\n      0x00\n        /* \"#utility.yul\":18200:18206   */\n      dup3\n        /* \"#utility.yul\":18196:18210   */\n      add\n        /* \"#utility.yul\":18189:18238   */\n      mstore\n        /* \"#utility.yul\":18072:18245   */\n      pop\n      jump\t// out\n        /* \"#utility.yul\":18251:18428   */\n    tag_277:\n        /* \"#utility.yul\":18391:18420   */\n      0x526f6f6d2069732063757272656e746c79204f636375706965642e0000000000\n        /* \"#utility.yul\":18387:18388   */\n      0x00\n        /* \"#utility.yul\":18379:18385   */\n      dup3\n        /* \"#utility.yul\":18375:18389   */\n      add\n        /* \"#utility.yul\":18368:18421   */\n      mstore\n        /* \"#utility.yul\":18251:18428   */\n      pop\n      jump\t// out\n        /* \"#utility.yul\":18434:18613   */\n    tag_282:\n        /* \"#utility.yul\":18574:18605   */\n      0x4f6e6c79206c616e646c6f72642063616e206163636573732074686973000000\n        /* \"#utility.yul\":18570:18571   */\n      0x00\n        /* \"#utility.yul\":18562:18568   */\n      dup3\n        /* \"#utility.yul\":18558:18572   */\n      add\n        /* \"#utility.yul\":18551:18606   */\n      mstore\n        /* \"#utility.yul\":18434:18613   */\n      pop\n      jump\t// out\n        /* \"#utility.yul\":18619:18796   */\n    tag_287:\n        /* \"#utility.yul\":18759:18788   */\n      0x4f6e6c792054656e616e742063616e2061636365737320746869730000000000\n        /* \"#utility.yul\":18755:18756   */\n      0x00\n        /* \"#utility.yul\":18747:18753   */\n      dup3\n        /* \"#utility.yul\":18743:18757   */\n      add\n        /* \"#utility.yul\":18736:18789   */\n      mstore\n        /* \"#utility.yul\":18619:18796   */\n      pop\n      jump\t// out\n        /* \"#utility.yul\":18802:19036   */\n    tag_292:\n        /* \"#utility.yul\":18942:18976   */\n      0x4e6f2070726576696f75732061677265656d656e7420666f756e642077697468\n        /* \"#utility.yul\":18938:18939   */\n      0x00\n        /* \"#utility.yul\":18930:18936   */\n      dup3\n        /* \"#utility.yul\":18926:18940   */\n      add\n        /* \"#utility.yul\":18919:18977   */\n      mstore\n        /* \"#utility.yul\":19011:19028   */\n      0x20796f752026206c616e646c6f72640000000000000000000000000000000000\n        /* \"#utility.yul\":19006:19008   */\n      0x20\n        /* \"#utility.yul\":18998:19004   */\n      dup3\n        /* \"#utility.yul\":18994:19009   */\n      add\n        /* \"#utility.yul\":18987:19029   */\n      mstore\n        /* \"#utility.yul\":18802:19036   */\n      pop\n      jump\t// out\n        /* \"#utility.yul\":19042:19223   */\n    tag_297:\n        /* \"#utility.yul\":19182:19215   */\n      0x4e6f7420656e6f75676820457468657220696e20796f75722077616c6c657400\n        /* \"#utility.yul\":19178:19179   */\n      0x00\n        /* \"#utility.yul\":19170:19176   */\n      dup3\n        /* \"#utility.yul\":19166:19180   */\n      add\n        /* \"#utility.yul\":19159:19216   */\n      mstore\n        /* \"#utility.yul\":19042:19223   */\n      pop\n      jump\t// out\n        /* \"#utility.yul\":19229:19411   */\n    tag_302:\n        /* \"#utility.yul\":19369:19403   */\n      0x54696d65206973206c65667420666f7220636f6e747261637420746f20656e64\n        /* \"#utility.yul\":19365:19366   */\n      0x00\n        /* \"#utility.yul\":19357:19363   */\n      dup3\n        /* \"#utility.yul\":19353:19367   */\n      add\n        /* \"#utility.yul\":19346:19404   */\n      mstore\n        /* \"#utility.yul\":19229:19411   */\n      pop\n      jump\t// out\n        /* \"#utility.yul\":19417:19588   */\n    tag_307:\n        /* \"#utility.yul\":19557:19580   */\n      0x54696d65206c65667420746f207061792052656e740000000000000000000000\n        /* \"#utility.yul\":19553:19554   */\n      0x00\n        /* \"#utility.yul\":19545:19551   */\n      dup3\n        /* \"#utility.yul\":19541:19555   */\n      add\n        /* \"#utility.yul\":19534:19581   */\n      mstore\n        /* \"#utility.yul\":19417:19588   */\n      pop\n      jump\t// out\n        /* \"#utility.yul\":19594:19716   */\n    tag_232:\n        /* \"#utility.yul\":19667:19691   */\n      tag_423\n        /* \"#utility.yul\":19685:19690   */\n      dup2\n        /* \"#utility.yul\":19667:19691   */\n      tag_311\n      jump\t// in\n    tag_423:\n        /* \"#utility.yul\":19660:19665   */\n      dup2\n        /* \"#utility.yul\":19657:19692   */\n      eq\n        /* \"#utility.yul\":19647:19710   */\n      tag_424\n      jumpi\n        /* \"#utility.yul\":19706:19707   */\n      0x00\n        /* \"#utility.yul\":19703:19704   */\n      dup1\n        /* \"#utility.yul\":19696:19708   */\n      revert\n        /* \"#utility.yul\":19647:19710   */\n    tag_424:\n        /* \"#utility.yul\":19594:19716   */\n      pop\n      jump\t// out\n\n    auxdata: 0xa2646970667358221220b4201f74daf686047070f8355499909bfad1243ff4d7b3fe02065057bdeac7ef64736f6c63430008070033\n}\n",
				"bytecode": {
					"linkReferences": {},
					"object": "608060405260006002556000600355600060045534801561001f57600080fd5b506128348061002f6000396000f3fe60806040526004361061009c5760003560e01c80634f5e4428116100645780634f5e44281461019057806359e2cbec146101b957806363e475bd146101e457806375eb9ef61461020d578063d0d205b714610238578063d9e8843f1461027d5761009c565b806302bb2725146100a157806303742de0146100e757806316abb8a114610103578063249461e11461011f578063469595871461014a575b600080fd5b3480156100ad57600080fd5b506100c860048036038101906100c39190611f14565b610299565b6040516100de9a99989796959493929190612284565b60405180910390f35b61010160048036038101906100fc9190611f14565b61043d565b005b61011d60048036038101906101189190611f14565b610d88565b005b34801561012b57600080fd5b50610134611040565b60405161014191906121bf565b60405180910390f35b34801561015657600080fd5b50610171600480360381019061016c9190611f14565b611046565b6040516101879a999897969594939291906121da565b60405180910390f35b34801561019c57600080fd5b506101b760048036038101906101b29190611f14565b6111f7565b005b3480156101c557600080fd5b506101ce6113a6565b6040516101db91906121bf565b60405180910390f35b3480156101f057600080fd5b5061020b60048036038101906102069190611e75565b6113ac565b005b34801561021957600080fd5b506102226115b8565b60405161022f91906121bf565b60405180910390f35b34801561024457600080fd5b5061025f600480360381019061025a9190611f14565b6115be565b6040516102749998979695949392919061232e565b60405180910390f35b61029760048036038101906102929190611f14565b61175c565b005b60066020528060005260406000206000915090508060000154908060010154908060020180546102c89061251b565b80601f01602080910402602001604051908101604052809291908181526020018280546102f49061251b565b80156103415780601f1061031657610100808354040283529160200191610341565b820191906000526020600020905b81548152906001019060200180831161032457829003601f168201915b5050505050908060030180546103569061251b565b80601f01602080910402602001604051908101604052809291908181526020018280546103829061251b565b80156103cf5780601f106103a4576101008083540402835291602001916103cf565b820191906000526020600020905b8154815290600101906020018083116103b257829003601f168201915b5050505050908060040154908060050154908060060154908060070154908060080160009054906101000a900473ffffffffffffffffffffffffffffffffffffffff16908060090160009054906101000a900473ffffffffffffffffffffffffffffffffffffffff1690508a565b806005600082815260200190815260200160002060070160019054906101000a900473ffffffffffffffffffffffffffffffffffffffff1673ffffffffffffffffffffffffffffffffffffffff163373ffffffffffffffffffffffffffffffffffffffff1614156104e3576040517f08c379a00000000000000000000000000000000000000000000000000000000081526004016104da9061211f565b60405180910390fd5b816005600082815260200190815260200160002060050154600560008381526020019081526020016000206004015461051c919061243b565b34101561055e576040517f08c379a00000000000000000000000000000000000000000000000000000000081526004016105559061215f565b60405180910390fd5b82600115156005600083815260200190815260200160002060070160009054906101000a900460ff161515146105c9576040517f08c379a00000000000000000000000000000000000000000000000000000000081526004016105c0906120df565b60405180910390fd5b600073ffffffffffffffffffffffffffffffffffffffff163373ffffffffffffffffffffffffffffffffffffffff16141561060357600080fd5b60006005600086815260200190815260200160002060070160019054906101000a900473ffffffffffffffffffffffffffffffffffffffff169050600060056000878152602001908152602001600020600501546005600088815260200190815260200160002060040154610678919061243b565b90508173ffffffffffffffffffffffffffffffffffffffff166108fc829081150290604051600060405180830381858888f193505050501580156106c0573d6000803e3d6000fd5b50600360008154809291906106d49061257e565b9190505550336005600088815260200190815260200160002060080160006101000a81548173ffffffffffffffffffffffffffffffffffffffff021916908373ffffffffffffffffffffffffffffffffffffffff16021790555060006005600088815260200190815260200160002060070160006101000a81548160ff021916908315150217905550426005600088815260200190815260200160002060060181905550600354600560008881526020019081526020016000206001018190555060405180610140016040528087815260200160035481526020016005600089815260200190815260200160002060020180546107d09061251b565b80601f01602080910402602001604051908101604052809291908181526020018280546107fc9061251b565b80156108495780601f1061081e57610100808354040283529160200191610849565b820191906000526020600020905b81548152906001019060200180831161082c57829003601f168201915b505050505081526020016005600089815260200190815260200160002060030180546108749061251b565b80601f01602080910402602001604051908101604052809291908181526020018280546108a09061251b565b80156108ed5780601f106108c2576101008083540402835291602001916108ed565b820191906000526020600020905b8154815290600101906020018083116108d057829003601f168201915b5050505050815260200160056000898152602001908152602001600020600401548152602001600560008981526020019081526020016000206005015481526020016301e1338081526020014281526020013373ffffffffffffffffffffffffffffffffffffffff1681526020018373ffffffffffffffffffffffffffffffffffffffff16815250600660006003548152602001908152602001600020600082015181600001556020820151816001015560408201518160020190805190602001906109ba929190611d4d565b5060608201518160030190805190602001906109d7929190611d4d565b506080820151816004015560a0820151816005015560c0820151816006015560e082015181600701556101008201518160080160006101000a81548173ffffffffffffffffffffffffffffffffffffffff021916908373ffffffffffffffffffffffffffffffffffffffff1602179055506101208201518160090160006101000a81548173ffffffffffffffffffffffffffffffffffffffff021916908373ffffffffffffffffffffffffffffffffffffffff16021790555090505060046000815480929190610aa69061257e565b919050555060405180610120016040528060045481526020018781526020016003548152602001600560008981526020019081526020016000206002018054610aee9061251b565b80601f0160208091040260200160405190810160405280929190818152602001828054610b1a9061251b565b8015610b675780601f10610b3c57610100808354040283529160200191610b67565b820191906000526020600020905b815481529060010190602001808311610b4a57829003601f168201915b50505050508152602001600560008981526020019081526020016000206003018054610b929061251b565b80601f0160208091040260200160405190810160405280929190818152602001828054610bbe9061251b565b8015610c0b5780601f10610be057610100808354040283529160200191610c0b565b820191906000526020600020905b815481529060010190602001808311610bee57829003601f168201915b50505050508152602001600560008981526020019081526020016000206004015481526020014281526020013373ffffffffffffffffffffffffffffffffffffffff1681526020018373ffffffffffffffffffffffffffffffffffffffff168152506007600060045481526020019081526020016000206000820151816000015560208201518160010155604082015181600201556060820151816003019080519060200190610cbc929190611d4d565b506080820151816004019080519060200190610cd9929190611d4d565b5060a0820151816005015560c0820151816006015560e08201518160070160006101000a81548173ffffffffffffffffffffffffffffffffffffffff021916908373ffffffffffffffffffffffffffffffffffffffff1602179055506101008201518160080160006101000a81548173ffffffffffffffffffffffffffffffffffffffff021916908373ffffffffffffffffffffffffffffffffffffffff160217905550905050505050505050565b806005600082815260200190815260200160002060070160019054906101000a900473ffffffffffffffffffffffffffffffffffffffff1673ffffffffffffffffffffffffffffffffffffffff163373ffffffffffffffffffffffffffffffffffffffff1614610e2d576040517f08c379a0000000000000000000000000000000000000000000000000000000008152600401610e24906120ff565b60405180910390fd5b81600060056000838152602001908152602001600020600101549050600060066000838152602001908152602001600020600601546006600084815260200190815260200160002060070154610e83919061243b565b9050804211610ec7576040517f08c379a0000000000000000000000000000000000000000000000000000000008152600401610ebe9061217f565b60405180910390fd5b600073ffffffffffffffffffffffffffffffffffffffff163373ffffffffffffffffffffffffffffffffffffffff161415610f0157600080fd5b600015156005600087815260200190815260200160002060070160009054906101000a900460ff16151514610f6b576040517f08c379a0000000000000000000000000000000000000000000000000000000008152600401610f62906120df565b60405180910390fd5b60016005600087815260200190815260200160002060070160006101000a81548160ff02191690831515021790555060006005600087815260200190815260200160002060080160009054906101000a900473ffffffffffffffffffffffffffffffffffffffff1690506000600560008881526020019081526020016000206005015490508173ffffffffffffffffffffffffffffffffffffffff166108fc829081150290604051600060405180830381858888f19350505050158015611036573d6000803e3d6000fd5b5050505050505050565b60035481565b60056020528060005260406000206000915090508060000154908060010154908060020180546110759061251b565b80601f01602080910402602001604051908101604052809291908181526020018280546110a19061251b565b80156110ee5780601f106110c3576101008083540402835291602001916110ee565b820191906000526020600020905b8154815290600101906020018083116110d157829003601f168201915b5050505050908060030180546111039061251b565b80601f016020809104026020016040519081016040528092919081815260200182805461112f9061251b565b801561117c5780601f106111515761010080835404028352916020019161117c565b820191906000526020600020905b81548152906001019060200180831161115f57829003601f168201915b5050505050908060040154908060050154908060060154908060070160009054906101000a900460ff16908060070160019054906101000a900473ffffffffffffffffffffffffffffffffffffffff16908060080160009054906101000a900473ffffffffffffffffffffffffffffffffffffffff1690508a565b806005600082815260200190815260200160002060070160019054906101000a900473ffffffffffffffffffffffffffffffffffffffff1673ffffffffffffffffffffffffffffffffffffffff163373ffffffffffffffffffffffffffffffffffffffff161461129c576040517f08c379a0000000000000000000000000000000000000000000000000000000008152600401611293906120ff565b60405180910390fd5b816000600560008381526020019081526020016000206001015490506000600660008381526020019081526020016000206006015460066000848152602001908152602001600020600701546112f2919061243b565b9050804210611336576040517f08c379a000000000000000000000000000000000000000000000000000000000815260040161132d906120bf565b60405180910390fd5b600073ffffffffffffffffffffffffffffffffffffffff163373ffffffffffffffffffffffffffffffffffffffff16141561137057600080fd5b60016005600087815260200190815260200160002060070160006101000a81548160ff0219169083151502179055505050505050565b60025481565b600073ffffffffffffffffffffffffffffffffffffffff163373ffffffffffffffffffffffffffffffffffffffff1614156113e657600080fd5b600260008154809291906113f99061257e565b91905055506000600190506040518061014001604052806002548152602001600081526020018681526020018581526020018481526020018381526020016000815260200182151581526020013373ffffffffffffffffffffffffffffffffffffffff168152602001600073ffffffffffffffffffffffffffffffffffffffff16815250600560006002548152602001908152602001600020600082015181600001556020820151816001015560408201518160020190805190602001906114c2929190611d4d565b5060608201518160030190805190602001906114df929190611d4d565b506080820151816004015560a0820151816005015560c0820151816006015560e08201518160070160006101000a81548160ff0219169083151502179055506101008201518160070160016101000a81548173ffffffffffffffffffffffffffffffffffffffff021916908373ffffffffffffffffffffffffffffffffffffffff1602179055506101208201518160080160006101000a81548173ffffffffffffffffffffffffffffffffffffffff021916908373ffffffffffffffffffffffffffffffffffffffff1602179055509050505050505050565b60045481565b60076020528060005260406000206000915090508060000154908060010154908060020154908060030180546115f39061251b565b80601f016020809104026020016040519081016040528092919081815260200182805461161f9061251b565b801561166c5780601f106116415761010080835404028352916020019161166c565b820191906000526020600020905b81548152906001019060200180831161164f57829003601f168201915b5050505050908060040180546116819061251b565b80601f01602080910402602001604051908101604052809291908181526020018280546116ad9061251b565b80156116fa5780601f106116cf576101008083540402835291602001916116fa565b820191906000526020600020905b8154815290600101906020018083116116dd57829003601f168201915b5050505050908060050154908060060154908060070160009054906101000a900473ffffffffffffffffffffffffffffffffffffffff16908060080160009054906101000a900473ffffffffffffffffffffffffffffffffffffffff16905089565b806005600082815260200190815260200160002060080160009054906101000a900473ffffffffffffffffffffffffffffffffffffffff1673ffffffffffffffffffffffffffffffffffffffff163373ffffffffffffffffffffffffffffffffffffffff1614611801576040517f08c379a00000000000000000000000000000000000000000000000000000000081526004016117f89061213f565b60405180910390fd5b81600062278d006005600084815260200190815260200160002060060154611829919061243b565b90508042101561186e576040517f08c379a00000000000000000000000000000000000000000000000000000000081526004016118659061219f565b60405180910390fd5b8360056000828152602001908152602001600020600401543410156118c8576040517f08c379a00000000000000000000000000000000000000000000000000000000081526004016118bf9061215f565b60405180910390fd5b600073ffffffffffffffffffffffffffffffffffffffff163373ffffffffffffffffffffffffffffffffffffffff16141561190257600080fd5b60006005600087815260200190815260200160002060070160019054906101000a900473ffffffffffffffffffffffffffffffffffffffff1690506000600560008881526020019081526020016000206004015490508173ffffffffffffffffffffffffffffffffffffffff166108fc829081150290604051600060405180830381858888f1935050505015801561199e573d6000803e3d6000fd5b50336005600089815260200190815260200160002060080160006101000a81548173ffffffffffffffffffffffffffffffffffffffff021916908373ffffffffffffffffffffffffffffffffffffffff16021790555060006005600089815260200190815260200160002060070160006101000a81548160ff02191690831515021790555060046000815480929190611a369061257e565b91905055506040518061012001604052806004548152602001888152602001600560008a8152602001908152602001600020600101548152602001600560008a81526020019081526020016000206002018054611a929061251b565b80601f0160208091040260200160405190810160405280929190818152602001828054611abe9061251b565b8015611b0b5780601f10611ae057610100808354040283529160200191611b0b565b820191906000526020600020905b815481529060010190602001808311611aee57829003601f168201915b50505050508152602001600560008a81526020019081526020016000206003018054611b369061251b565b80601f0160208091040260200160405190810160405280929190818152602001828054611b629061251b565b8015611baf5780601f10611b8457610100808354040283529160200191611baf565b820191906000526020600020905b815481529060010190602001808311611b9257829003601f168201915b505050505081526020018281526020014281526020013373ffffffffffffffffffffffffffffffffffffffff168152602001600560008a815260200190815260200160002060070160019054906101000a900473ffffffffffffffffffffffffffffffffffffffff1673ffffffffffffffffffffffffffffffffffffffff168152506007600060045481526020019081526020016000206000820151816000015560208201518160010155604082015181600201556060820151816003019080519060200190611c80929190611d4d565b506080820151816004019080519060200190611c9d929190611d4d565b5060a0820151816005015560c0820151816006015560e08201518160070160006101000a81548173ffffffffffffffffffffffffffffffffffffffff021916908373ffffffffffffffffffffffffffffffffffffffff1602179055506101008201518160080160006101000a81548173ffffffffffffffffffffffffffffffffffffffff021916908373ffffffffffffffffffffffffffffffffffffffff16021790555090505050505050505050565b828054611d599061251b565b90600052602060002090601f016020900481019282611d7b5760008555611dc2565b82601f10611d9457805160ff1916838001178555611dc2565b82800160010185558215611dc2579182015b82811115611dc1578251825591602001919060010190611da6565b5b509050611dcf9190611dd3565b5090565b5b80821115611dec576000816000905550600101611dd4565b5090565b6000611e03611dfe846123ee565b6123c9565b905082815260208101848484011115611e1f57611e1e612659565b5b611e2a8482856124d9565b509392505050565b600082601f830112611e4757611e46612654565b5b8135611e57848260208601611df0565b91505092915050565b600081359050611e6f816127e7565b92915050565b60008060008060808587031215611e8f57611e8e612663565b5b600085013567ffffffffffffffff811115611ead57611eac61265e565b5b611eb987828801611e32565b945050602085013567ffffffffffffffff811115611eda57611ed961265e565b5b611ee687828801611e32565b9350506040611ef787828801611e60565b9250506060611f0887828801611e60565b91505092959194509250565b600060208284031215611f2a57611f29612663565b5b6000611f3884828501611e60565b91505092915050565b611f4a81612491565b82525050565b611f59816124a3565b82525050565b6000611f6a8261241f565b611f74818561242a565b9350611f848185602086016124e8565b611f8d81612668565b840191505092915050565b6000611fa560178361242a565b9150611fb082612679565b602082019050919050565b6000611fc8601b8361242a565b9150611fd3826126a2565b602082019050919050565b6000611feb601d8361242a565b9150611ff6826126cb565b602082019050919050565b600061200e601b8361242a565b9150612019826126f4565b602082019050919050565b6000612031602f8361242a565b915061203c8261271d565b604082019050919050565b6000612054601f8361242a565b915061205f8261276c565b602082019050919050565b600061207760208361242a565b915061208282612795565b602082019050919050565b600061209a60158361242a565b91506120a5826127be565b602082019050919050565b6120b9816124cf565b82525050565b600060208201905081810360008301526120d881611f98565b9050919050565b600060208201905081810360008301526120f881611fbb565b9050919050565b6000602082019050818103600083015261211881611fde565b9050919050565b6000602082019050818103600083015261213881612001565b9050919050565b6000602082019050818103600083015261215881612024565b9050919050565b6000602082019050818103600083015261217881612047565b9050919050565b600060208201905081810360008301526121988161206a565b9050919050565b600060208201905081810360008301526121b88161208d565b9050919050565b60006020820190506121d460008301846120b0565b92915050565b6000610140820190506121f0600083018d6120b0565b6121fd602083018c6120b0565b818103604083015261220f818b611f5f565b90508181036060830152612223818a611f5f565b905061223260808301896120b0565b61223f60a08301886120b0565b61224c60c08301876120b0565b61225960e0830186611f50565b612267610100830185611f41565b612275610120830184611f41565b9b9a5050505050505050505050565b60006101408201905061229a600083018d6120b0565b6122a7602083018c6120b0565b81810360408301526122b9818b611f5f565b905081810360608301526122cd818a611f5f565b90506122dc60808301896120b0565b6122e960a08301886120b0565b6122f660c08301876120b0565b61230360e08301866120b0565b612311610100830185611f41565b61231f610120830184611f41565b9b9a5050505050505050505050565b600061012082019050612344600083018c6120b0565b612351602083018b6120b0565b61235e604083018a6120b0565b81810360608301526123708189611f5f565b905081810360808301526123848188611f5f565b905061239360a08301876120b0565b6123a060c08301866120b0565b6123ad60e0830185611f41565b6123bb610100830184611f41565b9a9950505050505050505050565b60006123d36123e4565b90506123df828261254d565b919050565b6000604051905090565b600067ffffffffffffffff82111561240957612408612625565b5b61241282612668565b9050602081019050919050565b600081519050919050565b600082825260208201905092915050565b6000612446826124cf565b9150612451836124cf565b9250827fffffffffffffffffffffffffffffffffffffffffffffffffffffffffffffffff03821115612486576124856125c7565b5b828201905092915050565b600061249c826124af565b9050919050565b60008115159050919050565b600073ffffffffffffffffffffffffffffffffffffffff82169050919050565b6000819050919050565b82818337600083830152505050565b60005b838110156125065780820151818401526020810190506124eb565b83811115612515576000848401525b50505050565b6000600282049050600182168061253357607f821691505b60208210811415612547576125466125f6565b5b50919050565b61255682612668565b810181811067ffffffffffffffff8211171561257557612574612625565b5b80604052505050565b6000612589826124cf565b91507fffffffffffffffffffffffffffffffffffffffffffffffffffffffffffffffff8214156125bc576125bb6125c7565b5b600182019050919050565b7f4e487b7100000000000000000000000000000000000000000000000000000000600052601160045260246000fd5b7f4e487b7100000000000000000000000000000000000000000000000000000000600052602260045260246000fd5b7f4e487b7100000000000000000000000000000000000000000000000000000000600052604160045260246000fd5b600080fd5b600080fd5b600080fd5b600080fd5b6000601f19601f8301169050919050565b7f41677265656d656e7420616c726561647920456e646564000000000000000000600082015250565b7f526f6f6d2069732063757272656e746c79204f636375706965642e0000000000600082015250565b7f4f6e6c79206c616e646c6f72642063616e206163636573732074686973000000600082015250565b7f4f6e6c792054656e616e742063616e2061636365737320746869730000000000600082015250565b7f4e6f2070726576696f75732061677265656d656e7420666f756e64207769746860008201527f20796f752026206c616e646c6f72640000000000000000000000000000000000602082015250565b7f4e6f7420656e6f75676820457468657220696e20796f75722077616c6c657400600082015250565b7f54696d65206973206c65667420666f7220636f6e747261637420746f20656e64600082015250565b7f54696d65206c65667420746f207061792052656e740000000000000000000000600082015250565b6127f0816124cf565b81146127fb57600080fd5b5056fea2646970667358221220b4201f74daf686047070f8355499909bfad1243ff4d7b3fe02065057bdeac7ef64736f6c63430008070033",
					"opcodes": "PUSH1 0x80 PUSH1 0x40 MSTORE PUSH1 0x0 PUSH1 0x2 SSTORE PUSH1 0x0 PUSH1 0x3 SSTORE PUSH1 0x0 PUSH1 0x4 SSTORE CALLVALUE DUP1 ISZERO PUSH2 0x1F JUMPI PUSH1 0x0 DUP1 REVERT JUMPDEST POP PUSH2 0x2834 DUP1 PUSH2 0x2F PUSH1 0x0 CODECOPY PUSH1 0x0 RETURN INVALID PUSH1 0x80 PUSH1 0x40 MSTORE PUSH1 0x4 CALLDATASIZE LT PUSH2 0x9C JUMPI PUSH1 0x0 CALLDATALOAD PUSH1 0xE0 SHR DUP1 PUSH4 0x4F5E4428 GT PUSH2 0x64 JUMPI DUP1 PUSH4 0x4F5E4428 EQ PUSH2 0x190 JUMPI DUP1 PUSH4 0x59E2CBEC EQ PUSH2 0x1B9 JUMPI DUP1 PUSH4 0x63E475BD EQ PUSH2 0x1E4 JUMPI DUP1 PUSH4 0x75EB9EF6 EQ PUSH2 0x20D JUMPI DUP1 PUSH4 0xD0D205B7 EQ PUSH2 0x238 JUMPI DUP1 PUSH4 0xD9E8843F EQ PUSH2 0x27D JUMPI PUSH2 0x9C JUMP JUMPDEST DUP1 PUSH4 0x2BB2725 EQ PUSH2 0xA1 JUMPI DUP1 PUSH4 0x3742DE0 EQ PUSH2 0xE7 JUMPI DUP1 PUSH4 0x16ABB8A1 EQ PUSH2 0x103 JUMPI DUP1 PUSH4 0x249461E1 EQ PUSH2 0x11F JUMPI DUP1 PUSH4 0x46959587 EQ PUSH2 0x14A JUMPI JUMPDEST PUSH1 0x0 DUP1 REVERT JUMPDEST CALLVALUE DUP1 ISZERO PUSH2 0xAD JUMPI PUSH1 0x0 DUP1 REVERT JUMPDEST POP PUSH2 0xC8 PUSH1 0x4 DUP1 CALLDATASIZE SUB DUP2 ADD SWAP1 PUSH2 0xC3 SWAP2 SWAP1 PUSH2 0x1F14 JUMP JUMPDEST PUSH2 0x299 JUMP JUMPDEST PUSH1 0x40 MLOAD PUSH2 0xDE SWAP11 SWAP10 SWAP9 SWAP8 SWAP7 SWAP6 SWAP5 SWAP4 SWAP3 SWAP2 SWAP1 PUSH2 0x2284 JUMP JUMPDEST PUSH1 0x40 MLOAD DUP1 SWAP2 SUB SWAP1 RETURN JUMPDEST PUSH2 0x101 PUSH1 0x4 DUP1 CALLDATASIZE SUB DUP2 ADD SWAP1 PUSH2 0xFC SWAP2 SWAP1 PUSH2 0x1F14 JUMP JUMPDEST PUSH2 0x43D JUMP JUMPDEST STOP JUMPDEST PUSH2 0x11D PUSH1 0x4 DUP1 CALLDATASIZE SUB DUP2 ADD SWAP1 PUSH2 0x118 SWAP2 SWAP1 PUSH2 0x1F14 JUMP JUMPDEST PUSH2 0xD88 JUMP JUMPDEST STOP JUMPDEST CALLVALUE DUP1 ISZERO PUSH2 0x12B JUMPI PUSH1 0x0 DUP1 REVERT JUMPDEST POP PUSH2 0x134 PUSH2 0x1040 JUMP JUMPDEST PUSH1 0x40 MLOAD PUSH2 0x141 SWAP2 SWAP1 PUSH2 0x21BF JUMP JUMPDEST PUSH1 0x40 MLOAD DUP1 SWAP2 SUB SWAP1 RETURN JUMPDEST CALLVALUE DUP1 ISZERO PUSH2 0x156 JUMPI PUSH1 0x0 DUP1 REVERT JUMPDEST POP PUSH2 0x171 PUSH1 0x4 DUP1 CALLDATASIZE SUB DUP2 ADD SWAP1 PUSH2 0x16C SWAP2 SWAP1 PUSH2 0x1F14 JUMP JUMPDEST PUSH2 0x1046 JUMP JUMPDEST PUSH1 0x40 MLOAD PUSH2 0x187 SWAP11 SWAP10 SWAP9 SWAP8 SWAP7 SWAP6 SWAP5 SWAP4 SWAP3 SWAP2 SWAP1 PUSH2 0x21DA JUMP JUMPDEST PUSH1 0x40 MLOAD DUP1 SWAP2 SUB SWAP1 RETURN JUMPDEST CALLVALUE DUP1 ISZERO PUSH2 0x19C JUMPI PUSH1 0x0 DUP1 REVERT JUMPDEST POP PUSH2 0x1B7 PUSH1 0x4 DUP1 CALLDATASIZE SUB DUP2 ADD SWAP1 PUSH2 0x1B2 SWAP2 SWAP1 PUSH2 0x1F14 JUMP JUMPDEST PUSH2 0x11F7 JUMP JUMPDEST STOP JUMPDEST CALLVALUE DUP1 ISZERO PUSH2 0x1C5 JUMPI PUSH1 0x0 DUP1 REVERT JUMPDEST POP PUSH2 0x1CE PUSH2 0x13A6 JUMP JUMPDEST PUSH1 0x40 MLOAD PUSH2 0x1DB SWAP2 SWAP1 PUSH2 0x21BF JUMP JUMPDEST PUSH1 0x40 MLOAD DUP1 SWAP2 SUB SWAP1 RETURN JUMPDEST CALLVALUE DUP1 ISZERO PUSH2 0x1F0 JUMPI PUSH1 0x0 DUP1 REVERT JUMPDEST POP PUSH2 0x20B PUSH1 0x4 DUP1 CALLDATASIZE SUB DUP2 ADD SWAP1 PUSH2 0x206 SWAP2 SWAP1 PUSH2 0x1E75 JUMP JUMPDEST PUSH2 0x13AC JUMP JUMPDEST STOP JUMPDEST CALLVALUE DUP1 ISZERO PUSH2 0x219 JUMPI PUSH1 0x0 DUP1 REVERT JUMPDEST POP PUSH2 0x222 PUSH2 0x15B8 JUMP JUMPDEST PUSH1 0x40 MLOAD PUSH2 0x22F SWAP2 SWAP1 PUSH2 0x21BF JUMP JUMPDEST PUSH1 0x40 MLOAD DUP1 SWAP2 SUB SWAP1 RETURN JUMPDEST CALLVALUE DUP1 ISZERO PUSH2 0x244 JUMPI PUSH1 0x0 DUP1 REVERT JUMPDEST POP PUSH2 0x25F PUSH1 0x4 DUP1 CALLDATASIZE SUB DUP2 ADD SWAP1 PUSH2 0x25A SWAP2 SWAP1 PUSH2 0x1F14 JUMP JUMPDEST PUSH2 0x15BE JUMP JUMPDEST PUSH1 0x40 MLOAD PUSH2 0x274 SWAP10 SWAP9 SWAP8 SWAP7 SWAP6 SWAP5 SWAP4 SWAP3 SWAP2 SWAP1 PUSH2 0x232E JUMP JUMPDEST PUSH1 0x40 MLOAD DUP1 SWAP2 SUB SWAP1 RETURN JUMPDEST PUSH2 0x297 PUSH1 0x4 DUP1 CALLDATASIZE SUB DUP2 ADD SWAP1 PUSH2 0x292 SWAP2 SWAP1 PUSH2 0x1F14 JUMP JUMPDEST PUSH2 0x175C JUMP JUMPDEST STOP JUMPDEST PUSH1 0x6 PUSH1 0x20 MSTORE DUP1 PUSH1 0x0 MSTORE PUSH1 0x40 PUSH1 0x0 KECCAK256 PUSH1 0x0 SWAP2 POP SWAP1 POP DUP1 PUSH1 0x0 ADD SLOAD SWAP1 DUP1 PUSH1 0x1 ADD SLOAD SWAP1 DUP1 PUSH1 0x2 ADD DUP1 SLOAD PUSH2 0x2C8 SWAP1 PUSH2 0x251B JUMP JUMPDEST DUP1 PUSH1 0x1F ADD PUSH1 0x20 DUP1 SWAP2 DIV MUL PUSH1 0x20 ADD PUSH1 0x40 MLOAD SWAP1 DUP2 ADD PUSH1 0x40 MSTORE DUP1 SWAP3 SWAP2 SWAP1 DUP2 DUP2 MSTORE PUSH1 0x20 ADD DUP3 DUP1 SLOAD PUSH2 0x2F4 SWAP1 PUSH2 0x251B JUMP JUMPDEST DUP1 ISZERO PUSH2 0x341 JUMPI DUP1 PUSH1 0x1F LT PUSH2 0x316 JUMPI PUSH2 0x100 DUP1 DUP4 SLOAD DIV MUL DUP4 MSTORE SWAP2 PUSH1 0x20 ADD SWAP2 PUSH2 0x341 JUMP JUMPDEST DUP3 ADD SWAP2 SWAP1 PUSH1 0x0 MSTORE PUSH1 0x20 PUSH1 0x0 KECCAK256 SWAP1 JUMPDEST DUP2 SLOAD DUP2 MSTORE SWAP1 PUSH1 0x1 ADD SWAP1 PUSH1 0x20 ADD DUP1 DUP4 GT PUSH2 0x324 JUMPI DUP3 SWAP1 SUB PUSH1 0x1F AND DUP3 ADD SWAP2 JUMPDEST POP POP POP POP POP SWAP1 DUP1 PUSH1 0x3 ADD DUP1 SLOAD PUSH2 0x356 SWAP1 PUSH2 0x251B JUMP JUMPDEST DUP1 PUSH1 0x1F ADD PUSH1 0x20 DUP1 SWAP2 DIV MUL PUSH1 0x20 ADD PUSH1 0x40 MLOAD SWAP1 DUP2 ADD PUSH1 0x40 MSTORE DUP1 SWAP3 SWAP2 SWAP1 DUP2 DUP2 MSTORE PUSH1 0x20 ADD DUP3 DUP1 SLOAD PUSH2 0x382 SWAP1 PUSH2 0x251B JUMP JUMPDEST DUP1 ISZERO PUSH2 0x3CF JUMPI DUP1 PUSH1 0x1F LT PUSH2 0x3A4 JUMPI PUSH2 0x100 DUP1 DUP4 SLOAD DIV MUL DUP4 MSTORE SWAP2 PUSH1 0x20 ADD SWAP2 PUSH2 0x3CF JUMP JUMPDEST DUP3 ADD SWAP2 SWAP1 PUSH1 0x0 MSTORE PUSH1 0x20 PUSH1 0x0 KECCAK256 SWAP1 JUMPDEST DUP2 SLOAD DUP2 MSTORE SWAP1 PUSH1 0x1 ADD SWAP1 PUSH1 0x20 ADD DUP1 DUP4 GT PUSH2 0x3B2 JUMPI DUP3 SWAP1 SUB PUSH1 0x1F AND DUP3 ADD SWAP2 JUMPDEST POP POP POP POP POP SWAP1 DUP1 PUSH1 0x4 ADD SLOAD SWAP1 DUP1 PUSH1 0x5 ADD SLOAD SWAP1 DUP1 PUSH1 0x6 ADD SLOAD SWAP1 DUP1 PUSH1 0x7 ADD SLOAD SWAP1 DUP1 PUSH1 0x8 ADD PUSH1 0x0 SWAP1 SLOAD SWAP1 PUSH2 0x100 EXP SWAP1 DIV PUSH20 0xFFFFFFFFFFFFFFFFFFFFFFFFFFFFFFFFFFFFFFFF AND SWAP1 DUP1 PUSH1 0x9 ADD PUSH1 0x0 SWAP1 SLOAD SWAP1 PUSH2 0x100 EXP SWAP1 DIV PUSH20 0xFFFFFFFFFFFFFFFFFFFFFFFFFFFFFFFFFFFFFFFF AND SWAP1 POP DUP11 JUMP JUMPDEST DUP1 PUSH1 0x5 PUSH1 0x0 DUP3 DUP2 MSTORE PUSH1 0x20 ADD SWAP1 DUP2 MSTORE PUSH1 0x20 ADD PUSH1 0x0 KECCAK256 PUSH1 0x7 ADD PUSH1 0x1 SWAP1 SLOAD SWAP1 PUSH2 0x100 EXP SWAP1 DIV PUSH20 0xFFFFFFFFFFFFFFFFFFFFFFFFFFFFFFFFFFFFFFFF AND PUSH20 0xFFFFFFFFFFFFFFFFFFFFFFFFFFFFFFFFFFFFFFFF AND CALLER PUSH20 0xFFFFFFFFFFFFFFFFFFFFFFFFFFFFFFFFFFFFFFFF AND EQ ISZERO PUSH2 0x4E3 JUMPI PUSH1 0x40 MLOAD PUSH32 0x8C379A000000000000000000000000000000000000000000000000000000000 DUP2 MSTORE PUSH1 0x4 ADD PUSH2 0x4DA SWAP1 PUSH2 0x211F JUMP JUMPDEST PUSH1 0x40 MLOAD DUP1 SWAP2 SUB SWAP1 REVERT JUMPDEST DUP2 PUSH1 0x5 PUSH1 0x0 DUP3 DUP2 MSTORE PUSH1 0x20 ADD SWAP1 DUP2 MSTORE PUSH1 0x20 ADD PUSH1 0x0 KECCAK256 PUSH1 0x5 ADD SLOAD PUSH1 0x5 PUSH1 0x0 DUP4 DUP2 MSTORE PUSH1 0x20 ADD SWAP1 DUP2 MSTORE PUSH1 0x20 ADD PUSH1 0x0 KECCAK256 PUSH1 0x4 ADD SLOAD PUSH2 0x51C SWAP2 SWAP1 PUSH2 0x243B JUMP JUMPDEST CALLVALUE LT ISZERO PUSH2 0x55E JUMPI PUSH1 0x40 MLOAD PUSH32 0x8C379A000000000000000000000000000000000000000000000000000000000 DUP2 MSTORE PUSH1 0x4 ADD PUSH2 0x555 SWAP1 PUSH2 0x215F JUMP JUMPDEST PUSH1 0x40 MLOAD DUP1 SWAP2 SUB SWAP1 REVERT JUMPDEST DUP3 PUSH1 0x1 ISZERO ISZERO PUSH1 0x5 PUSH1 0x0 DUP4 DUP2 MSTORE PUSH1 0x20 ADD SWAP1 DUP2 MSTORE PUSH1 0x20 ADD PUSH1 0x0 KECCAK256 PUSH1 0x7 ADD PUSH1 0x0 SWAP1 SLOAD SWAP1 PUSH2 0x100 EXP SWAP1 DIV PUSH1 0xFF AND ISZERO ISZERO EQ PUSH2 0x5C9 JUMPI PUSH1 0x40 MLOAD PUSH32 0x8C379A000000000000000000000000000000000000000000000000000000000 DUP2 MSTORE PUSH1 0x4 ADD PUSH2 0x5C0 SWAP1 PUSH2 0x20DF JUMP JUMPDEST PUSH1 0x40 MLOAD DUP1 SWAP2 SUB SWAP1 REVERT JUMPDEST PUSH1 0x0 PUSH20 0xFFFFFFFFFFFFFFFFFFFFFFFFFFFFFFFFFFFFFFFF AND CALLER PUSH20 0xFFFFFFFFFFFFFFFFFFFFFFFFFFFFFFFFFFFFFFFF AND EQ ISZERO PUSH2 0x603 JUMPI PUSH1 0x0 DUP1 REVERT JUMPDEST PUSH1 0x0 PUSH1 0x5 PUSH1 0x0 DUP7 DUP2 MSTORE PUSH1 0x20 ADD SWAP1 DUP2 MSTORE PUSH1 0x20 ADD PUSH1 0x0 KECCAK256 PUSH1 0x7 ADD PUSH1 0x1 SWAP1 SLOAD SWAP1 PUSH2 0x100 EXP SWAP1 DIV PUSH20 0xFFFFFFFFFFFFFFFFFFFFFFFFFFFFFFFFFFFFFFFF AND SWAP1 POP PUSH1 0x0 PUSH1 0x5 PUSH1 0x0 DUP8 DUP2 MSTORE PUSH1 0x20 ADD SWAP1 DUP2 MSTORE PUSH1 0x20 ADD PUSH1 0x0 KECCAK256 PUSH1 0x5 ADD SLOAD PUSH1 0x5 PUSH1 0x0 DUP9 DUP2 MSTORE PUSH1 0x20 ADD SWAP1 DUP2 MSTORE PUSH1 0x20 ADD PUSH1 0x0 KECCAK256 PUSH1 0x4 ADD SLOAD PUSH2 0x678 SWAP2 SWAP1 PUSH2 0x243B JUMP JUMPDEST SWAP1 POP DUP2 PUSH20 0xFFFFFFFFFFFFFFFFFFFFFFFFFFFFFFFFFFFFFFFF AND PUSH2 0x8FC DUP3 SWAP1 DUP2 ISZERO MUL SWAP1 PUSH1 0x40 MLOAD PUSH1 0x0 PUSH1 0x40 MLOAD DUP1 DUP4 SUB DUP2 DUP6 DUP9 DUP9 CALL SWAP4 POP POP POP POP ISZERO DUP1 ISZERO PUSH2 0x6C0 JUMPI RETURNDATASIZE PUSH1 0x0 DUP1 RETURNDATACOPY RETURNDATASIZE PUSH1 0x0 REVERT JUMPDEST POP PUSH1 0x3 PUSH1 0x0 DUP2 SLOAD DUP1 SWAP3 SWAP2 SWAP1 PUSH2 0x6D4 SWAP1 PUSH2 0x257E JUMP JUMPDEST SWAP2 SWAP1 POP SSTORE POP CALLER PUSH1 0x5 PUSH1 0x0 DUP9 DUP2 MSTORE PUSH1 0x20 ADD SWAP1 DUP2 MSTORE PUSH1 0x20 ADD PUSH1 0x0 KECCAK256 PUSH1 0x8 ADD PUSH1 0x0 PUSH2 0x100 EXP DUP2 SLOAD DUP2 PUSH20 0xFFFFFFFFFFFFFFFFFFFFFFFFFFFFFFFFFFFFFFFF MUL NOT AND SWAP1 DUP4 PUSH20 0xFFFFFFFFFFFFFFFFFFFFFFFFFFFFFFFFFFFFFFFF AND MUL OR SWAP1 SSTORE POP PUSH1 0x0 PUSH1 0x5 PUSH1 0x0 DUP9 DUP2 MSTORE PUSH1 0x20 ADD SWAP1 DUP2 MSTORE PUSH1 0x20 ADD PUSH1 0x0 KECCAK256 PUSH1 0x7 ADD PUSH1 0x0 PUSH2 0x100 EXP DUP2 SLOAD DUP2 PUSH1 0xFF MUL NOT AND SWAP1 DUP4 ISZERO ISZERO MUL OR SWAP1 SSTORE POP TIMESTAMP PUSH1 0x5 PUSH1 0x0 DUP9 DUP2 MSTORE PUSH1 0x20 ADD SWAP1 DUP2 MSTORE PUSH1 0x20 ADD PUSH1 0x0 KECCAK256 PUSH1 0x6 ADD DUP2 SWAP1 SSTORE POP PUSH1 0x3 SLOAD PUSH1 0x5 PUSH1 0x0 DUP9 DUP2 MSTORE PUSH1 0x20 ADD SWAP1 DUP2 MSTORE PUSH1 0x20 ADD PUSH1 0x0 KECCAK256 PUSH1 0x1 ADD DUP2 SWAP1 SSTORE POP PUSH1 0x40 MLOAD DUP1 PUSH2 0x140 ADD PUSH1 0x40 MSTORE DUP1 DUP8 DUP2 MSTORE PUSH1 0x20 ADD PUSH1 0x3 SLOAD DUP2 MSTORE PUSH1 0x20 ADD PUSH1 0x5 PUSH1 0x0 DUP10 DUP2 MSTORE PUSH1 0x20 ADD SWAP1 DUP2 MSTORE PUSH1 0x20 ADD PUSH1 0x0 KECCAK256 PUSH1 0x2 ADD DUP1 SLOAD PUSH2 0x7D0 SWAP1 PUSH2 0x251B JUMP JUMPDEST DUP1 PUSH1 0x1F ADD PUSH1 0x20 DUP1 SWAP2 DIV MUL PUSH1 0x20 ADD PUSH1 0x40 MLOAD SWAP1 DUP2 ADD PUSH1 0x40 MSTORE DUP1 SWAP3 SWAP2 SWAP1 DUP2 DUP2 MSTORE PUSH1 0x20 ADD DUP3 DUP1 SLOAD PUSH2 0x7FC SWAP1 PUSH2 0x251B JUMP JUMPDEST DUP1 ISZERO PUSH2 0x849 JUMPI DUP1 PUSH1 0x1F LT PUSH2 0x81E JUMPI PUSH2 0x100 DUP1 DUP4 SLOAD DIV MUL DUP4 MSTORE SWAP2 PUSH1 0x20 ADD SWAP2 PUSH2 0x849 JUMP JUMPDEST DUP3 ADD SWAP2 SWAP1 PUSH1 0x0 MSTORE PUSH1 0x20 PUSH1 0x0 KECCAK256 SWAP1 JUMPDEST DUP2 SLOAD DUP2 MSTORE SWAP1 PUSH1 0x1 ADD SWAP1 PUSH1 0x20 ADD DUP1 DUP4 GT PUSH2 0x82C JUMPI DUP3 SWAP1 SUB PUSH1 0x1F AND DUP3 ADD SWAP2 JUMPDEST POP POP POP POP POP DUP2 MSTORE PUSH1 0x20 ADD PUSH1 0x5 PUSH1 0x0 DUP10 DUP2 MSTORE PUSH1 0x20 ADD SWAP1 DUP2 MSTORE PUSH1 0x20 ADD PUSH1 0x0 KECCAK256 PUSH1 0x3 ADD DUP1 SLOAD PUSH2 0x874 SWAP1 PUSH2 0x251B JUMP JUMPDEST DUP1 PUSH1 0x1F ADD PUSH1 0x20 DUP1 SWAP2 DIV MUL PUSH1 0x20 ADD PUSH1 0x40 MLOAD SWAP1 DUP2 ADD PUSH1 0x40 MSTORE DUP1 SWAP3 SWAP2 SWAP1 DUP2 DUP2 MSTORE PUSH1 0x20 ADD DUP3 DUP1 SLOAD PUSH2 0x8A0 SWAP1 PUSH2 0x251B JUMP JUMPDEST DUP1 ISZERO PUSH2 0x8ED JUMPI DUP1 PUSH1 0x1F LT PUSH2 0x8C2 JUMPI PUSH2 0x100 DUP1 DUP4 SLOAD DIV MUL DUP4 MSTORE SWAP2 PUSH1 0x20 ADD SWAP2 PUSH2 0x8ED JUMP JUMPDEST DUP3 ADD SWAP2 SWAP1 PUSH1 0x0 MSTORE PUSH1 0x20 PUSH1 0x0 KECCAK256 SWAP1 JUMPDEST DUP2 SLOAD DUP2 MSTORE SWAP1 PUSH1 0x1 ADD SWAP1 PUSH1 0x20 ADD DUP1 DUP4 GT PUSH2 0x8D0 JUMPI DUP3 SWAP1 SUB PUSH1 0x1F AND DUP3 ADD SWAP2 JUMPDEST POP POP POP POP POP DUP2 MSTORE PUSH1 0x20 ADD PUSH1 0x5 PUSH1 0x0 DUP10 DUP2 MSTORE PUSH1 0x20 ADD SWAP1 DUP2 MSTORE PUSH1 0x20 ADD PUSH1 0x0 KECCAK256 PUSH1 0x4 ADD SLOAD DUP2 MSTORE PUSH1 0x20 ADD PUSH1 0x5 PUSH1 0x0 DUP10 DUP2 MSTORE PUSH1 0x20 ADD SWAP1 DUP2 MSTORE PUSH1 0x20 ADD PUSH1 0x0 KECCAK256 PUSH1 0x5 ADD SLOAD DUP2 MSTORE PUSH1 0x20 ADD PUSH4 0x1E13380 DUP2 MSTORE PUSH1 0x20 ADD TIMESTAMP DUP2 MSTORE PUSH1 0x20 ADD CALLER PUSH20 0xFFFFFFFFFFFFFFFFFFFFFFFFFFFFFFFFFFFFFFFF AND DUP2 MSTORE PUSH1 0x20 ADD DUP4 PUSH20 0xFFFFFFFFFFFFFFFFFFFFFFFFFFFFFFFFFFFFFFFF AND DUP2 MSTORE POP PUSH1 0x6 PUSH1 0x0 PUSH1 0x3 SLOAD DUP2 MSTORE PUSH1 0x20 ADD SWAP1 DUP2 MSTORE PUSH1 0x20 ADD PUSH1 0x0 KECCAK256 PUSH1 0x0 DUP3 ADD MLOAD DUP2 PUSH1 0x0 ADD SSTORE PUSH1 0x20 DUP3 ADD MLOAD DUP2 PUSH1 0x1 ADD SSTORE PUSH1 0x40 DUP3 ADD MLOAD DUP2 PUSH1 0x2 ADD SWAP1 DUP1 MLOAD SWAP1 PUSH1 0x20 ADD SWAP1 PUSH2 0x9BA SWAP3 SWAP2 SWAP1 PUSH2 0x1D4D JUMP JUMPDEST POP PUSH1 0x60 DUP3 ADD MLOAD DUP2 PUSH1 0x3 ADD SWAP1 DUP1 MLOAD SWAP1 PUSH1 0x20 ADD SWAP1 PUSH2 0x9D7 SWAP3 SWAP2 SWAP1 PUSH2 0x1D4D JUMP JUMPDEST POP PUSH1 0x80 DUP3 ADD MLOAD DUP2 PUSH1 0x4 ADD SSTORE PUSH1 0xA0 DUP3 ADD MLOAD DUP2 PUSH1 0x5 ADD SSTORE PUSH1 0xC0 DUP3 ADD MLOAD DUP2 PUSH1 0x6 ADD SSTORE PUSH1 0xE0 DUP3 ADD MLOAD DUP2 PUSH1 0x7 ADD SSTORE PUSH2 0x100 DUP3 ADD MLOAD DUP2 PUSH1 0x8 ADD PUSH1 0x0 PUSH2 0x100 EXP DUP2 SLOAD DUP2 PUSH20 0xFFFFFFFFFFFFFFFFFFFFFFFFFFFFFFFFFFFFFFFF MUL NOT AND SWAP1 DUP4 PUSH20 0xFFFFFFFFFFFFFFFFFFFFFFFFFFFFFFFFFFFFFFFF AND MUL OR SWAP1 SSTORE POP PUSH2 0x120 DUP3 ADD MLOAD DUP2 PUSH1 0x9 ADD PUSH1 0x0 PUSH2 0x100 EXP DUP2 SLOAD DUP2 PUSH20 0xFFFFFFFFFFFFFFFFFFFFFFFFFFFFFFFFFFFFFFFF MUL NOT AND SWAP1 DUP4 PUSH20 0xFFFFFFFFFFFFFFFFFFFFFFFFFFFFFFFFFFFFFFFF AND MUL OR SWAP1 SSTORE POP SWAP1 POP POP PUSH1 0x4 PUSH1 0x0 DUP2 SLOAD DUP1 SWAP3 SWAP2 SWAP1 PUSH2 0xAA6 SWAP1 PUSH2 0x257E JUMP JUMPDEST SWAP2 SWAP1 POP SSTORE POP PUSH1 0x40 MLOAD DUP1 PUSH2 0x120 ADD PUSH1 0x40 MSTORE DUP1 PUSH1 0x4 SLOAD DUP2 MSTORE PUSH1 0x20 ADD DUP8 DUP2 MSTORE PUSH1 0x20 ADD PUSH1 0x3 SLOAD DUP2 MSTORE PUSH1 0x20 ADD PUSH1 0x5 PUSH1 0x0 DUP10 DUP2 MSTORE PUSH1 0x20 ADD SWAP1 DUP2 MSTORE PUSH1 0x20 ADD PUSH1 0x0 KECCAK256 PUSH1 0x2 ADD DUP1 SLOAD PUSH2 0xAEE SWAP1 PUSH2 0x251B JUMP JUMPDEST DUP1 PUSH1 0x1F ADD PUSH1 0x20 DUP1 SWAP2 DIV MUL PUSH1 0x20 ADD PUSH1 0x40 MLOAD SWAP1 DUP2 ADD PUSH1 0x40 MSTORE DUP1 SWAP3 SWAP2 SWAP1 DUP2 DUP2 MSTORE PUSH1 0x20 ADD DUP3 DUP1 SLOAD PUSH2 0xB1A SWAP1 PUSH2 0x251B JUMP JUMPDEST DUP1 ISZERO PUSH2 0xB67 JUMPI DUP1 PUSH1 0x1F LT PUSH2 0xB3C JUMPI PUSH2 0x100 DUP1 DUP4 SLOAD DIV MUL DUP4 MSTORE SWAP2 PUSH1 0x20 ADD SWAP2 PUSH2 0xB67 JUMP JUMPDEST DUP3 ADD SWAP2 SWAP1 PUSH1 0x0 MSTORE PUSH1 0x20 PUSH1 0x0 KECCAK256 SWAP1 JUMPDEST DUP2 SLOAD DUP2 MSTORE SWAP1 PUSH1 0x1 ADD SWAP1 PUSH1 0x20 ADD DUP1 DUP4 GT PUSH2 0xB4A JUMPI DUP3 SWAP1 SUB PUSH1 0x1F AND DUP3 ADD SWAP2 JUMPDEST POP POP POP POP POP DUP2 MSTORE PUSH1 0x20 ADD PUSH1 0x5 PUSH1 0x0 DUP10 DUP2 MSTORE PUSH1 0x20 ADD SWAP1 DUP2 MSTORE PUSH1 0x20 ADD PUSH1 0x0 KECCAK256 PUSH1 0x3 ADD DUP1 SLOAD PUSH2 0xB92 SWAP1 PUSH2 0x251B JUMP JUMPDEST DUP1 PUSH1 0x1F ADD PUSH1 0x20 DUP1 SWAP2 DIV MUL PUSH1 0x20 ADD PUSH1 0x40 MLOAD SWAP1 DUP2 ADD PUSH1 0x40 MSTORE DUP1 SWAP3 SWAP2 SWAP1 DUP2 DUP2 MSTORE PUSH1 0x20 ADD DUP3 DUP1 SLOAD PUSH2 0xBBE SWAP1 PUSH2 0x251B JUMP JUMPDEST DUP1 ISZERO PUSH2 0xC0B JUMPI DUP1 PUSH1 0x1F LT PUSH2 0xBE0 JUMPI PUSH2 0x100 DUP1 DUP4 SLOAD DIV MUL DUP4 MSTORE SWAP2 PUSH1 0x20 ADD SWAP2 PUSH2 0xC0B JUMP JUMPDEST DUP3 ADD SWAP2 SWAP1 PUSH1 0x0 MSTORE PUSH1 0x20 PUSH1 0x0 KECCAK256 SWAP1 JUMPDEST DUP2 SLOAD DUP2 MSTORE SWAP1 PUSH1 0x1 ADD SWAP1 PUSH1 0x20 ADD DUP1 DUP4 GT PUSH2 0xBEE JUMPI DUP3 SWAP1 SUB PUSH1 0x1F AND DUP3 ADD SWAP2 JUMPDEST POP POP POP POP POP DUP2 MSTORE PUSH1 0x20 ADD PUSH1 0x5 PUSH1 0x0 DUP10 DUP2 MSTORE PUSH1 0x20 ADD SWAP1 DUP2 MSTORE PUSH1 0x20 ADD PUSH1 0x0 KECCAK256 PUSH1 0x4 ADD SLOAD DUP2 MSTORE PUSH1 0x20 ADD TIMESTAMP DUP2 MSTORE PUSH1 0x20 ADD CALLER PUSH20 0xFFFFFFFFFFFFFFFFFFFFFFFFFFFFFFFFFFFFFFFF AND DUP2 MSTORE PUSH1 0x20 ADD DUP4 PUSH20 0xFFFFFFFFFFFFFFFFFFFFFFFFFFFFFFFFFFFFFFFF AND DUP2 MSTORE POP PUSH1 0x7 PUSH1 0x0 PUSH1 0x4 SLOAD DUP2 MSTORE PUSH1 0x20 ADD SWAP1 DUP2 MSTORE PUSH1 0x20 ADD PUSH1 0x0 KECCAK256 PUSH1 0x0 DUP3 ADD MLOAD DUP2 PUSH1 0x0 ADD SSTORE PUSH1 0x20 DUP3 ADD MLOAD DUP2 PUSH1 0x1 ADD SSTORE PUSH1 0x40 DUP3 ADD MLOAD DUP2 PUSH1 0x2 ADD SSTORE PUSH1 0x60 DUP3 ADD MLOAD DUP2 PUSH1 0x3 ADD SWAP1 DUP1 MLOAD SWAP1 PUSH1 0x20 ADD SWAP1 PUSH2 0xCBC SWAP3 SWAP2 SWAP1 PUSH2 0x1D4D JUMP JUMPDEST POP PUSH1 0x80 DUP3 ADD MLOAD DUP2 PUSH1 0x4 ADD SWAP1 DUP1 MLOAD SWAP1 PUSH1 0x20 ADD SWAP1 PUSH2 0xCD9 SWAP3 SWAP2 SWAP1 PUSH2 0x1D4D JUMP JUMPDEST POP PUSH1 0xA0 DUP3 ADD MLOAD DUP2 PUSH1 0x5 ADD SSTORE PUSH1 0xC0 DUP3 ADD MLOAD DUP2 PUSH1 0x6 ADD SSTORE PUSH1 0xE0 DUP3 ADD MLOAD DUP2 PUSH1 0x7 ADD PUSH1 0x0 PUSH2 0x100 EXP DUP2 SLOAD DUP2 PUSH20 0xFFFFFFFFFFFFFFFFFFFFFFFFFFFFFFFFFFFFFFFF MUL NOT AND SWAP1 DUP4 PUSH20 0xFFFFFFFFFFFFFFFFFFFFFFFFFFFFFFFFFFFFFFFF AND MUL OR SWAP1 SSTORE POP PUSH2 0x100 DUP3 ADD MLOAD DUP2 PUSH1 0x8 ADD PUSH1 0x0 PUSH2 0x100 EXP DUP2 SLOAD DUP2 PUSH20 0xFFFFFFFFFFFFFFFFFFFFFFFFFFFFFFFFFFFFFFFF MUL NOT AND SWAP1 DUP4 PUSH20 0xFFFFFFFFFFFFFFFFFFFFFFFFFFFFFFFFFFFFFFFF AND MUL OR SWAP1 SSTORE POP SWAP1 POP POP POP POP POP POP POP POP JUMP JUMPDEST DUP1 PUSH1 0x5 PUSH1 0x0 DUP3 DUP2 MSTORE PUSH1 0x20 ADD SWAP1 DUP2 MSTORE PUSH1 0x20 ADD PUSH1 0x0 KECCAK256 PUSH1 0x7 ADD PUSH1 0x1 SWAP1 SLOAD SWAP1 PUSH2 0x100 EXP SWAP1 DIV PUSH20 0xFFFFFFFFFFFFFFFFFFFFFFFFFFFFFFFFFFFFFFFF AND PUSH20 0xFFFFFFFFFFFFFFFFFFFFFFFFFFFFFFFFFFFFFFFF AND CALLER PUSH20 0xFFFFFFFFFFFFFFFFFFFFFFFFFFFFFFFFFFFFFFFF AND EQ PUSH2 0xE2D JUMPI PUSH1 0x40 MLOAD PUSH32 0x8C379A000000000000000000000000000000000000000000000000000000000 DUP2 MSTORE PUSH1 0x4 ADD PUSH2 0xE24 SWAP1 PUSH2 0x20FF JUMP JUMPDEST PUSH1 0x40 MLOAD DUP1 SWAP2 SUB SWAP1 REVERT JUMPDEST DUP2 PUSH1 0x0 PUSH1 0x5 PUSH1 0x0 DUP4 DUP2 MSTORE PUSH1 0x20 ADD SWAP1 DUP2 MSTORE PUSH1 0x20 ADD PUSH1 0x0 KECCAK256 PUSH1 0x1 ADD SLOAD SWAP1 POP PUSH1 0x0 PUSH1 0x6 PUSH1 0x0 DUP4 DUP2 MSTORE PUSH1 0x20 ADD SWAP1 DUP2 MSTORE PUSH1 0x20 ADD PUSH1 0x0 KECCAK256 PUSH1 0x6 ADD SLOAD PUSH1 0x6 PUSH1 0x0 DUP5 DUP2 MSTORE PUSH1 0x20 ADD SWAP1 DUP2 MSTORE PUSH1 0x20 ADD PUSH1 0x0 KECCAK256 PUSH1 0x7 ADD SLOAD PUSH2 0xE83 SWAP2 SWAP1 PUSH2 0x243B JUMP JUMPDEST SWAP1 POP DUP1 TIMESTAMP GT PUSH2 0xEC7 JUMPI PUSH1 0x40 MLOAD PUSH32 0x8C379A000000000000000000000000000000000000000000000000000000000 DUP2 MSTORE PUSH1 0x4 ADD PUSH2 0xEBE SWAP1 PUSH2 0x217F JUMP JUMPDEST PUSH1 0x40 MLOAD DUP1 SWAP2 SUB SWAP1 REVERT JUMPDEST PUSH1 0x0 PUSH20 0xFFFFFFFFFFFFFFFFFFFFFFFFFFFFFFFFFFFFFFFF AND CALLER PUSH20 0xFFFFFFFFFFFFFFFFFFFFFFFFFFFFFFFFFFFFFFFF AND EQ ISZERO PUSH2 0xF01 JUMPI PUSH1 0x0 DUP1 REVERT JUMPDEST PUSH1 0x0 ISZERO ISZERO PUSH1 0x5 PUSH1 0x0 DUP8 DUP2 MSTORE PUSH1 0x20 ADD SWAP1 DUP2 MSTORE PUSH1 0x20 ADD PUSH1 0x0 KECCAK256 PUSH1 0x7 ADD PUSH1 0x0 SWAP1 SLOAD SWAP1 PUSH2 0x100 EXP SWAP1 DIV PUSH1 0xFF AND ISZERO ISZERO EQ PUSH2 0xF6B JUMPI PUSH1 0x40 MLOAD PUSH32 0x8C379A000000000000000000000000000000000000000000000000000000000 DUP2 MSTORE PUSH1 0x4 ADD PUSH2 0xF62 SWAP1 PUSH2 0x20DF JUMP JUMPDEST PUSH1 0x40 MLOAD DUP1 SWAP2 SUB SWAP1 REVERT JUMPDEST PUSH1 0x1 PUSH1 0x5 PUSH1 0x0 DUP8 DUP2 MSTORE PUSH1 0x20 ADD SWAP1 DUP2 MSTORE PUSH1 0x20 ADD PUSH1 0x0 KECCAK256 PUSH1 0x7 ADD PUSH1 0x0 PUSH2 0x100 EXP DUP2 SLOAD DUP2 PUSH1 0xFF MUL NOT AND SWAP1 DUP4 ISZERO ISZERO MUL OR SWAP1 SSTORE POP PUSH1 0x0 PUSH1 0x5 PUSH1 0x0 DUP8 DUP2 MSTORE PUSH1 0x20 ADD SWAP1 DUP2 MSTORE PUSH1 0x20 ADD PUSH1 0x0 KECCAK256 PUSH1 0x8 ADD PUSH1 0x0 SWAP1 SLOAD SWAP1 PUSH2 0x100 EXP SWAP1 DIV PUSH20 0xFFFFFFFFFFFFFFFFFFFFFFFFFFFFFFFFFFFFFFFF AND SWAP1 POP PUSH1 0x0 PUSH1 0x5 PUSH1 0x0 DUP9 DUP2 MSTORE PUSH1 0x20 ADD SWAP1 DUP2 MSTORE PUSH1 0x20 ADD PUSH1 0x0 KECCAK256 PUSH1 0x5 ADD SLOAD SWAP1 POP DUP2 PUSH20 0xFFFFFFFFFFFFFFFFFFFFFFFFFFFFFFFFFFFFFFFF AND PUSH2 0x8FC DUP3 SWAP1 DUP2 ISZERO MUL SWAP1 PUSH1 0x40 MLOAD PUSH1 0x0 PUSH1 0x40 MLOAD DUP1 DUP4 SUB DUP2 DUP6 DUP9 DUP9 CALL SWAP4 POP POP POP POP ISZERO DUP1 ISZERO PUSH2 0x1036 JUMPI RETURNDATASIZE PUSH1 0x0 DUP1 RETURNDATACOPY RETURNDATASIZE PUSH1 0x0 REVERT JUMPDEST POP POP POP POP POP POP POP POP JUMP JUMPDEST PUSH1 0x3 SLOAD DUP2 JUMP JUMPDEST PUSH1 0x5 PUSH1 0x20 MSTORE DUP1 PUSH1 0x0 MSTORE PUSH1 0x40 PUSH1 0x0 KECCAK256 PUSH1 0x0 SWAP2 POP SWAP1 POP DUP1 PUSH1 0x0 ADD SLOAD SWAP1 DUP1 PUSH1 0x1 ADD SLOAD SWAP1 DUP1 PUSH1 0x2 ADD DUP1 SLOAD PUSH2 0x1075 SWAP1 PUSH2 0x251B JUMP JUMPDEST DUP1 PUSH1 0x1F ADD PUSH1 0x20 DUP1 SWAP2 DIV MUL PUSH1 0x20 ADD PUSH1 0x40 MLOAD SWAP1 DUP2 ADD PUSH1 0x40 MSTORE DUP1 SWAP3 SWAP2 SWAP1 DUP2 DUP2 MSTORE PUSH1 0x20 ADD DUP3 DUP1 SLOAD PUSH2 0x10A1 SWAP1 PUSH2 0x251B JUMP JUMPDEST DUP1 ISZERO PUSH2 0x10EE JUMPI DUP1 PUSH1 0x1F LT PUSH2 0x10C3 JUMPI PUSH2 0x100 DUP1 DUP4 SLOAD DIV MUL DUP4 MSTORE SWAP2 PUSH1 0x20 ADD SWAP2 PUSH2 0x10EE JUMP JUMPDEST DUP3 ADD SWAP2 SWAP1 PUSH1 0x0 MSTORE PUSH1 0x20 PUSH1 0x0 KECCAK256 SWAP1 JUMPDEST DUP2 SLOAD DUP2 MSTORE SWAP1 PUSH1 0x1 ADD SWAP1 PUSH1 0x20 ADD DUP1 DUP4 GT PUSH2 0x10D1 JUMPI DUP3 SWAP1 SUB PUSH1 0x1F AND DUP3 ADD SWAP2 JUMPDEST POP POP POP POP POP SWAP1 DUP1 PUSH1 0x3 ADD DUP1 SLOAD PUSH2 0x1103 SWAP1 PUSH2 0x251B JUMP JUMPDEST DUP1 PUSH1 0x1F ADD PUSH1 0x20 DUP1 SWAP2 DIV MUL PUSH1 0x20 ADD PUSH1 0x40 MLOAD SWAP1 DUP2 ADD PUSH1 0x40 MSTORE DUP1 SWAP3 SWAP2 SWAP1 DUP2 DUP2 MSTORE PUSH1 0x20 ADD DUP3 DUP1 SLOAD PUSH2 0x112F SWAP1 PUSH2 0x251B JUMP JUMPDEST DUP1 ISZERO PUSH2 0x117C JUMPI DUP1 PUSH1 0x1F LT PUSH2 0x1151 JUMPI PUSH2 0x100 DUP1 DUP4 SLOAD DIV MUL DUP4 MSTORE SWAP2 PUSH1 0x20 ADD SWAP2 PUSH2 0x117C JUMP JUMPDEST DUP3 ADD SWAP2 SWAP1 PUSH1 0x0 MSTORE PUSH1 0x20 PUSH1 0x0 KECCAK256 SWAP1 JUMPDEST DUP2 SLOAD DUP2 MSTORE SWAP1 PUSH1 0x1 ADD SWAP1 PUSH1 0x20 ADD DUP1 DUP4 GT PUSH2 0x115F JUMPI DUP3 SWAP1 SUB PUSH1 0x1F AND DUP3 ADD SWAP2 JUMPDEST POP POP POP POP POP SWAP1 DUP1 PUSH1 0x4 ADD SLOAD SWAP1 DUP1 PUSH1 0x5 ADD SLOAD SWAP1 DUP1 PUSH1 0x6 ADD SLOAD SWAP1 DUP1 PUSH1 0x7 ADD PUSH1 0x0 SWAP1 SLOAD SWAP1 PUSH2 0x100 EXP SWAP1 DIV PUSH1 0xFF AND SWAP1 DUP1 PUSH1 0x7 ADD PUSH1 0x1 SWAP1 SLOAD SWAP1 PUSH2 0x100 EXP SWAP1 DIV PUSH20 0xFFFFFFFFFFFFFFFFFFFFFFFFFFFFFFFFFFFFFFFF AND SWAP1 DUP1 PUSH1 0x8 ADD PUSH1 0x0 SWAP1 SLOAD SWAP1 PUSH2 0x100 EXP SWAP1 DIV PUSH20 0xFFFFFFFFFFFFFFFFFFFFFFFFFFFFFFFFFFFFFFFF AND SWAP1 POP DUP11 JUMP JUMPDEST DUP1 PUSH1 0x5 PUSH1 0x0 DUP3 DUP2 MSTORE PUSH1 0x20 ADD SWAP1 DUP2 MSTORE PUSH1 0x20 ADD PUSH1 0x0 KECCAK256 PUSH1 0x7 ADD PUSH1 0x1 SWAP1 SLOAD SWAP1 PUSH2 0x100 EXP SWAP1 DIV PUSH20 0xFFFFFFFFFFFFFFFFFFFFFFFFFFFFFFFFFFFFFFFF AND PUSH20 0xFFFFFFFFFFFFFFFFFFFFFFFFFFFFFFFFFFFFFFFF AND CALLER PUSH20 0xFFFFFFFFFFFFFFFFFFFFFFFFFFFFFFFFFFFFFFFF AND EQ PUSH2 0x129C JUMPI PUSH1 0x40 MLOAD PUSH32 0x8C379A000000000000000000000000000000000000000000000000000000000 DUP2 MSTORE PUSH1 0x4 ADD PUSH2 0x1293 SWAP1 PUSH2 0x20FF JUMP JUMPDEST PUSH1 0x40 MLOAD DUP1 SWAP2 SUB SWAP1 REVERT JUMPDEST DUP2 PUSH1 0x0 PUSH1 0x5 PUSH1 0x0 DUP4 DUP2 MSTORE PUSH1 0x20 ADD SWAP1 DUP2 MSTORE PUSH1 0x20 ADD PUSH1 0x0 KECCAK256 PUSH1 0x1 ADD SLOAD SWAP1 POP PUSH1 0x0 PUSH1 0x6 PUSH1 0x0 DUP4 DUP2 MSTORE PUSH1 0x20 ADD SWAP1 DUP2 MSTORE PUSH1 0x20 ADD PUSH1 0x0 KECCAK256 PUSH1 0x6 ADD SLOAD PUSH1 0x6 PUSH1 0x0 DUP5 DUP2 MSTORE PUSH1 0x20 ADD SWAP1 DUP2 MSTORE PUSH1 0x20 ADD PUSH1 0x0 KECCAK256 PUSH1 0x7 ADD SLOAD PUSH2 0x12F2 SWAP2 SWAP1 PUSH2 0x243B JUMP JUMPDEST SWAP1 POP DUP1 TIMESTAMP LT PUSH2 0x1336 JUMPI PUSH1 0x40 MLOAD PUSH32 0x8C379A000000000000000000000000000000000000000000000000000000000 DUP2 MSTORE PUSH1 0x4 ADD PUSH2 0x132D SWAP1 PUSH2 0x20BF JUMP JUMPDEST PUSH1 0x40 MLOAD DUP1 SWAP2 SUB SWAP1 REVERT JUMPDEST PUSH1 0x0 PUSH20 0xFFFFFFFFFFFFFFFFFFFFFFFFFFFFFFFFFFFFFFFF AND CALLER PUSH20 0xFFFFFFFFFFFFFFFFFFFFFFFFFFFFFFFFFFFFFFFF AND EQ ISZERO PUSH2 0x1370 JUMPI PUSH1 0x0 DUP1 REVERT JUMPDEST PUSH1 0x1 PUSH1 0x5 PUSH1 0x0 DUP8 DUP2 MSTORE PUSH1 0x20 ADD SWAP1 DUP2 MSTORE PUSH1 0x20 ADD PUSH1 0x0 KECCAK256 PUSH1 0x7 ADD PUSH1 0x0 PUSH2 0x100 EXP DUP2 SLOAD DUP2 PUSH1 0xFF MUL NOT AND SWAP1 DUP4 ISZERO ISZERO MUL OR SWAP1 SSTORE POP POP POP POP POP POP JUMP JUMPDEST PUSH1 0x2 SLOAD DUP2 JUMP JUMPDEST PUSH1 0x0 PUSH20 0xFFFFFFFFFFFFFFFFFFFFFFFFFFFFFFFFFFFFFFFF AND CALLER PUSH20 0xFFFFFFFFFFFFFFFFFFFFFFFFFFFFFFFFFFFFFFFF AND EQ ISZERO PUSH2 0x13E6 JUMPI PUSH1 0x0 DUP1 REVERT JUMPDEST PUSH1 0x2 PUSH1 0x0 DUP2 SLOAD DUP1 SWAP3 SWAP2 SWAP1 PUSH2 0x13F9 SWAP1 PUSH2 0x257E JUMP JUMPDEST SWAP2 SWAP1 POP SSTORE POP PUSH1 0x0 PUSH1 0x1 SWAP1 POP PUSH1 0x40 MLOAD DUP1 PUSH2 0x140 ADD PUSH1 0x40 MSTORE DUP1 PUSH1 0x2 SLOAD DUP2 MSTORE PUSH1 0x20 ADD PUSH1 0x0 DUP2 MSTORE PUSH1 0x20 ADD DUP7 DUP2 MSTORE PUSH1 0x20 ADD DUP6 DUP2 MSTORE PUSH1 0x20 ADD DUP5 DUP2 MSTORE PUSH1 0x20 ADD DUP4 DUP2 MSTORE PUSH1 0x20 ADD PUSH1 0x0 DUP2 MSTORE PUSH1 0x20 ADD DUP3 ISZERO ISZERO DUP2 MSTORE PUSH1 0x20 ADD CALLER PUSH20 0xFFFFFFFFFFFFFFFFFFFFFFFFFFFFFFFFFFFFFFFF AND DUP2 MSTORE PUSH1 0x20 ADD PUSH1 0x0 PUSH20 0xFFFFFFFFFFFFFFFFFFFFFFFFFFFFFFFFFFFFFFFF AND DUP2 MSTORE POP PUSH1 0x5 PUSH1 0x0 PUSH1 0x2 SLOAD DUP2 MSTORE PUSH1 0x20 ADD SWAP1 DUP2 MSTORE PUSH1 0x20 ADD PUSH1 0x0 KECCAK256 PUSH1 0x0 DUP3 ADD MLOAD DUP2 PUSH1 0x0 ADD SSTORE PUSH1 0x20 DUP3 ADD MLOAD DUP2 PUSH1 0x1 ADD SSTORE PUSH1 0x40 DUP3 ADD MLOAD DUP2 PUSH1 0x2 ADD SWAP1 DUP1 MLOAD SWAP1 PUSH1 0x20 ADD SWAP1 PUSH2 0x14C2 SWAP3 SWAP2 SWAP1 PUSH2 0x1D4D JUMP JUMPDEST POP PUSH1 0x60 DUP3 ADD MLOAD DUP2 PUSH1 0x3 ADD SWAP1 DUP1 MLOAD SWAP1 PUSH1 0x20 ADD SWAP1 PUSH2 0x14DF SWAP3 SWAP2 SWAP1 PUSH2 0x1D4D JUMP JUMPDEST POP PUSH1 0x80 DUP3 ADD MLOAD DUP2 PUSH1 0x4 ADD SSTORE PUSH1 0xA0 DUP3 ADD MLOAD DUP2 PUSH1 0x5 ADD SSTORE PUSH1 0xC0 DUP3 ADD MLOAD DUP2 PUSH1 0x6 ADD SSTORE PUSH1 0xE0 DUP3 ADD MLOAD DUP2 PUSH1 0x7 ADD PUSH1 0x0 PUSH2 0x100 EXP DUP2 SLOAD DUP2 PUSH1 0xFF MUL NOT AND SWAP1 DUP4 ISZERO ISZERO MUL OR SWAP1 SSTORE POP PUSH2 0x100 DUP3 ADD MLOAD DUP2 PUSH1 0x7 ADD PUSH1 0x1 PUSH2 0x100 EXP DUP2 SLOAD DUP2 PUSH20 0xFFFFFFFFFFFFFFFFFFFFFFFFFFFFFFFFFFFFFFFF MUL NOT AND SWAP1 DUP4 PUSH20 0xFFFFFFFFFFFFFFFFFFFFFFFFFFFFFFFFFFFFFFFF AND MUL OR SWAP1 SSTORE POP PUSH2 0x120 DUP3 ADD MLOAD DUP2 PUSH1 0x8 ADD PUSH1 0x0 PUSH2 0x100 EXP DUP2 SLOAD DUP2 PUSH20 0xFFFFFFFFFFFFFFFFFFFFFFFFFFFFFFFFFFFFFFFF MUL NOT AND SWAP1 DUP4 PUSH20 0xFFFFFFFFFFFFFFFFFFFFFFFFFFFFFFFFFFFFFFFF AND MUL OR SWAP1 SSTORE POP SWAP1 POP POP POP POP POP POP POP JUMP JUMPDEST PUSH1 0x4 SLOAD DUP2 JUMP JUMPDEST PUSH1 0x7 PUSH1 0x20 MSTORE DUP1 PUSH1 0x0 MSTORE PUSH1 0x40 PUSH1 0x0 KECCAK256 PUSH1 0x0 SWAP2 POP SWAP1 POP DUP1 PUSH1 0x0 ADD SLOAD SWAP1 DUP1 PUSH1 0x1 ADD SLOAD SWAP1 DUP1 PUSH1 0x2 ADD SLOAD SWAP1 DUP1 PUSH1 0x3 ADD DUP1 SLOAD PUSH2 0x15F3 SWAP1 PUSH2 0x251B JUMP JUMPDEST DUP1 PUSH1 0x1F ADD PUSH1 0x20 DUP1 SWAP2 DIV MUL PUSH1 0x20 ADD PUSH1 0x40 MLOAD SWAP1 DUP2 ADD PUSH1 0x40 MSTORE DUP1 SWAP3 SWAP2 SWAP1 DUP2 DUP2 MSTORE PUSH1 0x20 ADD DUP3 DUP1 SLOAD PUSH2 0x161F SWAP1 PUSH2 0x251B JUMP JUMPDEST DUP1 ISZERO PUSH2 0x166C JUMPI DUP1 PUSH1 0x1F LT PUSH2 0x1641 JUMPI PUSH2 0x100 DUP1 DUP4 SLOAD DIV MUL DUP4 MSTORE SWAP2 PUSH1 0x20 ADD SWAP2 PUSH2 0x166C JUMP JUMPDEST DUP3 ADD SWAP2 SWAP1 PUSH1 0x0 MSTORE PUSH1 0x20 PUSH1 0x0 KECCAK256 SWAP1 JUMPDEST DUP2 SLOAD DUP2 MSTORE SWAP1 PUSH1 0x1 ADD SWAP1 PUSH1 0x20 ADD DUP1 DUP4 GT PUSH2 0x164F JUMPI DUP3 SWAP1 SUB PUSH1 0x1F AND DUP3 ADD SWAP2 JUMPDEST POP POP POP POP POP SWAP1 DUP1 PUSH1 0x4 ADD DUP1 SLOAD PUSH2 0x1681 SWAP1 PUSH2 0x251B JUMP JUMPDEST DUP1 PUSH1 0x1F ADD PUSH1 0x20 DUP1 SWAP2 DIV MUL PUSH1 0x20 ADD PUSH1 0x40 MLOAD SWAP1 DUP2 ADD PUSH1 0x40 MSTORE DUP1 SWAP3 SWAP2 SWAP1 DUP2 DUP2 MSTORE PUSH1 0x20 ADD DUP3 DUP1 SLOAD PUSH2 0x16AD SWAP1 PUSH2 0x251B JUMP JUMPDEST DUP1 ISZERO PUSH2 0x16FA JUMPI DUP1 PUSH1 0x1F LT PUSH2 0x16CF JUMPI PUSH2 0x100 DUP1 DUP4 SLOAD DIV MUL DUP4 MSTORE SWAP2 PUSH1 0x20 ADD SWAP2 PUSH2 0x16FA JUMP JUMPDEST DUP3 ADD SWAP2 SWAP1 PUSH1 0x0 MSTORE PUSH1 0x20 PUSH1 0x0 KECCAK256 SWAP1 JUMPDEST DUP2 SLOAD DUP2 MSTORE SWAP1 PUSH1 0x1 ADD SWAP1 PUSH1 0x20 ADD DUP1 DUP4 GT PUSH2 0x16DD JUMPI DUP3 SWAP1 SUB PUSH1 0x1F AND DUP3 ADD SWAP2 JUMPDEST POP POP POP POP POP SWAP1 DUP1 PUSH1 0x5 ADD SLOAD SWAP1 DUP1 PUSH1 0x6 ADD SLOAD SWAP1 DUP1 PUSH1 0x7 ADD PUSH1 0x0 SWAP1 SLOAD SWAP1 PUSH2 0x100 EXP SWAP1 DIV PUSH20 0xFFFFFFFFFFFFFFFFFFFFFFFFFFFFFFFFFFFFFFFF AND SWAP1 DUP1 PUSH1 0x8 ADD PUSH1 0x0 SWAP1 SLOAD SWAP1 PUSH2 0x100 EXP SWAP1 DIV PUSH20 0xFFFFFFFFFFFFFFFFFFFFFFFFFFFFFFFFFFFFFFFF AND SWAP1 POP DUP10 JUMP JUMPDEST DUP1 PUSH1 0x5 PUSH1 0x0 DUP3 DUP2 MSTORE PUSH1 0x20 ADD SWAP1 DUP2 MSTORE PUSH1 0x20 ADD PUSH1 0x0 KECCAK256 PUSH1 0x8 ADD PUSH1 0x0 SWAP1 SLOAD SWAP1 PUSH2 0x100 EXP SWAP1 DIV PUSH20 0xFFFFFFFFFFFFFFFFFFFFFFFFFFFFFFFFFFFFFFFF AND PUSH20 0xFFFFFFFFFFFFFFFFFFFFFFFFFFFFFFFFFFFFFFFF AND CALLER PUSH20 0xFFFFFFFFFFFFFFFFFFFFFFFFFFFFFFFFFFFFFFFF AND EQ PUSH2 0x1801 JUMPI PUSH1 0x40 MLOAD PUSH32 0x8C379A000000000000000000000000000000000000000000000000000000000 DUP2 MSTORE PUSH1 0x4 ADD PUSH2 0x17F8 SWAP1 PUSH2 0x213F JUMP JUMPDEST PUSH1 0x40 MLOAD DUP1 SWAP2 SUB SWAP1 REVERT JUMPDEST DUP2 PUSH1 0x0 PUSH3 0x278D00 PUSH1 0x5 PUSH1 0x0 DUP5 DUP2 MSTORE PUSH1 0x20 ADD SWAP1 DUP2 MSTORE PUSH1 0x20 ADD PUSH1 0x0 KECCAK256 PUSH1 0x6 ADD SLOAD PUSH2 0x1829 SWAP2 SWAP1 PUSH2 0x243B JUMP JUMPDEST SWAP1 POP DUP1 TIMESTAMP LT ISZERO PUSH2 0x186E JUMPI PUSH1 0x40 MLOAD PUSH32 0x8C379A000000000000000000000000000000000000000000000000000000000 DUP2 MSTORE PUSH1 0x4 ADD PUSH2 0x1865 SWAP1 PUSH2 0x219F JUMP JUMPDEST PUSH1 0x40 MLOAD DUP1 SWAP2 SUB SWAP1 REVERT JUMPDEST DUP4 PUSH1 0x5 PUSH1 0x0 DUP3 DUP2 MSTORE PUSH1 0x20 ADD SWAP1 DUP2 MSTORE PUSH1 0x20 ADD PUSH1 0x0 KECCAK256 PUSH1 0x4 ADD SLOAD CALLVALUE LT ISZERO PUSH2 0x18C8 JUMPI PUSH1 0x40 MLOAD PUSH32 0x8C379A000000000000000000000000000000000000000000000000000000000 DUP2 MSTORE PUSH1 0x4 ADD PUSH2 0x18BF SWAP1 PUSH2 0x215F JUMP JUMPDEST PUSH1 0x40 MLOAD DUP1 SWAP2 SUB SWAP1 REVERT JUMPDEST PUSH1 0x0 PUSH20 0xFFFFFFFFFFFFFFFFFFFFFFFFFFFFFFFFFFFFFFFF AND CALLER PUSH20 0xFFFFFFFFFFFFFFFFFFFFFFFFFFFFFFFFFFFFFFFF AND EQ ISZERO PUSH2 0x1902 JUMPI PUSH1 0x0 DUP1 REVERT JUMPDEST PUSH1 0x0 PUSH1 0x5 PUSH1 0x0 DUP8 DUP2 MSTORE PUSH1 0x20 ADD SWAP1 DUP2 MSTORE PUSH1 0x20 ADD PUSH1 0x0 KECCAK256 PUSH1 0x7 ADD PUSH1 0x1 SWAP1 SLOAD SWAP1 PUSH2 0x100 EXP SWAP1 DIV PUSH20 0xFFFFFFFFFFFFFFFFFFFFFFFFFFFFFFFFFFFFFFFF AND SWAP1 POP PUSH1 0x0 PUSH1 0x5 PUSH1 0x0 DUP9 DUP2 MSTORE PUSH1 0x20 ADD SWAP1 DUP2 MSTORE PUSH1 0x20 ADD PUSH1 0x0 KECCAK256 PUSH1 0x4 ADD SLOAD SWAP1 POP DUP2 PUSH20 0xFFFFFFFFFFFFFFFFFFFFFFFFFFFFFFFFFFFFFFFF AND PUSH2 0x8FC DUP3 SWAP1 DUP2 ISZERO MUL SWAP1 PUSH1 0x40 MLOAD PUSH1 0x0 PUSH1 0x40 MLOAD DUP1 DUP4 SUB DUP2 DUP6 DUP9 DUP9 CALL SWAP4 POP POP POP POP ISZERO DUP1 ISZERO PUSH2 0x199E JUMPI RETURNDATASIZE PUSH1 0x0 DUP1 RETURNDATACOPY RETURNDATASIZE PUSH1 0x0 REVERT JUMPDEST POP CALLER PUSH1 0x5 PUSH1 0x0 DUP10 DUP2 MSTORE PUSH1 0x20 ADD SWAP1 DUP2 MSTORE PUSH1 0x20 ADD PUSH1 0x0 KECCAK256 PUSH1 0x8 ADD PUSH1 0x0 PUSH2 0x100 EXP DUP2 SLOAD DUP2 PUSH20 0xFFFFFFFFFFFFFFFFFFFFFFFFFFFFFFFFFFFFFFFF MUL NOT AND SWAP1 DUP4 PUSH20 0xFFFFFFFFFFFFFFFFFFFFFFFFFFFFFFFFFFFFFFFF AND MUL OR SWAP1 SSTORE POP PUSH1 0x0 PUSH1 0x5 PUSH1 0x0 DUP10 DUP2 MSTORE PUSH1 0x20 ADD SWAP1 DUP2 MSTORE PUSH1 0x20 ADD PUSH1 0x0 KECCAK256 PUSH1 0x7 ADD PUSH1 0x0 PUSH2 0x100 EXP DUP2 SLOAD DUP2 PUSH1 0xFF MUL NOT AND SWAP1 DUP4 ISZERO ISZERO MUL OR SWAP1 SSTORE POP PUSH1 0x4 PUSH1 0x0 DUP2 SLOAD DUP1 SWAP3 SWAP2 SWAP1 PUSH2 0x1A36 SWAP1 PUSH2 0x257E JUMP JUMPDEST SWAP2 SWAP1 POP SSTORE POP PUSH1 0x40 MLOAD DUP1 PUSH2 0x120 ADD PUSH1 0x40 MSTORE DUP1 PUSH1 0x4 SLOAD DUP2 MSTORE PUSH1 0x20 ADD DUP9 DUP2 MSTORE PUSH1 0x20 ADD PUSH1 0x5 PUSH1 0x0 DUP11 DUP2 MSTORE PUSH1 0x20 ADD SWAP1 DUP2 MSTORE PUSH1 0x20 ADD PUSH1 0x0 KECCAK256 PUSH1 0x1 ADD SLOAD DUP2 MSTORE PUSH1 0x20 ADD PUSH1 0x5 PUSH1 0x0 DUP11 DUP2 MSTORE PUSH1 0x20 ADD SWAP1 DUP2 MSTORE PUSH1 0x20 ADD PUSH1 0x0 KECCAK256 PUSH1 0x2 ADD DUP1 SLOAD PUSH2 0x1A92 SWAP1 PUSH2 0x251B JUMP JUMPDEST DUP1 PUSH1 0x1F ADD PUSH1 0x20 DUP1 SWAP2 DIV MUL PUSH1 0x20 ADD PUSH1 0x40 MLOAD SWAP1 DUP2 ADD PUSH1 0x40 MSTORE DUP1 SWAP3 SWAP2 SWAP1 DUP2 DUP2 MSTORE PUSH1 0x20 ADD DUP3 DUP1 SLOAD PUSH2 0x1ABE SWAP1 PUSH2 0x251B JUMP JUMPDEST DUP1 ISZERO PUSH2 0x1B0B JUMPI DUP1 PUSH1 0x1F LT PUSH2 0x1AE0 JUMPI PUSH2 0x100 DUP1 DUP4 SLOAD DIV MUL DUP4 MSTORE SWAP2 PUSH1 0x20 ADD SWAP2 PUSH2 0x1B0B JUMP JUMPDEST DUP3 ADD SWAP2 SWAP1 PUSH1 0x0 MSTORE PUSH1 0x20 PUSH1 0x0 KECCAK256 SWAP1 JUMPDEST DUP2 SLOAD DUP2 MSTORE SWAP1 PUSH1 0x1 ADD SWAP1 PUSH1 0x20 ADD DUP1 DUP4 GT PUSH2 0x1AEE JUMPI DUP3 SWAP1 SUB PUSH1 0x1F AND DUP3 ADD SWAP2 JUMPDEST POP POP POP POP POP DUP2 MSTORE PUSH1 0x20 ADD PUSH1 0x5 PUSH1 0x0 DUP11 DUP2 MSTORE PUSH1 0x20 ADD SWAP1 DUP2 MSTORE PUSH1 0x20 ADD PUSH1 0x0 KECCAK256 PUSH1 0x3 ADD DUP1 SLOAD PUSH2 0x1B36 SWAP1 PUSH2 0x251B JUMP JUMPDEST DUP1 PUSH1 0x1F ADD PUSH1 0x20 DUP1 SWAP2 DIV MUL PUSH1 0x20 ADD PUSH1 0x40 MLOAD SWAP1 DUP2 ADD PUSH1 0x40 MSTORE DUP1 SWAP3 SWAP2 SWAP1 DUP2 DUP2 MSTORE PUSH1 0x20 ADD DUP3 DUP1 SLOAD PUSH2 0x1B62 SWAP1 PUSH2 0x251B JUMP JUMPDEST DUP1 ISZERO PUSH2 0x1BAF JUMPI DUP1 PUSH1 0x1F LT PUSH2 0x1B84 JUMPI PUSH2 0x100 DUP1 DUP4 SLOAD DIV MUL DUP4 MSTORE SWAP2 PUSH1 0x20 ADD SWAP2 PUSH2 0x1BAF JUMP JUMPDEST DUP3 ADD SWAP2 SWAP1 PUSH1 0x0 MSTORE PUSH1 0x20 PUSH1 0x0 KECCAK256 SWAP1 JUMPDEST DUP2 SLOAD DUP2 MSTORE SWAP1 PUSH1 0x1 ADD SWAP1 PUSH1 0x20 ADD DUP1 DUP4 GT PUSH2 0x1B92 JUMPI DUP3 SWAP1 SUB PUSH1 0x1F AND DUP3 ADD SWAP2 JUMPDEST POP POP POP POP POP DUP2 MSTORE PUSH1 0x20 ADD DUP3 DUP2 MSTORE PUSH1 0x20 ADD TIMESTAMP DUP2 MSTORE PUSH1 0x20 ADD CALLER PUSH20 0xFFFFFFFFFFFFFFFFFFFFFFFFFFFFFFFFFFFFFFFF AND DUP2 MSTORE PUSH1 0x20 ADD PUSH1 0x5 PUSH1 0x0 DUP11 DUP2 MSTORE PUSH1 0x20 ADD SWAP1 DUP2 MSTORE PUSH1 0x20 ADD PUSH1 0x0 KECCAK256 PUSH1 0x7 ADD PUSH1 0x1 SWAP1 SLOAD SWAP1 PUSH2 0x100 EXP SWAP1 DIV PUSH20 0xFFFFFFFFFFFFFFFFFFFFFFFFFFFFFFFFFFFFFFFF AND PUSH20 0xFFFFFFFFFFFFFFFFFFFFFFFFFFFFFFFFFFFFFFFF AND DUP2 MSTORE POP PUSH1 0x7 PUSH1 0x0 PUSH1 0x4 SLOAD DUP2 MSTORE PUSH1 0x20 ADD SWAP1 DUP2 MSTORE PUSH1 0x20 ADD PUSH1 0x0 KECCAK256 PUSH1 0x0 DUP3 ADD MLOAD DUP2 PUSH1 0x0 ADD SSTORE PUSH1 0x20 DUP3 ADD MLOAD DUP2 PUSH1 0x1 ADD SSTORE PUSH1 0x40 DUP3 ADD MLOAD DUP2 PUSH1 0x2 ADD SSTORE PUSH1 0x60 DUP3 ADD MLOAD DUP2 PUSH1 0x3 ADD SWAP1 DUP1 MLOAD SWAP1 PUSH1 0x20 ADD SWAP1 PUSH2 0x1C80 SWAP3 SWAP2 SWAP1 PUSH2 0x1D4D JUMP JUMPDEST POP PUSH1 0x80 DUP3 ADD MLOAD DUP2 PUSH1 0x4 ADD SWAP1 DUP1 MLOAD SWAP1 PUSH1 0x20 ADD SWAP1 PUSH2 0x1C9D SWAP3 SWAP2 SWAP1 PUSH2 0x1D4D JUMP JUMPDEST POP PUSH1 0xA0 DUP3 ADD MLOAD DUP2 PUSH1 0x5 ADD SSTORE PUSH1 0xC0 DUP3 ADD MLOAD DUP2 PUSH1 0x6 ADD SSTORE PUSH1 0xE0 DUP3 ADD MLOAD DUP2 PUSH1 0x7 ADD PUSH1 0x0 PUSH2 0x100 EXP DUP2 SLOAD DUP2 PUSH20 0xFFFFFFFFFFFFFFFFFFFFFFFFFFFFFFFFFFFFFFFF MUL NOT AND SWAP1 DUP4 PUSH20 0xFFFFFFFFFFFFFFFFFFFFFFFFFFFFFFFFFFFFFFFF AND MUL OR SWAP1 SSTORE POP PUSH2 0x100 DUP3 ADD MLOAD DUP2 PUSH1 0x8 ADD PUSH1 0x0 PUSH2 0x100 EXP DUP2 SLOAD DUP2 PUSH20 0xFFFFFFFFFFFFFFFFFFFFFFFFFFFFFFFFFFFFFFFF MUL NOT AND SWAP1 DUP4 PUSH20 0xFFFFFFFFFFFFFFFFFFFFFFFFFFFFFFFFFFFFFFFF AND MUL OR SWAP1 SSTORE POP SWAP1 POP POP POP POP POP POP POP POP POP JUMP JUMPDEST DUP3 DUP1 SLOAD PUSH2 0x1D59 SWAP1 PUSH2 0x251B JUMP JUMPDEST SWAP1 PUSH1 0x0 MSTORE PUSH1 0x20 PUSH1 0x0 KECCAK256 SWAP1 PUSH1 0x1F ADD PUSH1 0x20 SWAP1 DIV DUP2 ADD SWAP3 DUP3 PUSH2 0x1D7B JUMPI PUSH1 0x0 DUP6 SSTORE PUSH2 0x1DC2 JUMP JUMPDEST DUP3 PUSH1 0x1F LT PUSH2 0x1D94 JUMPI DUP1 MLOAD PUSH1 0xFF NOT AND DUP4 DUP1 ADD OR DUP6 SSTORE PUSH2 0x1DC2 JUMP JUMPDEST DUP3 DUP1 ADD PUSH1 0x1 ADD DUP6 SSTORE DUP3 ISZERO PUSH2 0x1DC2 JUMPI SWAP2 DUP3 ADD JUMPDEST DUP3 DUP2 GT ISZERO PUSH2 0x1DC1 JUMPI DUP3 MLOAD DUP3 SSTORE SWAP2 PUSH1 0x20 ADD SWAP2 SWAP1 PUSH1 0x1 ADD SWAP1 PUSH2 0x1DA6 JUMP JUMPDEST JUMPDEST POP SWAP1 POP PUSH2 0x1DCF SWAP2 SWAP1 PUSH2 0x1DD3 JUMP JUMPDEST POP SWAP1 JUMP JUMPDEST JUMPDEST DUP1 DUP3 GT ISZERO PUSH2 0x1DEC JUMPI PUSH1 0x0 DUP2 PUSH1 0x0 SWAP1 SSTORE POP PUSH1 0x1 ADD PUSH2 0x1DD4 JUMP JUMPDEST POP SWAP1 JUMP JUMPDEST PUSH1 0x0 PUSH2 0x1E03 PUSH2 0x1DFE DUP5 PUSH2 0x23EE JUMP JUMPDEST PUSH2 0x23C9 JUMP JUMPDEST SWAP1 POP DUP3 DUP2 MSTORE PUSH1 0x20 DUP2 ADD DUP5 DUP5 DUP5 ADD GT ISZERO PUSH2 0x1E1F JUMPI PUSH2 0x1E1E PUSH2 0x2659 JUMP JUMPDEST JUMPDEST PUSH2 0x1E2A DUP5 DUP3 DUP6 PUSH2 0x24D9 JUMP JUMPDEST POP SWAP4 SWAP3 POP POP POP JUMP JUMPDEST PUSH1 0x0 DUP3 PUSH1 0x1F DUP4 ADD SLT PUSH2 0x1E47 JUMPI PUSH2 0x1E46 PUSH2 0x2654 JUMP JUMPDEST JUMPDEST DUP2 CALLDATALOAD PUSH2 0x1E57 DUP5 DUP3 PUSH1 0x20 DUP7 ADD PUSH2 0x1DF0 JUMP JUMPDEST SWAP2 POP POP SWAP3 SWAP2 POP POP JUMP JUMPDEST PUSH1 0x0 DUP2 CALLDATALOAD SWAP1 POP PUSH2 0x1E6F DUP2 PUSH2 0x27E7 JUMP JUMPDEST SWAP3 SWAP2 POP POP JUMP JUMPDEST PUSH1 0x0 DUP1 PUSH1 0x0 DUP1 PUSH1 0x80 DUP6 DUP8 SUB SLT ISZERO PUSH2 0x1E8F JUMPI PUSH2 0x1E8E PUSH2 0x2663 JUMP JUMPDEST JUMPDEST PUSH1 0x0 DUP6 ADD CALLDATALOAD PUSH8 0xFFFFFFFFFFFFFFFF DUP2 GT ISZERO PUSH2 0x1EAD JUMPI PUSH2 0x1EAC PUSH2 0x265E JUMP JUMPDEST JUMPDEST PUSH2 0x1EB9 DUP8 DUP3 DUP9 ADD PUSH2 0x1E32 JUMP JUMPDEST SWAP5 POP POP PUSH1 0x20 DUP6 ADD CALLDATALOAD PUSH8 0xFFFFFFFFFFFFFFFF DUP2 GT ISZERO PUSH2 0x1EDA JUMPI PUSH2 0x1ED9 PUSH2 0x265E JUMP JUMPDEST JUMPDEST PUSH2 0x1EE6 DUP8 DUP3 DUP9 ADD PUSH2 0x1E32 JUMP JUMPDEST SWAP4 POP POP PUSH1 0x40 PUSH2 0x1EF7 DUP8 DUP3 DUP9 ADD PUSH2 0x1E60 JUMP JUMPDEST SWAP3 POP POP PUSH1 0x60 PUSH2 0x1F08 DUP8 DUP3 DUP9 ADD PUSH2 0x1E60 JUMP JUMPDEST SWAP2 POP POP SWAP3 SWAP6 SWAP2 SWAP5 POP SWAP3 POP JUMP JUMPDEST PUSH1 0x0 PUSH1 0x20 DUP3 DUP5 SUB SLT ISZERO PUSH2 0x1F2A JUMPI PUSH2 0x1F29 PUSH2 0x2663 JUMP JUMPDEST JUMPDEST PUSH1 0x0 PUSH2 0x1F38 DUP5 DUP3 DUP6 ADD PUSH2 0x1E60 JUMP JUMPDEST SWAP2 POP POP SWAP3 SWAP2 POP POP JUMP JUMPDEST PUSH2 0x1F4A DUP2 PUSH2 0x2491 JUMP JUMPDEST DUP3 MSTORE POP POP JUMP JUMPDEST PUSH2 0x1F59 DUP2 PUSH2 0x24A3 JUMP JUMPDEST DUP3 MSTORE POP POP JUMP JUMPDEST PUSH1 0x0 PUSH2 0x1F6A DUP3 PUSH2 0x241F JUMP JUMPDEST PUSH2 0x1F74 DUP2 DUP6 PUSH2 0x242A JUMP JUMPDEST SWAP4 POP PUSH2 0x1F84 DUP2 DUP6 PUSH1 0x20 DUP7 ADD PUSH2 0x24E8 JUMP JUMPDEST PUSH2 0x1F8D DUP2 PUSH2 0x2668 JUMP JUMPDEST DUP5 ADD SWAP2 POP POP SWAP3 SWAP2 POP POP JUMP JUMPDEST PUSH1 0x0 PUSH2 0x1FA5 PUSH1 0x17 DUP4 PUSH2 0x242A JUMP JUMPDEST SWAP2 POP PUSH2 0x1FB0 DUP3 PUSH2 0x2679 JUMP JUMPDEST PUSH1 0x20 DUP3 ADD SWAP1 POP SWAP2 SWAP1 POP JUMP JUMPDEST PUSH1 0x0 PUSH2 0x1FC8 PUSH1 0x1B DUP4 PUSH2 0x242A JUMP JUMPDEST SWAP2 POP PUSH2 0x1FD3 DUP3 PUSH2 0x26A2 JUMP JUMPDEST PUSH1 0x20 DUP3 ADD SWAP1 POP SWAP2 SWAP1 POP JUMP JUMPDEST PUSH1 0x0 PUSH2 0x1FEB PUSH1 0x1D DUP4 PUSH2 0x242A JUMP JUMPDEST SWAP2 POP PUSH2 0x1FF6 DUP3 PUSH2 0x26CB JUMP JUMPDEST PUSH1 0x20 DUP3 ADD SWAP1 POP SWAP2 SWAP1 POP JUMP JUMPDEST PUSH1 0x0 PUSH2 0x200E PUSH1 0x1B DUP4 PUSH2 0x242A JUMP JUMPDEST SWAP2 POP PUSH2 0x2019 DUP3 PUSH2 0x26F4 JUMP JUMPDEST PUSH1 0x20 DUP3 ADD SWAP1 POP SWAP2 SWAP1 POP JUMP JUMPDEST PUSH1 0x0 PUSH2 0x2031 PUSH1 0x2F DUP4 PUSH2 0x242A JUMP JUMPDEST SWAP2 POP PUSH2 0x203C DUP3 PUSH2 0x271D JUMP JUMPDEST PUSH1 0x40 DUP3 ADD SWAP1 POP SWAP2 SWAP1 POP JUMP JUMPDEST PUSH1 0x0 PUSH2 0x2054 PUSH1 0x1F DUP4 PUSH2 0x242A JUMP JUMPDEST SWAP2 POP PUSH2 0x205F DUP3 PUSH2 0x276C JUMP JUMPDEST PUSH1 0x20 DUP3 ADD SWAP1 POP SWAP2 SWAP1 POP JUMP JUMPDEST PUSH1 0x0 PUSH2 0x2077 PUSH1 0x20 DUP4 PUSH2 0x242A JUMP JUMPDEST SWAP2 POP PUSH2 0x2082 DUP3 PUSH2 0x2795 JUMP JUMPDEST PUSH1 0x20 DUP3 ADD SWAP1 POP SWAP2 SWAP1 POP JUMP JUMPDEST PUSH1 0x0 PUSH2 0x209A PUSH1 0x15 DUP4 PUSH2 0x242A JUMP JUMPDEST SWAP2 POP PUSH2 0x20A5 DUP3 PUSH2 0x27BE JUMP JUMPDEST PUSH1 0x20 DUP3 ADD SWAP1 POP SWAP2 SWAP1 POP JUMP JUMPDEST PUSH2 0x20B9 DUP2 PUSH2 0x24CF JUMP JUMPDEST DUP3 MSTORE POP POP JUMP JUMPDEST PUSH1 0x0 PUSH1 0x20 DUP3 ADD SWAP1 POP DUP2 DUP2 SUB PUSH1 0x0 DUP4 ADD MSTORE PUSH2 0x20D8 DUP2 PUSH2 0x1F98 JUMP JUMPDEST SWAP1 POP SWAP2 SWAP1 POP JUMP JUMPDEST PUSH1 0x0 PUSH1 0x20 DUP3 ADD SWAP1 POP DUP2 DUP2 SUB PUSH1 0x0 DUP4 ADD MSTORE PUSH2 0x20F8 DUP2 PUSH2 0x1FBB JUMP JUMPDEST SWAP1 POP SWAP2 SWAP1 POP JUMP JUMPDEST PUSH1 0x0 PUSH1 0x20 DUP3 ADD SWAP1 POP DUP2 DUP2 SUB PUSH1 0x0 DUP4 ADD MSTORE PUSH2 0x2118 DUP2 PUSH2 0x1FDE JUMP JUMPDEST SWAP1 POP SWAP2 SWAP1 POP JUMP JUMPDEST PUSH1 0x0 PUSH1 0x20 DUP3 ADD SWAP1 POP DUP2 DUP2 SUB PUSH1 0x0 DUP4 ADD MSTORE PUSH2 0x2138 DUP2 PUSH2 0x2001 JUMP JUMPDEST SWAP1 POP SWAP2 SWAP1 POP JUMP JUMPDEST PUSH1 0x0 PUSH1 0x20 DUP3 ADD SWAP1 POP DUP2 DUP2 SUB PUSH1 0x0 DUP4 ADD MSTORE PUSH2 0x2158 DUP2 PUSH2 0x2024 JUMP JUMPDEST SWAP1 POP SWAP2 SWAP1 POP JUMP JUMPDEST PUSH1 0x0 PUSH1 0x20 DUP3 ADD SWAP1 POP DUP2 DUP2 SUB PUSH1 0x0 DUP4 ADD MSTORE PUSH2 0x2178 DUP2 PUSH2 0x2047 JUMP JUMPDEST SWAP1 POP SWAP2 SWAP1 POP JUMP JUMPDEST PUSH1 0x0 PUSH1 0x20 DUP3 ADD SWAP1 POP DUP2 DUP2 SUB PUSH1 0x0 DUP4 ADD MSTORE PUSH2 0x2198 DUP2 PUSH2 0x206A JUMP JUMPDEST SWAP1 POP SWAP2 SWAP1 POP JUMP JUMPDEST PUSH1 0x0 PUSH1 0x20 DUP3 ADD SWAP1 POP DUP2 DUP2 SUB PUSH1 0x0 DUP4 ADD MSTORE PUSH2 0x21B8 DUP2 PUSH2 0x208D JUMP JUMPDEST SWAP1 POP SWAP2 SWAP1 POP JUMP JUMPDEST PUSH1 0x0 PUSH1 0x20 DUP3 ADD SWAP1 POP PUSH2 0x21D4 PUSH1 0x0 DUP4 ADD DUP5 PUSH2 0x20B0 JUMP JUMPDEST SWAP3 SWAP2 POP POP JUMP JUMPDEST PUSH1 0x0 PUSH2 0x140 DUP3 ADD SWAP1 POP PUSH2 0x21F0 PUSH1 0x0 DUP4 ADD DUP14 PUSH2 0x20B0 JUMP JUMPDEST PUSH2 0x21FD PUSH1 0x20 DUP4 ADD DUP13 PUSH2 0x20B0 JUMP JUMPDEST DUP2 DUP2 SUB PUSH1 0x40 DUP4 ADD MSTORE PUSH2 0x220F DUP2 DUP12 PUSH2 0x1F5F JUMP JUMPDEST SWAP1 POP DUP2 DUP2 SUB PUSH1 0x60 DUP4 ADD MSTORE PUSH2 0x2223 DUP2 DUP11 PUSH2 0x1F5F JUMP JUMPDEST SWAP1 POP PUSH2 0x2232 PUSH1 0x80 DUP4 ADD DUP10 PUSH2 0x20B0 JUMP JUMPDEST PUSH2 0x223F PUSH1 0xA0 DUP4 ADD DUP9 PUSH2 0x20B0 JUMP JUMPDEST PUSH2 0x224C PUSH1 0xC0 DUP4 ADD DUP8 PUSH2 0x20B0 JUMP JUMPDEST PUSH2 0x2259 PUSH1 0xE0 DUP4 ADD DUP7 PUSH2 0x1F50 JUMP JUMPDEST PUSH2 0x2267 PUSH2 0x100 DUP4 ADD DUP6 PUSH2 0x1F41 JUMP JUMPDEST PUSH2 0x2275 PUSH2 0x120 DUP4 ADD DUP5 PUSH2 0x1F41 JUMP JUMPDEST SWAP12 SWAP11 POP POP POP POP POP POP POP POP POP POP POP JUMP JUMPDEST PUSH1 0x0 PUSH2 0x140 DUP3 ADD SWAP1 POP PUSH2 0x229A PUSH1 0x0 DUP4 ADD DUP14 PUSH2 0x20B0 JUMP JUMPDEST PUSH2 0x22A7 PUSH1 0x20 DUP4 ADD DUP13 PUSH2 0x20B0 JUMP JUMPDEST DUP2 DUP2 SUB PUSH1 0x40 DUP4 ADD MSTORE PUSH2 0x22B9 DUP2 DUP12 PUSH2 0x1F5F JUMP JUMPDEST SWAP1 POP DUP2 DUP2 SUB PUSH1 0x60 DUP4 ADD MSTORE PUSH2 0x22CD DUP2 DUP11 PUSH2 0x1F5F JUMP JUMPDEST SWAP1 POP PUSH2 0x22DC PUSH1 0x80 DUP4 ADD DUP10 PUSH2 0x20B0 JUMP JUMPDEST PUSH2 0x22E9 PUSH1 0xA0 DUP4 ADD DUP9 PUSH2 0x20B0 JUMP JUMPDEST PUSH2 0x22F6 PUSH1 0xC0 DUP4 ADD DUP8 PUSH2 0x20B0 JUMP JUMPDEST PUSH2 0x2303 PUSH1 0xE0 DUP4 ADD DUP7 PUSH2 0x20B0 JUMP JUMPDEST PUSH2 0x2311 PUSH2 0x100 DUP4 ADD DUP6 PUSH2 0x1F41 JUMP JUMPDEST PUSH2 0x231F PUSH2 0x120 DUP4 ADD DUP5 PUSH2 0x1F41 JUMP JUMPDEST SWAP12 SWAP11 POP POP POP POP POP POP POP POP POP POP POP JUMP JUMPDEST PUSH1 0x0 PUSH2 0x120 DUP3 ADD SWAP1 POP PUSH2 0x2344 PUSH1 0x0 DUP4 ADD DUP13 PUSH2 0x20B0 JUMP JUMPDEST PUSH2 0x2351 PUSH1 0x20 DUP4 ADD DUP12 PUSH2 0x20B0 JUMP JUMPDEST PUSH2 0x235E PUSH1 0x40 DUP4 ADD DUP11 PUSH2 0x20B0 JUMP JUMPDEST DUP2 DUP2 SUB PUSH1 0x60 DUP4 ADD MSTORE PUSH2 0x2370 DUP2 DUP10 PUSH2 0x1F5F JUMP JUMPDEST SWAP1 POP DUP2 DUP2 SUB PUSH1 0x80 DUP4 ADD MSTORE PUSH2 0x2384 DUP2 DUP9 PUSH2 0x1F5F JUMP JUMPDEST SWAP1 POP PUSH2 0x2393 PUSH1 0xA0 DUP4 ADD DUP8 PUSH2 0x20B0 JUMP JUMPDEST PUSH2 0x23A0 PUSH1 0xC0 DUP4 ADD DUP7 PUSH2 0x20B0 JUMP JUMPDEST PUSH2 0x23AD PUSH1 0xE0 DUP4 ADD DUP6 PUSH2 0x1F41 JUMP JUMPDEST PUSH2 0x23BB PUSH2 0x100 DUP4 ADD DUP5 PUSH2 0x1F41 JUMP JUMPDEST SWAP11 SWAP10 POP POP POP POP POP POP POP POP POP POP JUMP JUMPDEST PUSH1 0x0 PUSH2 0x23D3 PUSH2 0x23E4 JUMP JUMPDEST SWAP1 POP PUSH2 0x23DF DUP3 DUP3 PUSH2 0x254D JUMP JUMPDEST SWAP2 SWAP1 POP JUMP JUMPDEST PUSH1 0x0 PUSH1 0x40 MLOAD SWAP1 POP SWAP1 JUMP JUMPDEST PUSH1 0x0 PUSH8 0xFFFFFFFFFFFFFFFF DUP3 GT ISZERO PUSH2 0x2409 JUMPI PUSH2 0x2408 PUSH2 0x2625 JUMP JUMPDEST JUMPDEST PUSH2 0x2412 DUP3 PUSH2 0x2668 JUMP JUMPDEST SWAP1 POP PUSH1 0x20 DUP2 ADD SWAP1 POP SWAP2 SWAP1 POP JUMP JUMPDEST PUSH1 0x0 DUP2 MLOAD SWAP1 POP SWAP2 SWAP1 POP JUMP JUMPDEST PUSH1 0x0 DUP3 DUP3 MSTORE PUSH1 0x20 DUP3 ADD SWAP1 POP SWAP3 SWAP2 POP POP JUMP JUMPDEST PUSH1 0x0 PUSH2 0x2446 DUP3 PUSH2 0x24CF JUMP JUMPDEST SWAP2 POP PUSH2 0x2451 DUP4 PUSH2 0x24CF JUMP JUMPDEST SWAP3 POP DUP3 PUSH32 0xFFFFFFFFFFFFFFFFFFFFFFFFFFFFFFFFFFFFFFFFFFFFFFFFFFFFFFFFFFFFFFFF SUB DUP3 GT ISZERO PUSH2 0x2486 JUMPI PUSH2 0x2485 PUSH2 0x25C7 JUMP JUMPDEST JUMPDEST DUP3 DUP3 ADD SWAP1 POP SWAP3 SWAP2 POP POP JUMP JUMPDEST PUSH1 0x0 PUSH2 0x249C DUP3 PUSH2 0x24AF JUMP JUMPDEST SWAP1 POP SWAP2 SWAP1 POP JUMP JUMPDEST PUSH1 0x0 DUP2 ISZERO ISZERO SWAP1 POP SWAP2 SWAP1 POP JUMP JUMPDEST PUSH1 0x0 PUSH20 0xFFFFFFFFFFFFFFFFFFFFFFFFFFFFFFFFFFFFFFFF DUP3 AND SWAP1 POP SWAP2 SWAP1 POP JUMP JUMPDEST PUSH1 0x0 DUP2 SWAP1 POP SWAP2 SWAP1 POP JUMP JUMPDEST DUP3 DUP2 DUP4 CALLDATACOPY PUSH1 0x0 DUP4 DUP4 ADD MSTORE POP POP POP JUMP JUMPDEST PUSH1 0x0 JUMPDEST DUP4 DUP2 LT ISZERO PUSH2 0x2506 JUMPI DUP1 DUP3 ADD MLOAD DUP2 DUP5 ADD MSTORE PUSH1 0x20 DUP2 ADD SWAP1 POP PUSH2 0x24EB JUMP JUMPDEST DUP4 DUP2 GT ISZERO PUSH2 0x2515 JUMPI PUSH1 0x0 DUP5 DUP5 ADD MSTORE JUMPDEST POP POP POP POP JUMP JUMPDEST PUSH1 0x0 PUSH1 0x2 DUP3 DIV SWAP1 POP PUSH1 0x1 DUP3 AND DUP1 PUSH2 0x2533 JUMPI PUSH1 0x7F DUP3 AND SWAP2 POP JUMPDEST PUSH1 0x20 DUP3 LT DUP2 EQ ISZERO PUSH2 0x2547 JUMPI PUSH2 0x2546 PUSH2 0x25F6 JUMP JUMPDEST JUMPDEST POP SWAP2 SWAP1 POP JUMP JUMPDEST PUSH2 0x2556 DUP3 PUSH2 0x2668 JUMP JUMPDEST DUP2 ADD DUP2 DUP2 LT PUSH8 0xFFFFFFFFFFFFFFFF DUP3 GT OR ISZERO PUSH2 0x2575 JUMPI PUSH2 0x2574 PUSH2 0x2625 JUMP JUMPDEST JUMPDEST DUP1 PUSH1 0x40 MSTORE POP POP POP JUMP JUMPDEST PUSH1 0x0 PUSH2 0x2589 DUP3 PUSH2 0x24CF JUMP JUMPDEST SWAP2 POP PUSH32 0xFFFFFFFFFFFFFFFFFFFFFFFFFFFFFFFFFFFFFFFFFFFFFFFFFFFFFFFFFFFFFFFF DUP3 EQ ISZERO PUSH2 0x25BC JUMPI PUSH2 0x25BB PUSH2 0x25C7 JUMP JUMPDEST JUMPDEST PUSH1 0x1 DUP3 ADD SWAP1 POP SWAP2 SWAP1 POP JUMP JUMPDEST PUSH32 0x4E487B7100000000000000000000000000000000000000000000000000000000 PUSH1 0x0 MSTORE PUSH1 0x11 PUSH1 0x4 MSTORE PUSH1 0x24 PUSH1 0x0 REVERT JUMPDEST PUSH32 0x4E487B7100000000000000000000000000000000000000000000000000000000 PUSH1 0x0 MSTORE PUSH1 0x22 PUSH1 0x4 MSTORE PUSH1 0x24 PUSH1 0x0 REVERT JUMPDEST PUSH32 0x4E487B7100000000000000000000000000000000000000000000000000000000 PUSH1 0x0 MSTORE PUSH1 0x41 PUSH1 0x4 MSTORE PUSH1 0x24 PUSH1 0x0 REVERT JUMPDEST PUSH1 0x0 DUP1 REVERT JUMPDEST PUSH1 0x0 DUP1 REVERT JUMPDEST PUSH1 0x0 DUP1 REVERT JUMPDEST PUSH1 0x0 DUP1 REVERT JUMPDEST PUSH1 0x0 PUSH1 0x1F NOT PUSH1 0x1F DUP4 ADD AND SWAP1 POP SWAP2 SWAP1 POP JUMP JUMPDEST PUSH32 0x41677265656D656E7420616C726561647920456E646564000000000000000000 PUSH1 0x0 DUP3 ADD MSTORE POP JUMP JUMPDEST PUSH32 0x526F6F6D2069732063757272656E746C79204F636375706965642E0000000000 PUSH1 0x0 DUP3 ADD MSTORE POP JUMP JUMPDEST PUSH32 0x4F6E6C79206C616E646C6F72642063616E206163636573732074686973000000 PUSH1 0x0 DUP3 ADD MSTORE POP JUMP JUMPDEST PUSH32 0x4F6E6C792054656E616E742063616E2061636365737320746869730000000000 PUSH1 0x0 DUP3 ADD MSTORE POP JUMP JUMPDEST PUSH32 0x4E6F2070726576696F75732061677265656D656E7420666F756E642077697468 PUSH1 0x0 DUP3 ADD MSTORE PUSH32 0x20796F752026206C616E646C6F72640000000000000000000000000000000000 PUSH1 0x20 DUP3 ADD MSTORE POP JUMP JUMPDEST PUSH32 0x4E6F7420656E6F75676820457468657220696E20796F75722077616C6C657400 PUSH1 0x0 DUP3 ADD MSTORE POP JUMP JUMPDEST PUSH32 0x54696D65206973206C65667420666F7220636F6E747261637420746F20656E64 PUSH1 0x0 DUP3 ADD MSTORE POP JUMP JUMPDEST PUSH32 0x54696D65206C65667420746F207061792052656E740000000000000000000000 PUSH1 0x0 DUP3 ADD MSTORE POP JUMP JUMPDEST PUSH2 0x27F0 DUP2 PUSH2 0x24CF JUMP JUMPDEST DUP2 EQ PUSH2 0x27FB JUMPI PUSH1 0x0 DUP1 REVERT JUMPDEST POP JUMP INVALID LOG2 PUSH5 0x6970667358 0x22 SLT KECCAK256 0xB4 KECCAK256 0x1F PUSH21 0xDAF686047070F8355499909BFAD1243FF4D7B3FE02 MOD POP JUMPI 0xBD 0xEA 0xC7 0xEF PUSH5 0x736F6C6343 STOP ADDMOD SMOD STOP CALLER "
				},
				"gasEstimates": {
					"creation": {
						"codeDepositCost": "2058400",
						"executionCost": "17203",
						"totalCost": "2075603"
					},
					"external": {
						"Rent_by_No(uint256)": "infinite",
						"RoomAgreement_by_No(uint256)": "infinite",
						"Room_by_No(uint256)": "infinite",
						"addRoom(string,string,uint256,uint256)": "infinite",
						"agreementCompleted(uint256)": "infinite",
						"agreementTerminated(uint256)": "infinite",
						"no_of_agreements()": "2496",
						"no_of_rent()": "2495",
						"no_of_rooms()": "2451",
						"payRent(uint256)": "infinite",
						"signAgreement(uint256)": "infinite"
					}
				},
				"methodIdentifiers": {
					"Rent_by_No(uint256)": "d0d205b7",
					"RoomAgreement_by_No(uint256)": "02bb2725",
					"Room_by_No(uint256)": "46959587",
					"addRoom(string,string,uint256,uint256)": "63e475bd",
					"agreementCompleted(uint256)": "16abb8a1",
					"agreementTerminated(uint256)": "4f5e4428",
					"no_of_agreements()": "249461e1",
					"no_of_rent()": "75eb9ef6",
					"no_of_rooms()": "59e2cbec",
					"payRent(uint256)": "d9e8843f",
					"signAgreement(uint256)": "03742de0"
				}
			},
			"storageLayout": {
				"storage": [
					{
						"astId": 3,
						"contract": "hostel.sol:Hostel",
						"label": "tenant",
						"offset": 0,
						"slot": "0",
						"type": "t_address_payable"
					},
					{
						"astId": 5,
						"contract": "hostel.sol:Hostel",
						"label": "landlord",
						"offset": 0,
						"slot": "1",
						"type": "t_address_payable"
					},
					{
						"astId": 8,
						"contract": "hostel.sol:Hostel",
						"label": "no_of_rooms",
						"offset": 0,
						"slot": "2",
						"type": "t_uint256"
					},
					{
						"astId": 11,
						"contract": "hostel.sol:Hostel",
						"label": "no_of_agreements",
						"offset": 0,
						"slot": "3",
						"type": "t_uint256"
					},
					{
						"astId": 14,
						"contract": "hostel.sol:Hostel",
						"label": "no_of_rent",
						"offset": 0,
						"slot": "4",
						"type": "t_uint256"
					},
					{
						"astId": 40,
						"contract": "hostel.sol:Hostel",
						"label": "Room_by_No",
						"offset": 0,
						"slot": "5",
						"type": "t_mapping(t_uint256,t_struct(Room)35_storage)"
					},
					{
						"astId": 66,
						"contract": "hostel.sol:Hostel",
						"label": "RoomAgreement_by_No",
						"offset": 0,
						"slot": "6",
						"type": "t_mapping(t_uint256,t_struct(RoomAgreement)61_storage)"
					},
					{
						"astId": 90,
						"contract": "hostel.sol:Hostel",
						"label": "Rent_by_No",
						"offset": 0,
						"slot": "7",
						"type": "t_mapping(t_uint256,t_struct(Rent)85_storage)"
					}
				],
				"types": {
					"t_address_payable": {
						"encoding": "inplace",
						"label": "address payable",
						"numberOfBytes": "20"
					},
					"t_bool": {
						"encoding": "inplace",
						"label": "bool",
						"numberOfBytes": "1"
					},
					"t_mapping(t_uint256,t_struct(Rent)85_storage)": {
						"encoding": "mapping",
						"key": "t_uint256",
						"label": "mapping(uint256 => struct Hostel.Rent)",
						"numberOfBytes": "32",
						"value": "t_struct(Rent)85_storage"
					},
					"t_mapping(t_uint256,t_struct(Room)35_storage)": {
						"encoding": "mapping",
						"key": "t_uint256",
						"label": "mapping(uint256 => struct Hostel.Room)",
						"numberOfBytes": "32",
						"value": "t_struct(Room)35_storage"
					},
					"t_mapping(t_uint256,t_struct(RoomAgreement)61_storage)": {
						"encoding": "mapping",
						"key": "t_uint256",
						"label": "mapping(uint256 => struct Hostel.RoomAgreement)",
						"numberOfBytes": "32",
						"value": "t_struct(RoomAgreement)61_storage"
					},
					"t_string_storage": {
						"encoding": "bytes",
						"label": "string",
						"numberOfBytes": "32"
					},
					"t_struct(Rent)85_storage": {
						"encoding": "inplace",
						"label": "struct Hostel.Rent",
						"members": [
							{
								"astId": 68,
								"contract": "hostel.sol:Hostel",
								"label": "rentno",
								"offset": 0,
								"slot": "0",
								"type": "t_uint256"
							},
							{
								"astId": 70,
								"contract": "hostel.sol:Hostel",
								"label": "roomid",
								"offset": 0,
								"slot": "1",
								"type": "t_uint256"
							},
							{
								"astId": 72,
								"contract": "hostel.sol:Hostel",
								"label": "agreementid",
								"offset": 0,
								"slot": "2",
								"type": "t_uint256"
							},
							{
								"astId": 74,
								"contract": "hostel.sol:Hostel",
								"label": "Roomname",
								"offset": 0,
								"slot": "3",
								"type": "t_string_storage"
							},
							{
								"astId": 76,
								"contract": "hostel.sol:Hostel",
								"label": "RoomAddresss",
								"offset": 0,
								"slot": "4",
								"type": "t_string_storage"
							},
							{
								"astId": 78,
								"contract": "hostel.sol:Hostel",
								"label": "rent_per_month",
								"offset": 0,
								"slot": "5",
								"type": "t_uint256"
							},
							{
								"astId": 80,
								"contract": "hostel.sol:Hostel",
								"label": "timestamp",
								"offset": 0,
								"slot": "6",
								"type": "t_uint256"
							},
							{
								"astId": 82,
								"contract": "hostel.sol:Hostel",
								"label": "tenantAddress",
								"offset": 0,
								"slot": "7",
								"type": "t_address_payable"
							},
							{
								"astId": 84,
								"contract": "hostel.sol:Hostel",
								"label": "landlordAddress",
								"offset": 0,
								"slot": "8",
								"type": "t_address_payable"
							}
						],
						"numberOfBytes": "288"
					},
					"t_struct(Room)35_storage": {
						"encoding": "inplace",
						"label": "struct Hostel.Room",
						"members": [
							{
								"astId": 16,
								"contract": "hostel.sol:Hostel",
								"label": "roomid",
								"offset": 0,
								"slot": "0",
								"type": "t_uint256"
							},
							{
								"astId": 18,
								"contract": "hostel.sol:Hostel",
								"label": "agreementid",
								"offset": 0,
								"slot": "1",
								"type": "t_uint256"
							},
							{
								"astId": 20,
								"contract": "hostel.sol:Hostel",
								"label": "roomname",
								"offset": 0,
								"slot": "2",
								"type": "t_string_storage"
							},
							{
								"astId": 22,
								"contract": "hostel.sol:Hostel",
								"label": "roomaddress",
								"offset": 0,
								"slot": "3",
								"type": "t_string_storage"
							},
							{
								"astId": 24,
								"contract": "hostel.sol:Hostel",
								"label": "rent_per_month",
								"offset": 0,
								"slot": "4",
								"type": "t_uint256"
							},
							{
								"astId": 26,
								"contract": "hostel.sol:Hostel",
								"label": "securityDeposit",
								"offset": 0,
								"slot": "5",
								"type": "t_uint256"
							},
							{
								"astId": 28,
								"contract": "hostel.sol:Hostel",
								"label": "timestamp",
								"offset": 0,
								"slot": "6",
								"type": "t_uint256"
							},
							{
								"astId": 30,
								"contract": "hostel.sol:Hostel",
								"label": "vacant",
								"offset": 0,
								"slot": "7",
								"type": "t_bool"
							},
							{
								"astId": 32,
								"contract": "hostel.sol:Hostel",
								"label": "landlord",
								"offset": 1,
								"slot": "7",
								"type": "t_address_payable"
							},
							{
								"astId": 34,
								"contract": "hostel.sol:Hostel",
								"label": "currentTenant",
								"offset": 0,
								"slot": "8",
								"type": "t_address_payable"
							}
						],
						"numberOfBytes": "288"
					},
					"t_struct(RoomAgreement)61_storage": {
						"encoding": "inplace",
						"label": "struct Hostel.RoomAgreement",
						"members": [
							{
								"astId": 42,
								"contract": "hostel.sol:Hostel",
								"label": "roomid",
								"offset": 0,
								"slot": "0",
								"type": "t_uint256"
							},
							{
								"astId": 44,
								"contract": "hostel.sol:Hostel",
								"label": "agreementid",
								"offset": 0,
								"slot": "1",
								"type": "t_uint256"
							},
							{
								"astId": 46,
								"contract": "hostel.sol:Hostel",
								"label": "Roomname",
								"offset": 0,
								"slot": "2",
								"type": "t_string_storage"
							},
							{
								"astId": 48,
								"contract": "hostel.sol:Hostel",
								"label": "RoomAddresss",
								"offset": 0,
								"slot": "3",
								"type": "t_string_storage"
							},
							{
								"astId": 50,
								"contract": "hostel.sol:Hostel",
								"label": "rent_per_month",
								"offset": 0,
								"slot": "4",
								"type": "t_uint256"
							},
							{
								"astId": 52,
								"contract": "hostel.sol:Hostel",
								"label": "securityDeposit",
								"offset": 0,
								"slot": "5",
								"type": "t_uint256"
							},
							{
								"astId": 54,
								"contract": "hostel.sol:Hostel",
								"label": "lockInPeriod",
								"offset": 0,
								"slot": "6",
								"type": "t_uint256"
							},
							{
								"astId": 56,
								"contract": "hostel.sol:Hostel",
								"label": "timestamp",
								"offset": 0,
								"slot": "7",
								"type": "t_uint256"
							},
							{
								"astId": 58,
								"contract": "hostel.sol:Hostel",
								"label": "tenantAddress",
								"offset": 0,
								"slot": "8",
								"type": "t_address_payable"
							},
							{
								"astId": 60,
								"contract": "hostel.sol:Hostel",
								"label": "landlordAddress",
								"offset": 0,
								"slot": "9",
								"type": "t_address_payable"
							}
						],
						"numberOfBytes": "320"
					},
					"t_uint256": {
						"encoding": "inplace",
						"label": "uint256",
						"numberOfBytes": "32"
					}
				}
			},
			"userdoc": {
				"kind": "user",
				"methods": {},
				"version": 1
			}
		}
	}
}